{
  "transactions": [
    {
      "hash": "0xe140649debf28839208ed999449e1da8ceeb5d9f2ac31d8c0995ffb10397f55c",
      "transactionType": "CALL",
      "contractName": null,
      "contractAddress": "0x927fb1414f83905620f460b024bcff2dd1da430c",
      "function": "mint(address,uint256)",
      "arguments": [
        "0x66664013474a29e9807D1736B1B1123F63345e22",
        "10000000"
      ],
      "transaction": {
        "from": "0x66664013474a29e9807d1736b1b1123f63345e22",
        "to": "0x927fb1414f83905620f460b024bcff2dd1da430c",
        "gas": "0xc47b",
        "value": "0x0",
        "input": "0x40c10f1900000000000000000000000066664013474a29e9807d1736b1b1123f63345e220000000000000000000000000000000000000000000000000000000000989680",
        "nonce": "0x1f",
        "chainId": "0x13882"
      },
      "additionalContracts": [],
      "isFixedGasLimit": false
    }
  ],
  "receipts": [
    {
      "status": "0x1",
      "cumulativeGasUsed": "0x3b363",
      "logs": [
        {
          "address": "0x927fb1414f83905620f460b024bcff2dd1da430c",
          "topics": [
            "0xddf252ad1be2c89b69c2b068fc378daa952ba7f163c4a11628f55a4df523b3ef",
            "0x0000000000000000000000000000000000000000000000000000000000000000",
            "0x00000000000000000000000066664013474a29e9807d1736b1b1123f63345e22"
          ],
          "data": "0x0000000000000000000000000000000000000000000000000000000000989680",
          "blockHash": "0xc995e39405cb5385deb147769b5156f02101becc92bfb71f2160c3c2c272f6ff",
          "blockNumber": "0xcc3c9e",
          "transactionHash": "0xe140649debf28839208ed999449e1da8ceeb5d9f2ac31d8c0995ffb10397f55c",
          "transactionIndex": "0x1",
          "logIndex": "0x5",
          "removed": false
        },
        {
          "address": "0x0000000000000000000000000000000000001010",
          "topics": [
            "0x4dfe1bbbcf077ddc3e01291eea2d5c70c2b422b415d95645b9adcfd678cb1d63",
            "0x0000000000000000000000000000000000000000000000000000000000001010",
            "0x00000000000000000000000066664013474a29e9807d1736b1b1123f63345e22",
            "0x0000000000000000000000006dc2dd54f24979ec26212794c71afefed722280c"
          ],
          "data": "0x000000000000000000000000000000000000000000000000000533dc67a150000000000000000000000000000000000000000000000000000291b3734e485111000000000000000000000000000000000000000000000377f9ccb9fa306cd75c000000000000000000000000000000000000000000000000028c7f96e6a70111000000000000000000000000000000000000000000000377f9d1edd6980e275c",
          "blockHash": "0xc995e39405cb5385deb147769b5156f02101becc92bfb71f2160c3c2c272f6ff",
          "blockNumber": "0xcc3c9e",
          "transactionHash": "0xe140649debf28839208ed999449e1da8ceeb5d9f2ac31d8c0995ffb10397f55c",
          "transactionIndex": "0x1",
          "logIndex": "0x6",
          "removed": false
        }
      ],
      "logsBloom": "0x00000000000000000000000000000000000000000000000000000000000000000000000000000000000000000000000000008000000000040000000000000000000000100200000000000008000000800000000000000000000100080000000000000000020000000000000000000800000000800000000080000010000000020000000000000000000000000040000000000000000000000000000000000000200000000000000000000000000000000000000000000000000000000000004000000002000000000081000000000000000000000000000000100000000020000000000000000000000000000000000000000000000000000008000000100000",
      "type": "0x2",
      "transactionHash": "0xe140649debf28839208ed999449e1da8ceeb5d9f2ac31d8c0995ffb10397f55c",
      "transactionIndex": "0x1",
      "blockHash": "0xc995e39405cb5385deb147769b5156f02101becc92bfb71f2160c3c2c272f6ff",
      "blockNumber": "0xcc3c9e",
      "gasUsed": "0x8e40",
      "effectiveGasPrice": "0x95ce1af4f",
      "from": "0x66664013474a29e9807d1736b1b1123f63345e22",
      "to": "0x927fb1414f83905620f460b024bcff2dd1da430c",
      "contractAddress": null
    }
  ],
  "libraries": [],
  "pending": [],
  "returns": {},
  "timestamp": 1729388571,
  "chain": 80002,
  "commit": "41db7fa"
}