{
  "transactions": [
    {
      "hash": "0x84fc1e111112721bba78784db222a808dbaf41c1b56dcb2803a342ed1947be65",
      "transactionType": "CALL",
      "contractName": null,
      "contractAddress": "0x927fb1414f83905620f460b024bcff2dd1da430c",
      "function": "mint(address,uint256)",
      "arguments": [
        "0x646bE080C4900a80472078Ffcf1c2C4f7184957E",
        "10000000"
      ],
      "transaction": {
        "from": "0x66664013474a29e9807d1736b1b1123f63345e22",
        "to": "0x927fb1414f83905620f460b024bcff2dd1da430c",
        "gas": "0x120be",
        "value": "0x0",
        "input": "0x40c10f19000000000000000000000000646be080c4900a80472078ffcf1c2c4f7184957e0000000000000000000000000000000000000000000000000000000000989680",
        "nonce": "0x20",
        "chainId": "0x13882"
      },
      "additionalContracts": [],
      "isFixedGasLimit": false
    }
  ],
  "receipts": [
    {
      "status": "0x1",
      "cumulativeGasUsed": "0x498b4",
      "logs": [
        {
          "address": "0x927fb1414f83905620f460b024bcff2dd1da430c",
          "topics": [
            "0xddf252ad1be2c89b69c2b068fc378daa952ba7f163c4a11628f55a4df523b3ef",
            "0x0000000000000000000000000000000000000000000000000000000000000000",
            "0x000000000000000000000000646be080c4900a80472078ffcf1c2c4f7184957e"
          ],
          "data": "0x0000000000000000000000000000000000000000000000000000000000989680",
          "blockHash": "0xc43e33f822bb31bbcf89d41ece83ddb19a418bb0a1b4a7fedd2ecb01dfb22f26",
          "blockNumber": "0xcc3d61",
          "transactionHash": "0x84fc1e111112721bba78784db222a808dbaf41c1b56dcb2803a342ed1947be65",
          "transactionIndex": "0x2",
          "logIndex": "0x8",
          "removed": false
        },
        {
          "address": "0x0000000000000000000000000000000000001010",
          "topics": [
            "0x4dfe1bbbcf077ddc3e01291eea2d5c70c2b422b415d95645b9adcfd678cb1d63",
            "0x0000000000000000000000000000000000000000000000000000000000001010",
            "0x00000000000000000000000066664013474a29e9807d1736b1b1123f63345e22",
            "0x00000000000000000000000093feed2cc3d58c2b1bb62ce63125fa7fcaae7177"
          ],
          "data": "0x0000000000000000000000000000000000000000000000000007e209168dff58000000000000000000000000000000000000000000000000028c7f96e69eab5100000000000000000000000000000000000000000000002ae6d43595db4c3cbb00000000000000000000000000000000000000000000000002849d8dd010abf900000000000000000000000000000000000000000000002ae6dc179ef1da3c13",
          "blockHash": "0xc43e33f822bb31bbcf89d41ece83ddb19a418bb0a1b4a7fedd2ecb01dfb22f26",
          "blockNumber": "0xcc3d61",
          "transactionHash": "0x84fc1e111112721bba78784db222a808dbaf41c1b56dcb2803a342ed1947be65",
          "transactionIndex": "0x2",
          "logIndex": "0x9",
          "removed": false
        }
      ],
      "logsBloom": "0x00000000000000000000000000400000000000000000000000000000000000000000000000000000000000000000000000008000000000040000000000000000000000100200000004000008000000800000000000000000000100000000000000000000020000000000000000000800000000800000000080000010000000000000000000000000000000000000000000000000000000000000040000000000200000000400000000000000000200000000000000000000000000000000004000000002000000000081000000000000000000000000000000100000000020000800000000000000000000000000000000000000000000000008000000100000",
      "type": "0x2",
      "transactionHash": "0x84fc1e111112721bba78784db222a808dbaf41c1b56dcb2803a342ed1947be65",
      "transactionIndex": "0x2",
      "blockHash": "0xc43e33f822bb31bbcf89d41ece83ddb19a418bb0a1b4a7fedd2ecb01dfb22f26",
      "blockNumber": "0xcc3d61",
      "gasUsed": "0xd10c",
      "effectiveGasPrice": "0x9a74c3e81",
      "from": "0x66664013474a29e9807d1736b1b1123f63345e22",
      "to": "0x927fb1414f83905620f460b024bcff2dd1da430c",
      "contractAddress": null
    }
  ],
  "libraries": [],
  "pending": [],
  "returns": {},
  "timestamp": 1729388987,
  "chain": 80002,
  "commit": "41db7fa"
}