{
  "transactions": [
    {
      "hash": "0xf9d30187ad37a1ecba09dcaa2dbfee07a6947cfb06155bde6a88956cdde9e6e0",
      "transactionType": "CALL",
      "contractName": null,
      "contractAddress": "0xd32fc62c33c7e359d1e41f87d7c0f24c9f365d5e",
      "function": "createParty(string)",
      "arguments": [
        "ETHGlobal SF"
      ],
      "transaction": {
        "from": "0x66664013474a29e9807d1736b1b1123f63345e22",
        "to": "0xd32fc62c33c7e359d1e41f87d7c0f24c9f365d5e",
        "gas": "0xe12e7",
        "value": "0x0",
        "input": "0x004094db0000000000000000000000000000000000000000000000000000000000000020000000000000000000000000000000000000000000000000000000000000000c455448476c6f62616c2053460000000000000000000000000000000000000000",
        "nonce": "0x16",
        "chainId": "0x13882"
      },
      "additionalContracts": [],
      "isFixedGasLimit": false
    }
  ],
  "receipts": [
    {
      "status": "0x1",
      "cumulativeGasUsed": "0xa3142",
      "logs": [
        {
          "address": "0x6e4ee2ac30f83aab40fd2e316842144ba82a150d",
          "topics": [
            "0x8be0079c531659141344cd1fd0a4f28419497f9722a3daafe3b4186f6b6457e0",
            "0x0000000000000000000000000000000000000000000000000000000000000000",
            "0x00000000000000000000000066664013474a29e9807d1736b1b1123f63345e22"
          ],
          "data": "0x",
          "blockHash": "0xb84b3dcfdcad958288a2ac14b422db45697ba4a616e30bbc174a3b257826a0f0",
          "blockNumber": "0xcc39b3",
          "transactionHash": "0xf9d30187ad37a1ecba09dcaa2dbfee07a6947cfb06155bde6a88956cdde9e6e0",
          "transactionIndex": "0x0",
          "logIndex": "0x0",
          "removed": false
        },
        {
          "address": "0x0000000000000000000000000000000000001010",
          "topics": [
            "0x4dfe1bbbcf077ddc3e01291eea2d5c70c2b422b415d95645b9adcfd678cb1d63",
            "0x0000000000000000000000000000000000000000000000000000000000001010",
            "0x00000000000000000000000066664013474a29e9807d1736b1b1123f63345e22",
            "0x00000000000000000000000002f615e95563ef16f10354dba9e584e58d2d4314"
          ],
          "data": "0x0000000000000000000000000000000000000000000000000054a285f4822f8c00000000000000000000000000000000000000000000000003fa93326526753f0000000000000000000000000000000000000000000000aaff5ff9972fd421ec00000000000000000000000000000000000000000000000003a5f0ac70a445b30000000000000000000000000000000000000000000000aaffb49c1d24565178",
          "blockHash": "0xb84b3dcfdcad958288a2ac14b422db45697ba4a616e30bbc174a3b257826a0f0",
          "blockNumber": "0xcc39b3",
          "transactionHash": "0xf9d30187ad37a1ecba09dcaa2dbfee07a6947cfb06155bde6a88956cdde9e6e0",
          "transactionIndex": "0x0",
          "logIndex": "0x1",
          "removed": false
        }
      ],
      "logsBloom": "0x00000000000000000000040000000000000000000000000800800008000000000000000000000000020000004000000000008000000000040000000000000000000000000200000000000000000000800001000000000000000100000000000000000000020000000000000000000800000000000000000080000000000000400000000000000000000000000000000000000000000000002000000000000000200000000000000000000000000000000000000000000000000000000000004000000000000000000081000000000000000000000000000000100000000020000000000000000000000000000000000000000000000000000000000000100000",
      "type": "0x2",
      "transactionHash": "0xf9d30187ad37a1ecba09dcaa2dbfee07a6947cfb06155bde6a88956cdde9e6e0",
      "transactionIndex": "0x0",
      "blockHash": "0xb84b3dcfdcad958288a2ac14b422db45697ba4a616e30bbc174a3b257826a0f0",
      "blockNumber": "0xcc39b3",
      "gasUsed": "0xa3142",
      "effectiveGasPrice": "0x84dc00415",
      "from": "0x66664013474a29e9807d1736b1b1123f63345e22",
      "to": "0xd32fc62c33c7e359d1e41f87d7c0f24c9f365d5e",
      "contractAddress": null
    }
  ],
  "libraries": [],
  "pending": [],
  "returns": {},
  "timestamp": 1729386985,
  "chain": 80002,
  "commit": "41db7fa"
}