{
  "transactions": [
    {
      "hash": "0x7aca1e008d9a1e16f34182dd87d3132ed1668d4facb4bb9f21515b3e0f852047",
      "transactionType": "CALL",
      "contractName": null,
      "contractAddress": "0x34163568688fad1086b730fca9e677ad4d585aa6",
      "function": "createParty(string)",
      "arguments": [
        "ETHGlobal SF"
      ],
      "transaction": {
        "from": "0x66664013474a29e9807d1736b1b1123f63345e22",
        "to": "0x34163568688fad1086b730fca9e677ad4d585aa6",
        "gas": "0x1d8b3b",
        "value": "0x0",
        "input": "0x004094db0000000000000000000000000000000000000000000000000000000000000020000000000000000000000000000000000000000000000000000000000000000c455448476c6f62616c2053460000000000000000000000000000000000000000",
        "nonce": "0x17",
        "chainId": "0x13882"
      },
      "additionalContracts": [],
      "isFixedGasLimit": false
    }
  ],
  "receipts": [
    {
      "status": "0x1",
      "cumulativeGasUsed": "0x165690",
      "logs": [
        {
          "address": "0x6d2063d32efacbb20b27cfe1f8683747201d3867",
          "topics": [
            "0x8be0079c531659141344cd1fd0a4f28419497f9722a3daafe3b4186f6b6457e0",
            "0x0000000000000000000000000000000000000000000000000000000000000000",
            "0x00000000000000000000000066664013474a29e9807d1736b1b1123f63345e22"
          ],
          "data": "0x",
          "blockHash": "0x57baa6b3c39259ab4a8c7e606256d68c2eb0cbf3350ce449f66d77d1362f4933",
          "blockNumber": "0xcc39e3",
          "transactionHash": "0x7aca1e008d9a1e16f34182dd87d3132ed1668d4facb4bb9f21515b3e0f852047",
          "transactionIndex": "0x2",
          "logIndex": "0x4",
          "removed": false
        },
        {
          "address": "0x2433e092a2d760bae6a1a2c735cbb6dec1c9fd62",
          "topics": [
            "0x8be0079c531659141344cd1fd0a4f28419497f9722a3daafe3b4186f6b6457e0",
            "0x0000000000000000000000000000000000000000000000000000000000000000",
            "0x0000000000000000000000006d2063d32efacbb20b27cfe1f8683747201d3867"
          ],
          "data": "0x",
          "blockHash": "0x57baa6b3c39259ab4a8c7e606256d68c2eb0cbf3350ce449f66d77d1362f4933",
          "blockNumber": "0xcc39e3",
          "transactionHash": "0x7aca1e008d9a1e16f34182dd87d3132ed1668d4facb4bb9f21515b3e0f852047",
          "transactionIndex": "0x2",
          "logIndex": "0x5",
          "removed": false
        },
        {
          "address": "0x0000000000000000000000000000000000001010",
          "topics": [
            "0x4dfe1bbbcf077ddc3e01291eea2d5c70c2b422b415d95645b9adcfd678cb1d63",
            "0x0000000000000000000000000000000000000000000000000000000000001010",
            "0x00000000000000000000000066664013474a29e9807d1736b1b1123f63345e22",
            "0x0000000000000000000000006ab3d36c46ecfb9b9c0bd51cb1c3da5a2c81cea6"
          ],
          "data": "0x00000000000000000000000000000000000000000000000000bd3b42a8d92f4000000000000000000000000000000000000000000000000003a5f0ac700b62d5000000000000000000000000000000000000000000000300483d06628155c60f00000000000000000000000000000000000000000000000002e8b569c732339500000000000000000000000000000000000000000000030048fa41a52a2ef54f",
          "blockHash": "0x57baa6b3c39259ab4a8c7e606256d68c2eb0cbf3350ce449f66d77d1362f4933",
          "blockNumber": "0xcc39e3",
          "transactionHash": "0x7aca1e008d9a1e16f34182dd87d3132ed1668d4facb4bb9f21515b3e0f852047",
          "transactionIndex": "0x2",
          "logIndex": "0x6",
          "removed": false
        }
      ],
      "logsBloom": "0x00000000080080000000000000000000000000000000000000800000000000000000000000000000000000000000000000008000000000040100000000000000000000080200000000000000000000800001000000000000000100000000000000000000020008000000000000000800000000000000000080000000000000400000000000000000000000000000000000000000200000000000000000000000200000200000000000000000000002000000000000000000000000000000004000000000000000000081000004000008000000010000000000100000000020000000000000000000000000000000000000000000000000000000200000100000",
      "type": "0x2",
      "transactionHash": "0x7aca1e008d9a1e16f34182dd87d3132ed1668d4facb4bb9f21515b3e0f852047",
      "transactionIndex": "0x2",
      "blockHash": "0x57baa6b3c39259ab4a8c7e606256d68c2eb0cbf3350ce449f66d77d1362f4933",
      "blockNumber": "0xcc39e3",
      "gasUsed": "0x143601",
      "effectiveGasPrice": "0x95ce1af4f",
      "from": "0x66664013474a29e9807d1736b1b1123f63345e22",
      "to": "0x34163568688fad1086b730fca9e677ad4d585aa6",
      "contractAddress": null
    }
  ],
  "libraries": [],
  "pending": [],
  "returns": {},
  "timestamp": 1729387088,
  "chain": 80002,
  "commit": "41db7fa"
}