{
  "transactions": [
    {
      "hash": "0xc7898a5b86e9dd10eef37e4035d8e97a8d429b196c909a4cba35f96f8c4fa02b",
      "transactionType": "CALL",
      "contractName": null,
      "contractAddress": "0xd32fc62c33c7e359d1e41f87d7c0f24c9f365d5e",
      "function": "createParty(string)",
      "arguments": [
        "ETHGlobal SF"
      ],
      "transaction": {
        "from": "0x66664013474a29e9807d1736b1b1123f63345e22",
        "to": "0xd32fc62c33c7e359d1e41f87d7c0f24c9f365d5e",
        "gas": "0xe6f29",
        "value": "0x0",
        "input": "0x004094db0000000000000000000000000000000000000000000000000000000000000020000000000000000000000000000000000000000000000000000000000000000c455448476c6f62616c2053460000000000000000000000000000000000000000",
        "nonce": "0x2",
        "chainId": "0x13882"
      },
      "additionalContracts": [],
      "isFixedGasLimit": false
    }
  ],
  "receipts": [
    {
      "status": "0x1",
      "cumulativeGasUsed": "0xa740e",
      "logs": [
        {
          "address": "0xba65a69d90e2f9337744dfa365ea3d7064444fe5",
          "topics": [
            "0x8be0079c531659141344cd1fd0a4f28419497f9722a3daafe3b4186f6b6457e0",
            "0x0000000000000000000000000000000000000000000000000000000000000000",
            "0x00000000000000000000000066664013474a29e9807d1736b1b1123f63345e22"
          ],
          "data": "0x",
          "blockHash": "0xe8793e914677ff7a977a445a4d09be490f9fd0eac2f49ea232548dec05173179",
          "blockNumber": "0xcbd793",
          "transactionHash": "0xc7898a5b86e9dd10eef37e4035d8e97a8d429b196c909a4cba35f96f8c4fa02b",
          "transactionIndex": "0x0",
          "logIndex": "0x0",
          "removed": false
        },
        {
          "address": "0x0000000000000000000000000000000000001010",
          "topics": [
            "0x4dfe1bbbcf077ddc3e01291eea2d5c70c2b422b415d95645b9adcfd678cb1d63",
            "0x0000000000000000000000000000000000000000000000000000000000001010",
            "0x00000000000000000000000066664013474a29e9807d1736b1b1123f63345e22",
            "0x000000000000000000000000973e732e5306086fa8963677ec49010ee2f3d35a"
          ],
          "data": "0x00000000000000000000000000000000000000000000000000eeda79c477e072000000000000000000000000000000000000000000000000033609db0df9beb600000000000000000000000000000000000000000000002c7a81d165476657a800000000000000000000000000000000000000000000000002472f614981de4400000000000000000000000000000000000000000000002c7b70abdf0bde381a",
          "blockHash": "0xe8793e914677ff7a977a445a4d09be490f9fd0eac2f49ea232548dec05173179",
          "blockNumber": "0xcbd793",
          "transactionHash": "0xc7898a5b86e9dd10eef37e4035d8e97a8d429b196c909a4cba35f96f8c4fa02b",
          "transactionIndex": "0x0",
          "logIndex": "0x1",
          "removed": false
        }
      ],
      "logsBloom": "0x00000000000000000000000000000000000000000000000000800000000000000000000000000000000040000000000000008000000000040000000000000000000000000200000000000000000000800001000000000000000100000000000000000000020000000000000000000800000000000000000080000000000000400000000000000000000000000000000000000200000000040000000000000000201000000000000000000000000000000000000000000000000000000000004000000000002000000081000000000000000000000000000000100000000020000000000000000000000000000000000000000000000000000000000020100000",
      "type": "0x2",
      "transactionHash": "0xc7898a5b86e9dd10eef37e4035d8e97a8d429b196c909a4cba35f96f8c4fa02b",
      "transactionIndex": "0x0",
      "blockHash": "0xe8793e914677ff7a977a445a4d09be490f9fd0eac2f49ea232548dec05173179",
      "blockNumber": "0xcbd793",
      "gasUsed": "0xa740e",
      "effectiveGasPrice": "0x16d977f3ce",
      "from": "0x66664013474a29e9807d1736b1b1123f63345e22",
      "to": "0xd32fc62c33c7e359d1e41f87d7c0f24c9f365d5e",
      "contractAddress": null
    }
  ],
  "libraries": [],
  "pending": [],
  "returns": {},
  "timestamp": 1729333603,
  "chain": 80002,
  "commit": "1e7d3ea"
}