{
  "transactions": [
    {
      "hash": "0x60d1acb1a98bd4dc490b2c8a6322d96b35fee147dcadde6a9799fc181fbe56f2",
      "transactionType": "CALL",
      "contractName": null,
      "contractAddress": "0x029b1c31f27a5ae6066ca42ed46f18566f0c8502",
      "function": "mint(address,uint256)",
      "arguments": [
        "0x66664013474a29e9807D1736B1B1123F63345e22",
        "10000000000"
      ],
      "transaction": {
        "from": "0x66664013474a29e9807d1736b1b1123f63345e22",
        "to": "0x029b1c31f27a5ae6066ca42ed46f18566f0c8502",
        "gas": "0x17d12",
        "value": "0x0",
        "input": "0x40c10f1900000000000000000000000066664013474a29e9807d1736b1b1123f63345e2200000000000000000000000000000000000000000000000000000002540be400",
        "nonce": "0x3",
        "chainId": "0xafa"
      },
      "additionalContracts": [],
      "isFixedGasLimit": false
    },
    {
      "hash": "0x8545567c7a16f00f5e5d95ed942ca040cff9db8196cacd4f46e03cf8b8a10a8e",
      "transactionType": "CALL",
      "contractName": null,
      "contractAddress": "0x029b1c31f27a5ae6066ca42ed46f18566f0c8502",
      "function": "approve(address,uint256)",
      "arguments": [
        "0xbA65a69d90E2f9337744dfa365EA3D7064444Fe5",
        "1000000000"
      ],
      "transaction": {
        "from": "0x66664013474a29e9807d1736b1b1123f63345e22",
        "to": "0x029b1c31f27a5ae6066ca42ed46f18566f0c8502",
        "gas": "0xfa1f",
        "value": "0x0",
        "input": "0x095ea7b3000000000000000000000000ba65a69d90e2f9337744dfa365ea3d7064444fe5000000000000000000000000000000000000000000000000000000003b9aca00",
        "nonce": "0x4",
        "chainId": "0xafa"
      },
      "additionalContracts": [],
      "isFixedGasLimit": false
    },
    {
      "hash": "0x6edfa788e35d2a9cf662641a788edd78010efc2e5c503b1606e024100a656983",
      "transactionType": "CALL",
      "contractName": null,
      "contractAddress": "0xba65a69d90e2f9337744dfa365ea3d7064444fe5",
      "function": "buy()",
      "arguments": [],
      "transaction": {
        "from": "0x66664013474a29e9807d1736b1b1123f63345e22",
        "to": "0xba65a69d90e2f9337744dfa365ea3d7064444fe5",
        "gas": "0x3c491",
        "value": "0x0",
        "input": "0xa6f2ae3a",
        "nonce": "0x5",
        "chainId": "0xafa"
      },
      "additionalContracts": [],
      "isFixedGasLimit": false
    },
    {
      "hash": "0xf5cc684c7fa4c8e279e0ec1f364bd01b3c7478c01c50b0405ed975cf09f439df",
      "transactionType": "CALL",
      "contractName": null,
      "contractAddress": "0xba65a69d90e2f9337744dfa365ea3d7064444fe5",
      "function": "buy()",
      "arguments": [],
      "transaction": {
        "from": "0x66664013474a29e9807d1736b1b1123f63345e22",
        "to": "0xba65a69d90e2f9337744dfa365ea3d7064444fe5",
        "gas": "0x1b3f1",
        "value": "0x0",
        "input": "0xa6f2ae3a",
        "nonce": "0x6",
        "chainId": "0xafa"
      },
      "additionalContracts": [],
      "isFixedGasLimit": false
    },
    {
      "hash": "0x71148f81a93f85be879e879a64839fd8ee6ef9dcabeb1ce311f94cf45caf102d",
      "transactionType": "CALL",
      "contractName": null,
      "contractAddress": "0xba65a69d90e2f9337744dfa365ea3d7064444fe5",
      "function": "buy()",
      "arguments": [],
      "transaction": {
        "from": "0x66664013474a29e9807d1736b1b1123f63345e22",
        "to": "0xba65a69d90e2f9337744dfa365ea3d7064444fe5",
        "gas": "0x1b3f1",
        "value": "0x0",
        "input": "0xa6f2ae3a",
        "nonce": "0x7",
        "chainId": "0xafa"
      },
      "additionalContracts": [],
      "isFixedGasLimit": false
    },
    {
      "hash": "0x0aa7a5195d8bb0631db33bf2bbc1078553f7479d58dce3962c351eb1e02d5966",
      "transactionType": "CALL",
      "contractName": null,
      "contractAddress": "0xba65a69d90e2f9337744dfa365ea3d7064444fe5",
      "function": "buy()",
      "arguments": [],
      "transaction": {
        "from": "0x66664013474a29e9807d1736b1b1123f63345e22",
        "to": "0xba65a69d90e2f9337744dfa365ea3d7064444fe5",
        "gas": "0x1b3f1",
        "value": "0x0",
        "input": "0xa6f2ae3a",
        "nonce": "0x8",
        "chainId": "0xafa"
      },
      "additionalContracts": [],
      "isFixedGasLimit": false
    },
    {
      "hash": "0x9c1c1fd9bf3d388051156a0b9e2b5a8177f45439108bea0913470f84f334509e",
      "transactionType": "CALL",
      "contractName": null,
      "contractAddress": "0xba65a69d90e2f9337744dfa365ea3d7064444fe5",
      "function": "buy()",
      "arguments": [],
      "transaction": {
        "from": "0x66664013474a29e9807d1736b1b1123f63345e22",
        "to": "0xba65a69d90e2f9337744dfa365ea3d7064444fe5",
        "gas": "0x1b3f1",
        "value": "0x0",
        "input": "0xa6f2ae3a",
        "nonce": "0x9",
        "chainId": "0xafa"
      },
      "additionalContracts": [],
      "isFixedGasLimit": false
    }
  ],
  "receipts": [
    {
      "status": "0x1",
      "cumulativeGasUsed": "0x6f747",
      "logs": [
        {
          "address": "0x029b1c31f27a5ae6066ca42ed46f18566f0c8502",
          "topics": [
            "0xddf252ad1be2c89b69c2b068fc378daa952ba7f163c4a11628f55a4df523b3ef",
            "0x0000000000000000000000000000000000000000000000000000000000000000",
            "0x00000000000000000000000066664013474a29e9807d1736b1b1123f63345e22"
          ],
          "data": "0x00000000000000000000000000000000000000000000000000000002540be400",
          "blockHash": "0xb957b67f7bb05e9b614116b5f32ac081f3aff72283b625395d1e2e08746c3530",
          "blockNumber": "0xae37d1",
          "transactionHash": "0x60d1acb1a98bd4dc490b2c8a6322d96b35fee147dcadde6a9799fc181fbe56f2",
          "transactionIndex": "0x2",
          "logIndex": "0x3",
          "removed": false
        }
      ],
      "logsBloom": "0x00000000000000000000000000000000000000000000000000000000000000000000000000000000080000000000000000000000000000040000000000000000000000000200000000000008000000000000000000000000000000000000000000000000020000000000000000000800000000000000000000000010000000000000000000000000000000000000000000000000000000000000000000000000000000000000000000000000000000000000000000000000000000000000000000000002200000000080000000000000000000000000000000000000000020000000000000000000000000000000000000000000020000000000000000000000",
      "type": "0x2",
      "transactionHash": "0x60d1acb1a98bd4dc490b2c8a6322d96b35fee147dcadde6a9799fc181fbe56f2",
      "transactionIndex": "0x2",
      "blockHash": "0xb957b67f7bb05e9b614116b5f32ac081f3aff72283b625395d1e2e08746c3530",
      "blockNumber": "0xae37d1",
      "gasUsed": "0x113e4",
      "effectiveGasPrice": "0x1e8480",
      "from": "0x66664013474a29e9807d1736b1b1123f63345e22",
      "to": "0x029b1c31f27a5ae6066ca42ed46f18566f0c8502",
      "contractAddress": null,
      "l1Fee": "0x1a679ed717"
    },
    {
      "status": "0x1",
      "cumulativeGasUsed": "0x4fa01",
      "logs": [
        {
          "address": "0x029b1c31f27a5ae6066ca42ed46f18566f0c8502",
          "topics": [
            "0x8c5be1e5ebec7d5bd14f71427d1e84f3dd0314c0f7b2291e5b200ac8c7c3b925",
            "0x00000000000000000000000066664013474a29e9807d1736b1b1123f63345e22",
            "0x000000000000000000000000ba65a69d90e2f9337744dfa365ea3d7064444fe5"
          ],
          "data": "0x000000000000000000000000000000000000000000000000000000003b9aca00",
          "blockHash": "0xc157063494499487ef0b54685a23948858e6827b5f7567e82b261848be73f1e3",
          "blockNumber": "0xae37d2",
          "transactionHash": "0x8545567c7a16f00f5e5d95ed942ca040cff9db8196cacd4f46e03cf8b8a10a8e",
          "transactionIndex": "0x3",
          "logIndex": "0x8",
          "removed": false
        }
      ],
      "logsBloom": "0x00000000000000000000000000000000000000000000000000000000000000000000000000000000080000000000000000000000000000040000000000200000000000000200000000000000000000000000000000000000000000000000000000000000000000000000000000000000000000000001000000000000000000000000000000000000000000000000000000000000000000000000000000000000020000000000000000000000000000000000000000000000000000020000000000000000200000000080000000000000000000000000000000080000000000000010000000000000000000000000000000000000020000000000000000000000",
      "type": "0x2",
      "transactionHash": "0x8545567c7a16f00f5e5d95ed942ca040cff9db8196cacd4f46e03cf8b8a10a8e",
      "transactionIndex": "0x3",
      "blockHash": "0xc157063494499487ef0b54685a23948858e6827b5f7567e82b261848be73f1e3",
      "blockNumber": "0xae37d2",
      "gasUsed": "0xb516",
      "effectiveGasPrice": "0x1e8480",
      "from": "0x66664013474a29e9807d1736b1b1123f63345e22",
      "to": "0x029b1c31f27a5ae6066ca42ed46f18566f0c8502",
      "contractAddress": null,
      "l1Fee": "0x1a679ed717"
    },
    {
      "status": "0x1",
      "cumulativeGasUsed": "0x78d8a",
      "logs": [
        {
          "address": "0x029b1c31f27a5ae6066ca42ed46f18566f0c8502",
          "topics": [
            "0xddf252ad1be2c89b69c2b068fc378daa952ba7f163c4a11628f55a4df523b3ef",
            "0x00000000000000000000000066664013474a29e9807d1736b1b1123f63345e22",
            "0x000000000000000000000000ba65a69d90e2f9337744dfa365ea3d7064444fe5"
          ],
          "data": "0x00000000000000000000000000000000000000000000000000000000002dc6c0",
          "blockHash": "0xc157063494499487ef0b54685a23948858e6827b5f7567e82b261848be73f1e3",
          "blockNumber": "0xae37d2",
          "transactionHash": "0x6edfa788e35d2a9cf662641a788edd78010efc2e5c503b1606e024100a656983",
          "transactionIndex": "0x4",
          "logIndex": "0x9",
          "removed": false
        },
        {
          "address": "0x56b894f80ae20aeeb76a044591b635974b4a4bca",
          "topics": [
            "0xddf252ad1be2c89b69c2b068fc378daa952ba7f163c4a11628f55a4df523b3ef",
            "0x0000000000000000000000000000000000000000000000000000000000000000",
            "0x00000000000000000000000066664013474a29e9807d1736b1b1123f63345e22"
          ],
          "data": "0x0000000000000000000000000000000000000000000000000000000000000001",
          "blockHash": "0xc157063494499487ef0b54685a23948858e6827b5f7567e82b261848be73f1e3",
          "blockNumber": "0xae37d2",
          "transactionHash": "0x6edfa788e35d2a9cf662641a788edd78010efc2e5c503b1606e024100a656983",
          "transactionIndex": "0x4",
          "logIndex": "0xa",
          "removed": false
        },
        {
          "address": "0xba65a69d90e2f9337744dfa365ea3d7064444fe5",
          "topics": [
            "0x12cb4648cf3058b17ceeb33e579f8b0bc269fe0843f3900b8e24b6c54871703c"
          ],
          "data": "0x00000000000000000000000066664013474a29e9807d1736b1b1123f63345e220000000000000000000000000000000000000000000000000000000000ae37d200000000000000000000000000000000000000000000000000000000002dc6c0",
          "blockHash": "0xc157063494499487ef0b54685a23948858e6827b5f7567e82b261848be73f1e3",
          "blockNumber": "0xae37d2",
          "transactionHash": "0x6edfa788e35d2a9cf662641a788edd78010efc2e5c503b1606e024100a656983",
          "transactionIndex": "0x4",
          "logIndex": "0xb",
          "removed": false
        }
      ],
      "logsBloom": "0x00000000000000000000000000000000000000000000000000000000000000000000000000000000084000000000000000000000000000040000000000000000000000000200000000000008000000000000000000000000002000000000000000000000020000000000000000000800000000000001000000000010000000000000000005000000000000000000000000000200000000040000000000000000000000000000000000000000000000000000200000000000000000020000000000000002202000000080000004000000000000000000000000080000000020000000000000000000000000000000000000000000020000000000000000000000",
      "type": "0x2",
      "transactionHash": "0x6edfa788e35d2a9cf662641a788edd78010efc2e5c503b1606e024100a656983",
      "transactionIndex": "0x4",
      "blockHash": "0xc157063494499487ef0b54685a23948858e6827b5f7567e82b261848be73f1e3",
      "blockNumber": "0xae37d2",
      "gasUsed": "0x29389",
      "effectiveGasPrice": "0x1e8480",
      "from": "0x66664013474a29e9807d1736b1b1123f63345e22",
      "to": "0xba65a69d90e2f9337744dfa365ea3d7064444fe5",
      "contractAddress": null,
      "l1Fee": "0x1a679ed6fd"
    },
    {
      "status": "0x1",
      "cumulativeGasUsed": "0x8c928",
      "logs": [
        {
          "address": "0x029b1c31f27a5ae6066ca42ed46f18566f0c8502",
          "topics": [
            "0xddf252ad1be2c89b69c2b068fc378daa952ba7f163c4a11628f55a4df523b3ef",
            "0x00000000000000000000000066664013474a29e9807d1736b1b1123f63345e22",
            "0x000000000000000000000000ba65a69d90e2f9337744dfa365ea3d7064444fe5"
          ],
          "data": "0x00000000000000000000000000000000000000000000000000000000003567e0",
          "blockHash": "0xc157063494499487ef0b54685a23948858e6827b5f7567e82b261848be73f1e3",
          "blockNumber": "0xae37d2",
          "transactionHash": "0xf5cc684c7fa4c8e279e0ec1f364bd01b3c7478c01c50b0405ed975cf09f439df",
          "transactionIndex": "0x5",
          "logIndex": "0xc",
          "removed": false
        },
        {
          "address": "0x56b894f80ae20aeeb76a044591b635974b4a4bca",
          "topics": [
            "0xddf252ad1be2c89b69c2b068fc378daa952ba7f163c4a11628f55a4df523b3ef",
            "0x0000000000000000000000000000000000000000000000000000000000000000",
            "0x00000000000000000000000066664013474a29e9807d1736b1b1123f63345e22"
          ],
          "data": "0x0000000000000000000000000000000000000000000000000000000000000001",
          "blockHash": "0xc157063494499487ef0b54685a23948858e6827b5f7567e82b261848be73f1e3",
          "blockNumber": "0xae37d2",
          "transactionHash": "0xf5cc684c7fa4c8e279e0ec1f364bd01b3c7478c01c50b0405ed975cf09f439df",
          "transactionIndex": "0x5",
          "logIndex": "0xd",
          "removed": false
        },
        {
          "address": "0xba65a69d90e2f9337744dfa365ea3d7064444fe5",
          "topics": [
            "0x12cb4648cf3058b17ceeb33e579f8b0bc269fe0843f3900b8e24b6c54871703c"
          ],
          "data": "0x00000000000000000000000066664013474a29e9807d1736b1b1123f63345e220000000000000000000000000000000000000000000000000000000000ae37d200000000000000000000000000000000000000000000000000000000003567e0",
          "blockHash": "0xc157063494499487ef0b54685a23948858e6827b5f7567e82b261848be73f1e3",
          "blockNumber": "0xae37d2",
          "transactionHash": "0xf5cc684c7fa4c8e279e0ec1f364bd01b3c7478c01c50b0405ed975cf09f439df",
          "transactionIndex": "0x5",
          "logIndex": "0xe",
          "removed": false
        }
      ],
      "logsBloom": "0x00000000000000000000000000000000000000000000000000000000000000000000000000000000084000000000000000000000000000040000000000000000000000000200000000000008000000000000000000000000002000000000000000000000020000000000000000000800000000000001000000000010000000000000000005000000000000000000000000000200000000040000000000000000000000000000000000000000000000000000200000000000000000020000000000000002202000000080000004000000000000000000000000080000000020000000000000000000000000000000000000000000020000000000000000000000",
      "type": "0x2",
      "transactionHash": "0xf5cc684c7fa4c8e279e0ec1f364bd01b3c7478c01c50b0405ed975cf09f439df",
      "transactionIndex": "0x5",
      "blockHash": "0xc157063494499487ef0b54685a23948858e6827b5f7567e82b261848be73f1e3",
      "blockNumber": "0xae37d2",
      "gasUsed": "0x13b9e",
      "effectiveGasPrice": "0x1e8480",
      "from": "0x66664013474a29e9807d1736b1b1123f63345e22",
      "to": "0xba65a69d90e2f9337744dfa365ea3d7064444fe5",
      "contractAddress": null,
      "l1Fee": "0x1a679ed6fd"
    },
    {
      "status": "0x1",
      "cumulativeGasUsed": "0xa04c6",
      "logs": [
        {
          "address": "0x029b1c31f27a5ae6066ca42ed46f18566f0c8502",
          "topics": [
            "0xddf252ad1be2c89b69c2b068fc378daa952ba7f163c4a11628f55a4df523b3ef",
            "0x00000000000000000000000066664013474a29e9807d1736b1b1123f63345e22",
            "0x000000000000000000000000ba65a69d90e2f9337744dfa365ea3d7064444fe5"
          ],
          "data": "0x00000000000000000000000000000000000000000000000000000000003d0900",
          "blockHash": "0xc157063494499487ef0b54685a23948858e6827b5f7567e82b261848be73f1e3",
          "blockNumber": "0xae37d2",
          "transactionHash": "0x71148f81a93f85be879e879a64839fd8ee6ef9dcabeb1ce311f94cf45caf102d",
          "transactionIndex": "0x6",
          "logIndex": "0xf",
          "removed": false
        },
        {
          "address": "0x56b894f80ae20aeeb76a044591b635974b4a4bca",
          "topics": [
            "0xddf252ad1be2c89b69c2b068fc378daa952ba7f163c4a11628f55a4df523b3ef",
            "0x0000000000000000000000000000000000000000000000000000000000000000",
            "0x00000000000000000000000066664013474a29e9807d1736b1b1123f63345e22"
          ],
          "data": "0x0000000000000000000000000000000000000000000000000000000000000001",
          "blockHash": "0xc157063494499487ef0b54685a23948858e6827b5f7567e82b261848be73f1e3",
          "blockNumber": "0xae37d2",
          "transactionHash": "0x71148f81a93f85be879e879a64839fd8ee6ef9dcabeb1ce311f94cf45caf102d",
          "transactionIndex": "0x6",
          "logIndex": "0x10",
          "removed": false
        },
        {
          "address": "0xba65a69d90e2f9337744dfa365ea3d7064444fe5",
          "topics": [
            "0x12cb4648cf3058b17ceeb33e579f8b0bc269fe0843f3900b8e24b6c54871703c"
          ],
          "data": "0x00000000000000000000000066664013474a29e9807d1736b1b1123f63345e220000000000000000000000000000000000000000000000000000000000ae37d200000000000000000000000000000000000000000000000000000000003d0900",
          "blockHash": "0xc157063494499487ef0b54685a23948858e6827b5f7567e82b261848be73f1e3",
          "blockNumber": "0xae37d2",
          "transactionHash": "0x71148f81a93f85be879e879a64839fd8ee6ef9dcabeb1ce311f94cf45caf102d",
          "transactionIndex": "0x6",
          "logIndex": "0x11",
          "removed": false
        }
      ],
      "logsBloom": "0x00000000000000000000000000000000000000000000000000000000000000000000000000000000084000000000000000000000000000040000000000000000000000000200000000000008000000000000000000000000002000000000000000000000020000000000000000000800000000000001000000000010000000000000000005000000000000000000000000000200000000040000000000000000000000000000000000000000000000000000200000000000000000020000000000000002202000000080000004000000000000000000000000080000000020000000000000000000000000000000000000000000020000000000000000000000",
      "type": "0x2",
      "transactionHash": "0x71148f81a93f85be879e879a64839fd8ee6ef9dcabeb1ce311f94cf45caf102d",
      "transactionIndex": "0x6",
      "blockHash": "0xc157063494499487ef0b54685a23948858e6827b5f7567e82b261848be73f1e3",
      "blockNumber": "0xae37d2",
      "gasUsed": "0x13b9e",
      "effectiveGasPrice": "0x1e8480",
      "from": "0x66664013474a29e9807d1736b1b1123f63345e22",
      "to": "0xba65a69d90e2f9337744dfa365ea3d7064444fe5",
      "contractAddress": null,
      "l1Fee": "0x1a679ed6fd"
    },
    {
      "status": "0x1",
      "cumulativeGasUsed": "0xb4064",
      "logs": [
        {
          "address": "0x029b1c31f27a5ae6066ca42ed46f18566f0c8502",
          "topics": [
            "0xddf252ad1be2c89b69c2b068fc378daa952ba7f163c4a11628f55a4df523b3ef",
            "0x00000000000000000000000066664013474a29e9807d1736b1b1123f63345e22",
            "0x000000000000000000000000ba65a69d90e2f9337744dfa365ea3d7064444fe5"
          ],
          "data": "0x000000000000000000000000000000000000000000000000000000000044aa20",
          "blockHash": "0xc157063494499487ef0b54685a23948858e6827b5f7567e82b261848be73f1e3",
          "blockNumber": "0xae37d2",
          "transactionHash": "0x0aa7a5195d8bb0631db33bf2bbc1078553f7479d58dce3962c351eb1e02d5966",
          "transactionIndex": "0x7",
          "logIndex": "0x12",
          "removed": false
        },
        {
          "address": "0x56b894f80ae20aeeb76a044591b635974b4a4bca",
          "topics": [
            "0xddf252ad1be2c89b69c2b068fc378daa952ba7f163c4a11628f55a4df523b3ef",
            "0x0000000000000000000000000000000000000000000000000000000000000000",
            "0x00000000000000000000000066664013474a29e9807d1736b1b1123f63345e22"
          ],
          "data": "0x0000000000000000000000000000000000000000000000000000000000000001",
          "blockHash": "0xc157063494499487ef0b54685a23948858e6827b5f7567e82b261848be73f1e3",
          "blockNumber": "0xae37d2",
          "transactionHash": "0x0aa7a5195d8bb0631db33bf2bbc1078553f7479d58dce3962c351eb1e02d5966",
          "transactionIndex": "0x7",
          "logIndex": "0x13",
          "removed": false
        },
        {
          "address": "0xba65a69d90e2f9337744dfa365ea3d7064444fe5",
          "topics": [
            "0x12cb4648cf3058b17ceeb33e579f8b0bc269fe0843f3900b8e24b6c54871703c"
          ],
          "data": "0x00000000000000000000000066664013474a29e9807d1736b1b1123f63345e220000000000000000000000000000000000000000000000000000000000ae37d2000000000000000000000000000000000000000000000000000000000044aa20",
          "blockHash": "0xc157063494499487ef0b54685a23948858e6827b5f7567e82b261848be73f1e3",
          "blockNumber": "0xae37d2",
          "transactionHash": "0x0aa7a5195d8bb0631db33bf2bbc1078553f7479d58dce3962c351eb1e02d5966",
          "transactionIndex": "0x7",
          "logIndex": "0x14",
          "removed": false
        }
      ],
      "logsBloom": "0x00000000000000000000000000000000000000000000000000000000000000000000000000000000084000000000000000000000000000040000000000000000000000000200000000000008000000000000000000000000002000000000000000000000020000000000000000000800000000000001000000000010000000000000000005000000000000000000000000000200000000040000000000000000000000000000000000000000000000000000200000000000000000020000000000000002202000000080000004000000000000000000000000080000000020000000000000000000000000000000000000000000020000000000000000000000",
      "type": "0x2",
      "transactionHash": "0x0aa7a5195d8bb0631db33bf2bbc1078553f7479d58dce3962c351eb1e02d5966",
      "transactionIndex": "0x7",
      "blockHash": "0xc157063494499487ef0b54685a23948858e6827b5f7567e82b261848be73f1e3",
      "blockNumber": "0xae37d2",
      "gasUsed": "0x13b9e",
      "effectiveGasPrice": "0x1e8480",
      "from": "0x66664013474a29e9807d1736b1b1123f63345e22",
      "to": "0xba65a69d90e2f9337744dfa365ea3d7064444fe5",
      "contractAddress": null,
      "l1Fee": "0x1a679ed6fd"
    },
    {
      "status": "0x1",
      "cumulativeGasUsed": "0xc7c02",
      "logs": [
        {
          "address": "0x029b1c31f27a5ae6066ca42ed46f18566f0c8502",
          "topics": [
            "0xddf252ad1be2c89b69c2b068fc378daa952ba7f163c4a11628f55a4df523b3ef",
            "0x00000000000000000000000066664013474a29e9807d1736b1b1123f63345e22",
            "0x000000000000000000000000ba65a69d90e2f9337744dfa365ea3d7064444fe5"
          ],
          "data": "0x00000000000000000000000000000000000000000000000000000000004c4b40",
          "blockHash": "0xc157063494499487ef0b54685a23948858e6827b5f7567e82b261848be73f1e3",
          "blockNumber": "0xae37d2",
          "transactionHash": "0x9c1c1fd9bf3d388051156a0b9e2b5a8177f45439108bea0913470f84f334509e",
          "transactionIndex": "0x8",
          "logIndex": "0x15",
          "removed": false
        },
        {
          "address": "0x56b894f80ae20aeeb76a044591b635974b4a4bca",
          "topics": [
            "0xddf252ad1be2c89b69c2b068fc378daa952ba7f163c4a11628f55a4df523b3ef",
            "0x0000000000000000000000000000000000000000000000000000000000000000",
            "0x00000000000000000000000066664013474a29e9807d1736b1b1123f63345e22"
          ],
          "data": "0x0000000000000000000000000000000000000000000000000000000000000001",
          "blockHash": "0xc157063494499487ef0b54685a23948858e6827b5f7567e82b261848be73f1e3",
          "blockNumber": "0xae37d2",
          "transactionHash": "0x9c1c1fd9bf3d388051156a0b9e2b5a8177f45439108bea0913470f84f334509e",
          "transactionIndex": "0x8",
          "logIndex": "0x16",
          "removed": false
        },
        {
          "address": "0xba65a69d90e2f9337744dfa365ea3d7064444fe5",
          "topics": [
            "0x12cb4648cf3058b17ceeb33e579f8b0bc269fe0843f3900b8e24b6c54871703c"
          ],
          "data": "0x00000000000000000000000066664013474a29e9807d1736b1b1123f63345e220000000000000000000000000000000000000000000000000000000000ae37d200000000000000000000000000000000000000000000000000000000004c4b40",
          "blockHash": "0xc157063494499487ef0b54685a23948858e6827b5f7567e82b261848be73f1e3",
          "blockNumber": "0xae37d2",
          "transactionHash": "0x9c1c1fd9bf3d388051156a0b9e2b5a8177f45439108bea0913470f84f334509e",
          "transactionIndex": "0x8",
          "logIndex": "0x17",
          "removed": false
        }
      ],
      "logsBloom": "0x00000000000000000000000000000000000000000000000000000000000000000000000000000000084000000000000000000000000000040000000000000000000000000200000000000008000000000000000000000000002000000000000000000000020000000000000000000800000000000001000000000010000000000000000005000000000000000000000000000200000000040000000000000000000000000000000000000000000000000000200000000000000000020000000000000002202000000080000004000000000000000000000000080000000020000000000000000000000000000000000000000000020000000000000000000000",
      "type": "0x2",
      "transactionHash": "0x9c1c1fd9bf3d388051156a0b9e2b5a8177f45439108bea0913470f84f334509e",
      "transactionIndex": "0x8",
      "blockHash": "0xc157063494499487ef0b54685a23948858e6827b5f7567e82b261848be73f1e3",
      "blockNumber": "0xae37d2",
      "gasUsed": "0x13b9e",
      "effectiveGasPrice": "0x1e8480",
      "from": "0x66664013474a29e9807d1736b1b1123f63345e22",
      "to": "0xba65a69d90e2f9337744dfa365ea3d7064444fe5",
      "contractAddress": null,
      "l1Fee": "0x1a679ed6fd"
    }
  ],
  "libraries": [],
  "pending": [],
  "returns": {},
  "timestamp": 1729399179,
  "chain": 2810,
  "commit": "e377491"
}