{
  "transactions": [
    {
      "hash": "0x0d84028f120b634fedfbec32bed219cac809a8e142ad1dbc3a833c8237d73587",
      "transactionType": "CALL",
      "contractName": null,
      "contractAddress": "0x029b1c31f27a5ae6066ca42ed46f18566f0c8502",
      "function": "mint(address,uint256)",
      "arguments": [
        "0x66664013474a29e9807D1736B1B1123F63345e22",
        "100000000"
      ],
      "transaction": {
        "from": "0x66664013474a29e9807d1736b1b1123f63345e22",
        "to": "0x029b1c31f27a5ae6066ca42ed46f18566f0c8502",
        "gas": "0xc47b",
        "value": "0x0",
        "input": "0x40c10f1900000000000000000000000066664013474a29e9807d1736b1b1123f63345e220000000000000000000000000000000000000000000000000000000005f5e100",
        "nonce": "0x7",
        "chainId": "0x13882"
      },
      "additionalContracts": [],
      "isFixedGasLimit": false
    },
    {
      "hash": "0x3c5560cc8255a55f4f20801e408e000e676955b9393e23ea93f44374b2d9641f",
      "transactionType": "CALL",
      "contractName": null,
      "contractAddress": "0x029b1c31f27a5ae6066ca42ed46f18566f0c8502",
      "function": "approve(address,uint256)",
      "arguments": [
        "0xbA65a69d90E2f9337744dfa365EA3D7064444Fe5",
        "100000000"
      ],
      "transaction": {
        "from": "0x66664013474a29e9807d1736b1b1123f63345e22",
        "to": "0x029b1c31f27a5ae6066ca42ed46f18566f0c8502",
        "gas": "0xa725",
        "value": "0x0",
        "input": "0x095ea7b3000000000000000000000000ba65a69d90e2f9337744dfa365ea3d7064444fe50000000000000000000000000000000000000000000000000000000005f5e100",
        "nonce": "0x8",
        "chainId": "0x13882"
      },
      "additionalContracts": [],
      "isFixedGasLimit": false
    },
    {
      "hash": "0x865dcc4ae278d2d3b349ff7f95b9e3861bcbbd55b841f3981c467b83acb6b122",
      "transactionType": "CALL",
      "contractName": null,
      "contractAddress": "0xba65a69d90e2f9337744dfa365ea3d7064444fe5",
      "function": "buy()",
      "arguments": [],
      "transaction": {
        "from": "0x66664013474a29e9807d1736b1b1123f63345e22",
        "to": "0xba65a69d90e2f9337744dfa365ea3d7064444fe5",
        "gas": "0x16afc",
        "value": "0x0",
        "input": "0xa6f2ae3a",
        "nonce": "0x9",
        "chainId": "0x13882"
      },
      "additionalContracts": [],
      "isFixedGasLimit": false
    },
    {
      "hash": "0xc3ea7ba7ee71990633904c13483e63d4a3e3930cb40278a81db99edbd653c6c4",
      "transactionType": "CALL",
      "contractName": null,
      "contractAddress": "0xba65a69d90e2f9337744dfa365ea3d7064444fe5",
      "function": "buy()",
      "arguments": [],
      "transaction": {
        "from": "0x66664013474a29e9807d1736b1b1123f63345e22",
        "to": "0xba65a69d90e2f9337744dfa365ea3d7064444fe5",
        "gas": "0x15c74",
        "value": "0x0",
        "input": "0xa6f2ae3a",
        "nonce": "0xa",
        "chainId": "0x13882"
      },
      "additionalContracts": [],
      "isFixedGasLimit": false
    }
  ],
  "receipts": [
    {
      "status": "0x1",
      "cumulativeGasUsed": "0x8e40",
      "logs": [
        {
          "address": "0x029b1c31f27a5ae6066ca42ed46f18566f0c8502",
          "topics": [
            "0xddf252ad1be2c89b69c2b068fc378daa952ba7f163c4a11628f55a4df523b3ef",
            "0x0000000000000000000000000000000000000000000000000000000000000000",
            "0x00000000000000000000000066664013474a29e9807d1736b1b1123f63345e22"
          ],
          "data": "0x0000000000000000000000000000000000000000000000000000000005f5e100",
          "blockHash": "0xe79e2f1a6573ecd99f50b44f5d34ec08e9bde3d094dac11e39ed08e9d839b347",
          "blockNumber": "0xcc27d9",
          "transactionHash": "0x0d84028f120b634fedfbec32bed219cac809a8e142ad1dbc3a833c8237d73587",
          "transactionIndex": "0x0",
          "logIndex": "0x0",
          "removed": false
        },
        {
          "address": "0x0000000000000000000000000000000000001010",
          "topics": [
            "0x4dfe1bbbcf077ddc3e01291eea2d5c70c2b422b415d95645b9adcfd678cb1d63",
            "0x0000000000000000000000000000000000000000000000000000000000001010",
            "0x00000000000000000000000066664013474a29e9807d1736b1b1123f63345e22",
            "0x00000000000000000000000009207a6efee346cb3e4a54ac18523e3715d38b3f"
          ],
          "data": "0x00000000000000000000000000000000000000000000000000050e4fd83074c000000000000000000000000000000000000000000000000001e118a7ab19ca500000000000000000000000000000000000000000000003299e1dbd519b5a907700000000000000000000000000000000000000000000000001dc0a57d2e955900000000000000000000000000000000000000000000003299e22cba1738b0537",
          "blockHash": "0xe79e2f1a6573ecd99f50b44f5d34ec08e9bde3d094dac11e39ed08e9d839b347",
          "blockNumber": "0xcc27d9",
          "transactionHash": "0x0d84028f120b634fedfbec32bed219cac809a8e142ad1dbc3a833c8237d73587",
          "transactionIndex": "0x0",
          "logIndex": "0x1",
          "removed": false
        }
      ],
      "logsBloom": "0x00000000000000000000000000000000000000000000000000000000000000000000000000000000080000000000000000008000000000040000010000000000000000000200000000000008000000800000000000000000000100000000000000000000020000000000000000000800000000000000000080000010000000000000000000000000000000000000000000004000000000000000000000000000200000000000000000000000000000000000000000000000000000000000004000000002200000000081000000000000000000000000000000100000000020000000000000000000000000010000000000000000020000000000000000100000",
      "type": "0x2",
      "transactionHash": "0x0d84028f120b634fedfbec32bed219cac809a8e142ad1dbc3a833c8237d73587",
      "transactionIndex": "0x0",
      "blockHash": "0xe79e2f1a6573ecd99f50b44f5d34ec08e9bde3d094dac11e39ed08e9d839b347",
      "blockNumber": "0xcc27d9",
      "gasUsed": "0x8e40",
      "effectiveGasPrice": "0x9194e747a",
      "from": "0x66664013474a29e9807d1736b1b1123f63345e22",
      "to": "0x029b1c31f27a5ae6066ca42ed46f18566f0c8502",
      "contractAddress": null
    },
    {
      "status": "0x1",
      "cumulativeGasUsed": "0x1008a",
      "logs": [
        {
          "address": "0x029b1c31f27a5ae6066ca42ed46f18566f0c8502",
          "topics": [
            "0x8c5be1e5ebec7d5bd14f71427d1e84f3dd0314c0f7b2291e5b200ac8c7c3b925",
            "0x00000000000000000000000066664013474a29e9807d1736b1b1123f63345e22",
            "0x000000000000000000000000ba65a69d90e2f9337744dfa365ea3d7064444fe5"
          ],
          "data": "0x0000000000000000000000000000000000000000000000000000000005f5e100",
          "blockHash": "0xe79e2f1a6573ecd99f50b44f5d34ec08e9bde3d094dac11e39ed08e9d839b347",
          "blockNumber": "0xcc27d9",
          "transactionHash": "0x3c5560cc8255a55f4f20801e408e000e676955b9393e23ea93f44374b2d9641f",
          "transactionIndex": "0x1",
          "logIndex": "0x2",
          "removed": false
        },
        {
          "address": "0x0000000000000000000000000000000000001010",
          "topics": [
            "0x4dfe1bbbcf077ddc3e01291eea2d5c70c2b422b415d95645b9adcfd678cb1d63",
            "0x0000000000000000000000000000000000000000000000000000000000001010",
            "0x00000000000000000000000066664013474a29e9807d1736b1b1123f63345e22",
            "0x00000000000000000000000009207a6efee346cb3e4a54ac18523e3715d38b3f"
          ],
          "data": "0x00000000000000000000000000000000000000000000000000040fe640854cee00000000000000000000000000000000000000000000000001dc0a57d2e0ffd00000000000000000000000000000000000000000000003299e22cba1738b053700000000000000000000000000000000000000000000000001d7fa71925bb2e20000000000000000000000000000000000000000000003299e26db87b4105225",
          "blockHash": "0xe79e2f1a6573ecd99f50b44f5d34ec08e9bde3d094dac11e39ed08e9d839b347",
          "blockNumber": "0xcc27d9",
          "transactionHash": "0x3c5560cc8255a55f4f20801e408e000e676955b9393e23ea93f44374b2d9641f",
          "transactionIndex": "0x1",
          "logIndex": "0x3",
          "removed": false
        }
      ],
      "logsBloom": "0x00000000000000000000000000000000000000000000000000000000000000000000000000000000080000000000000000008000000000040000010000200000000000000200000000000000000000800000000000000000000100000000000000000000000000000000000000000000000000000001000080000000000000000000000000000000000000000000000000004000000000000000000000000000220000000000000000000000000000000000000000000000000000020000004000000000200000000081000000000000000000000000000000180000000000000010000000000000000000010000000000000000020000000000000000100000",
      "type": "0x2",
      "transactionHash": "0x3c5560cc8255a55f4f20801e408e000e676955b9393e23ea93f44374b2d9641f",
      "transactionIndex": "0x1",
      "blockHash": "0xe79e2f1a6573ecd99f50b44f5d34ec08e9bde3d094dac11e39ed08e9d839b347",
      "blockNumber": "0xcc27d9",
      "gasUsed": "0x724a",
      "effectiveGasPrice": "0x9194e747a",
      "from": "0x66664013474a29e9807d1736b1b1123f63345e22",
      "to": "0x029b1c31f27a5ae6066ca42ed46f18566f0c8502",
      "contractAddress": null
    },
    {
      "status": "0x1",
      "cumulativeGasUsed": "0x1f8bc",
      "logs": [
        {
          "address": "0x029b1c31f27a5ae6066ca42ed46f18566f0c8502",
          "topics": [
            "0xddf252ad1be2c89b69c2b068fc378daa952ba7f163c4a11628f55a4df523b3ef",
            "0x00000000000000000000000066664013474a29e9807d1736b1b1123f63345e22",
            "0x000000000000000000000000ba65a69d90e2f9337744dfa365ea3d7064444fe5"
          ],
          "data": "0x00000000000000000000000000000000000000000000000000000000002dc6c0",
          "blockHash": "0xe79e2f1a6573ecd99f50b44f5d34ec08e9bde3d094dac11e39ed08e9d839b347",
          "blockNumber": "0xcc27d9",
          "transactionHash": "0x865dcc4ae278d2d3b349ff7f95b9e3861bcbbd55b841f3981c467b83acb6b122",
          "transactionIndex": "0x2",
          "logIndex": "0x4",
          "removed": false
        },
        {
          "address": "0xba65a69d90e2f9337744dfa365ea3d7064444fe5",
          "topics": [
            "0x12cb4648cf3058b17ceeb33e579f8b0bc269fe0843f3900b8e24b6c54871703c"
          ],
          "data": "0x00000000000000000000000066664013474a29e9807d1736b1b1123f63345e220000000000000000000000000000000000000000000000000000000000cc27d900000000000000000000000000000000000000000000000000000000002dc6c0",
          "blockHash": "0xe79e2f1a6573ecd99f50b44f5d34ec08e9bde3d094dac11e39ed08e9d839b347",
          "blockNumber": "0xcc27d9",
          "transactionHash": "0x865dcc4ae278d2d3b349ff7f95b9e3861bcbbd55b841f3981c467b83acb6b122",
          "transactionIndex": "0x2",
          "logIndex": "0x5",
          "removed": false
        },
        {
          "address": "0x0000000000000000000000000000000000001010",
          "topics": [
            "0x4dfe1bbbcf077ddc3e01291eea2d5c70c2b422b415d95645b9adcfd678cb1d63",
            "0x0000000000000000000000000000000000000000000000000000000000001010",
            "0x00000000000000000000000066664013474a29e9807d1736b1b1123f63345e22",
            "0x00000000000000000000000009207a6efee346cb3e4a54ac18523e3715d38b3f"
          ],
          "data": "0x0000000000000000000000000000000000000000000000000008d24af21a64e600000000000000000000000000000000000000000000000001d7fa719255008c0000000000000000000000000000000000000000000003299e26db87b410522500000000000000000000000000000000000000000000000001cf2826a03a9ba60000000000000000000000000000000000000000000003299e2fadd2a62ab70b",
          "blockHash": "0xe79e2f1a6573ecd99f50b44f5d34ec08e9bde3d094dac11e39ed08e9d839b347",
          "blockNumber": "0xcc27d9",
          "transactionHash": "0x865dcc4ae278d2d3b349ff7f95b9e3861bcbbd55b841f3981c467b83acb6b122",
          "transactionIndex": "0x2",
          "logIndex": "0x6",
          "removed": false
        }
      ],
      "logsBloom": "0x00000000000000000000000000000000000000000000000000000000000000000000000000000000084000000000000000008000000000040000010000000000000000000200000000000008000000800000000000000000000100000000000000000000000000000000000000000000000000000001000080000010000000000000000005000000000000000000000000004200000000040000000000000000200000000000000000000000000000000000000000000000000000020000004000000002202000000081000000000000000000000000000000180000000000000000000000000000000000010000000000000000020000000000000000100000",
      "type": "0x2",
      "transactionHash": "0x865dcc4ae278d2d3b349ff7f95b9e3861bcbbd55b841f3981c467b83acb6b122",
      "transactionIndex": "0x2",
      "blockHash": "0xe79e2f1a6573ecd99f50b44f5d34ec08e9bde3d094dac11e39ed08e9d839b347",
      "blockNumber": "0xcc27d9",
      "gasUsed": "0xf832",
      "effectiveGasPrice": "0x9194e747a",
      "from": "0x66664013474a29e9807d1736b1b1123f63345e22",
      "to": "0xba65a69d90e2f9337744dfa365ea3d7064444fe5",
      "contractAddress": null
    },
    {
      "status": "0x1",
      "cumulativeGasUsed": "0x2e6ff",
      "logs": [
        {
          "address": "0x029b1c31f27a5ae6066ca42ed46f18566f0c8502",
          "topics": [
            "0xddf252ad1be2c89b69c2b068fc378daa952ba7f163c4a11628f55a4df523b3ef",
            "0x00000000000000000000000066664013474a29e9807d1736b1b1123f63345e22",
            "0x000000000000000000000000ba65a69d90e2f9337744dfa365ea3d7064444fe5"
          ],
          "data": "0x00000000000000000000000000000000000000000000000000000000003567e0",
          "blockHash": "0xe79e2f1a6573ecd99f50b44f5d34ec08e9bde3d094dac11e39ed08e9d839b347",
          "blockNumber": "0xcc27d9",
          "transactionHash": "0xc3ea7ba7ee71990633904c13483e63d4a3e3930cb40278a81db99edbd653c6c4",
          "transactionIndex": "0x3",
          "logIndex": "0x7",
          "removed": false
        },
        {
          "address": "0xba65a69d90e2f9337744dfa365ea3d7064444fe5",
          "topics": [
            "0x12cb4648cf3058b17ceeb33e579f8b0bc269fe0843f3900b8e24b6c54871703c"
          ],
          "data": "0x00000000000000000000000066664013474a29e9807d1736b1b1123f63345e220000000000000000000000000000000000000000000000000000000000cc27d900000000000000000000000000000000000000000000000000000000003567e0",
          "blockHash": "0xe79e2f1a6573ecd99f50b44f5d34ec08e9bde3d094dac11e39ed08e9d839b347",
          "blockNumber": "0xcc27d9",
          "transactionHash": "0xc3ea7ba7ee71990633904c13483e63d4a3e3930cb40278a81db99edbd653c6c4",
          "transactionIndex": "0x3",
          "logIndex": "0x8",
          "removed": false
        },
        {
          "address": "0x0000000000000000000000000000000000001010",
          "topics": [
            "0x4dfe1bbbcf077ddc3e01291eea2d5c70c2b422b415d95645b9adcfd678cb1d63",
            "0x0000000000000000000000000000000000000000000000000000000000001010",
            "0x00000000000000000000000066664013474a29e9807d1736b1b1123f63345e22",
            "0x00000000000000000000000009207a6efee346cb3e4a54ac18523e3715d38b3f"
          ],
          "data": "0x000000000000000000000000000000000000000000000000000877e88fc3f20100000000000000000000000000000000000000000000000001cf2826a02c10b80000000000000000000000000000000000000000000003299e2fadd2a62ab70b00000000000000000000000000000000000000000000000001c6b03e10681eb70000000000000000000000000000000000000000000003299e3825bb35eea90c",
          "blockHash": "0xe79e2f1a6573ecd99f50b44f5d34ec08e9bde3d094dac11e39ed08e9d839b347",
          "blockNumber": "0xcc27d9",
          "transactionHash": "0xc3ea7ba7ee71990633904c13483e63d4a3e3930cb40278a81db99edbd653c6c4",
          "transactionIndex": "0x3",
          "logIndex": "0x9",
          "removed": false
        }
      ],
      "logsBloom": "0x00000000000000000000000000000000000000000000000000000000000000000000000000000000084000000000000000008000000000040000010000000000000000000200000000000008000000800000000000000000000100000000000000000000000000000000000000000000000000000001000080000010000000000000000005000000000000000000000000004200000000040000000000000000200000000000000000000000000000000000000000000000000000020000004000000002202000000081000000000000000000000000000000180000000000000000000000000000000000010000000000000000020000000000000000100000",
      "type": "0x2",
      "transactionHash": "0xc3ea7ba7ee71990633904c13483e63d4a3e3930cb40278a81db99edbd653c6c4",
      "transactionIndex": "0x3",
      "blockHash": "0xe79e2f1a6573ecd99f50b44f5d34ec08e9bde3d094dac11e39ed08e9d839b347",
      "blockNumber": "0xcc27d9",
      "gasUsed": "0xee43",
      "effectiveGasPrice": "0x9194e747a",
      "from": "0x66664013474a29e9807d1736b1b1123f63345e22",
      "to": "0xba65a69d90e2f9337744dfa365ea3d7064444fe5",
      "contractAddress": null
    }
  ],
  "libraries": [],
  "pending": [],
  "returns": {},
  "timestamp": 1729377270,
  "chain": 80002,
  "commit": "759e856"
}