{
  "transactions": [
    {
      "hash": "0xd64f276193484dd15e51e541073caea162d8ca0df73f1b0e7c46286d33fddf3c",
      "transactionType": "CALL",
      "contractName": null,
      "contractAddress": "0x029b1c31f27a5ae6066ca42ed46f18566f0c8502",
      "function": "mint(address,uint256)",
      "arguments": [
        "0x66664013474a29e9807D1736B1B1123F63345e22",
        "100000000"
      ],
      "transaction": {
        "from": "0x66664013474a29e9807d1736b1b1123f63345e22",
        "to": "0x029b1c31f27a5ae6066ca42ed46f18566f0c8502",
        "gas": "0xc47b",
        "value": "0x0",
        "input": "0x40c10f1900000000000000000000000066664013474a29e9807d1736b1b1123f63345e220000000000000000000000000000000000000000000000000000000005f5e100",
        "nonce": "0xf",
        "chainId": "0x13882"
      },
      "additionalContracts": [],
      "isFixedGasLimit": false
    },
    {
      "hash": "0x9adb1277c2798c7d701d75b1685e82e5adac56b6bab57229c788a6296b865fe8",
      "transactionType": "CALL",
      "contractName": null,
      "contractAddress": "0x029b1c31f27a5ae6066ca42ed46f18566f0c8502",
      "function": "approve(address,uint256)",
      "arguments": [
        "0xbA65a69d90E2f9337744dfa365EA3D7064444Fe5",
        "100000000"
      ],
      "transaction": {
        "from": "0x66664013474a29e9807d1736b1b1123f63345e22",
        "to": "0x029b1c31f27a5ae6066ca42ed46f18566f0c8502",
        "gas": "0xa725",
        "value": "0x0",
        "input": "0x095ea7b3000000000000000000000000ba65a69d90e2f9337744dfa365ea3d7064444fe50000000000000000000000000000000000000000000000000000000005f5e100",
        "nonce": "0x10",
        "chainId": "0x13882"
      },
      "additionalContracts": [],
      "isFixedGasLimit": false
    },
    {
      "hash": "0x404ffb6709f141d1f66c9897d1e87e9be6fab49bd7c637dd6138ff332d1159a4",
      "transactionType": "CALL",
      "contractName": null,
      "contractAddress": "0xba65a69d90e2f9337744dfa365ea3d7064444fe5",
      "function": "buy()",
      "arguments": [],
      "transaction": {
        "from": "0x66664013474a29e9807d1736b1b1123f63345e22",
        "to": "0xba65a69d90e2f9337744dfa365ea3d7064444fe5",
        "gas": "0x16c73",
        "value": "0x0",
        "input": "0xa6f2ae3a",
        "nonce": "0x11",
        "chainId": "0x13882"
      },
      "additionalContracts": [],
      "isFixedGasLimit": false
    },
    {
      "hash": "0x295d89c88920cae025c4e7a6fd255928bd41750014584fb5c1bdc07a3a6295be",
      "transactionType": "CALL",
      "contractName": null,
      "contractAddress": "0xba65a69d90e2f9337744dfa365ea3d7064444fe5",
      "function": "buy()",
      "arguments": [],
      "transaction": {
        "from": "0x66664013474a29e9807d1736b1b1123f63345e22",
        "to": "0xba65a69d90e2f9337744dfa365ea3d7064444fe5",
        "gas": "0x15c74",
        "value": "0x0",
        "input": "0xa6f2ae3a",
        "nonce": "0x12",
        "chainId": "0x13882"
      },
      "additionalContracts": [],
      "isFixedGasLimit": false
    }
  ],
  "receipts": [
    {
      "status": "0x1",
      "cumulativeGasUsed": "0x1fa3f",
      "logs": [
        {
          "address": "0x029b1c31f27a5ae6066ca42ed46f18566f0c8502",
          "topics": [
            "0xddf252ad1be2c89b69c2b068fc378daa952ba7f163c4a11628f55a4df523b3ef",
            "0x0000000000000000000000000000000000000000000000000000000000000000",
            "0x00000000000000000000000066664013474a29e9807d1736b1b1123f63345e22"
          ],
          "data": "0x0000000000000000000000000000000000000000000000000000000005f5e100",
          "blockHash": "0x50865c88f969f1aa2bea862edaa108f65d946425939259b41058a092237004ea",
          "blockNumber": "0xcc29a7",
          "transactionHash": "0xd64f276193484dd15e51e541073caea162d8ca0df73f1b0e7c46286d33fddf3c",
          "transactionIndex": "0x1",
          "logIndex": "0x2",
          "removed": false
        },
        {
          "address": "0x0000000000000000000000000000000000001010",
          "topics": [
            "0x4dfe1bbbcf077ddc3e01291eea2d5c70c2b422b415d95645b9adcfd678cb1d63",
            "0x0000000000000000000000000000000000000000000000000000000000001010",
            "0x00000000000000000000000066664013474a29e9807d1736b1b1123f63345e22",
            "0x0000000000000000000000006ab3d36c46ecfb9b9c0bd51cb1c3da5a2c81cea6"
          ],
          "data": "0x0000000000000000000000000000000000000000000000000004e77b8776440000000000000000000000000000000000000000000000000001ac47d4759a87440000000000000000000000000000000000000000000003002d1e8aab9d799faf00000000000000000000000000000000000000000000000001a76058ee2443440000000000000000000000000000000000000000000003002d23722724efe3af",
          "blockHash": "0x50865c88f969f1aa2bea862edaa108f65d946425939259b41058a092237004ea",
          "blockNumber": "0xcc29a7",
          "transactionHash": "0xd64f276193484dd15e51e541073caea162d8ca0df73f1b0e7c46286d33fddf3c",
          "transactionIndex": "0x1",
          "logIndex": "0x3",
          "removed": false
        }
      ],
      "logsBloom": "0x00000000080000000000000000000000000000000000000000000000000000000000000000000000080000000000000000008000000000040000000000000000000000080200000000000008000000800000000000000000000100000000000000000000020000000000000000000800000000000000000080000010000000000000000000000000000000000000000000000000000000000000000000000000200000000000000000000000000000000000000000000000000000000000004000000002200000000081000000000000000000010000000000100000000020000000000000000000000000000000000000000000020000000000000000100000",
      "type": "0x2",
      "transactionHash": "0xd64f276193484dd15e51e541073caea162d8ca0df73f1b0e7c46286d33fddf3c",
      "transactionIndex": "0x1",
      "blockHash": "0x50865c88f969f1aa2bea862edaa108f65d946425939259b41058a092237004ea",
      "blockNumber": "0xcc29a7",
      "gasUsed": "0x8e40",
      "effectiveGasPrice": "0x8d36d619f",
      "from": "0x66664013474a29e9807d1736b1b1123f63345e22",
      "to": "0x029b1c31f27a5ae6066ca42ed46f18566f0c8502",
      "contractAddress": null
    },
    {
      "status": "0x1",
      "cumulativeGasUsed": "0x26c89",
      "logs": [
        {
          "address": "0x029b1c31f27a5ae6066ca42ed46f18566f0c8502",
          "topics": [
            "0x8c5be1e5ebec7d5bd14f71427d1e84f3dd0314c0f7b2291e5b200ac8c7c3b925",
            "0x00000000000000000000000066664013474a29e9807d1736b1b1123f63345e22",
            "0x000000000000000000000000ba65a69d90e2f9337744dfa365ea3d7064444fe5"
          ],
          "data": "0x0000000000000000000000000000000000000000000000000000000005f5e100",
          "blockHash": "0x50865c88f969f1aa2bea862edaa108f65d946425939259b41058a092237004ea",
          "blockNumber": "0xcc29a7",
          "transactionHash": "0x9adb1277c2798c7d701d75b1685e82e5adac56b6bab57229c788a6296b865fe8",
          "transactionIndex": "0x2",
          "logIndex": "0x4",
          "removed": false
        },
        {
          "address": "0x0000000000000000000000000000000000001010",
          "topics": [
            "0x4dfe1bbbcf077ddc3e01291eea2d5c70c2b422b415d95645b9adcfd678cb1d63",
            "0x0000000000000000000000000000000000000000000000000000000000001010",
            "0x00000000000000000000000066664013474a29e9807d1736b1b1123f63345e22",
            "0x0000000000000000000000006ab3d36c46ecfb9b9c0bd51cb1c3da5a2c81cea6"
          ],
          "data": "0x0000000000000000000000000000000000000000000000000003f0b3d31053a000000000000000000000000000000000000000000000000001a76058ee1bed840000000000000000000000000000000000000000000003002d23722724efe3af00000000000000000000000000000000000000000000000001a36fa51b0b99e40000000000000000000000000000000000000000000003002d2762daf800374f",
          "blockHash": "0x50865c88f969f1aa2bea862edaa108f65d946425939259b41058a092237004ea",
          "blockNumber": "0xcc29a7",
          "transactionHash": "0x9adb1277c2798c7d701d75b1685e82e5adac56b6bab57229c788a6296b865fe8",
          "transactionIndex": "0x2",
          "logIndex": "0x5",
          "removed": false
        }
      ],
      "logsBloom": "0x00000000080000000000000000000000000000000000000000000000000000000000000000000000080000000000000000008000000000040000000000200000000000080200000000000000000000800000000000000000000100000000000000000000000000000000000000000000000000000001000080000000000000000000000000000000000000000000000000000000000000000000000000000000220000000000000000000000000000000000000000000000000000020000004000000000200000000081000000000000000000010000000000180000000000000010000000000000000000000000000000000000020000000000000000100000",
      "type": "0x2",
      "transactionHash": "0x9adb1277c2798c7d701d75b1685e82e5adac56b6bab57229c788a6296b865fe8",
      "transactionIndex": "0x2",
      "blockHash": "0x50865c88f969f1aa2bea862edaa108f65d946425939259b41058a092237004ea",
      "blockNumber": "0xcc29a7",
      "gasUsed": "0x724a",
      "effectiveGasPrice": "0x8d36d619f",
      "from": "0x66664013474a29e9807d1736b1b1123f63345e22",
      "to": "0x029b1c31f27a5ae6066ca42ed46f18566f0c8502",
      "contractAddress": null
    },
    {
      "status": "0x1",
      "cumulativeGasUsed": "0x365bc",
      "logs": [
        {
          "address": "0x029b1c31f27a5ae6066ca42ed46f18566f0c8502",
          "topics": [
            "0xddf252ad1be2c89b69c2b068fc378daa952ba7f163c4a11628f55a4df523b3ef",
            "0x00000000000000000000000066664013474a29e9807d1736b1b1123f63345e22",
            "0x000000000000000000000000ba65a69d90e2f9337744dfa365ea3d7064444fe5"
          ],
          "data": "0x00000000000000000000000000000000000000000000000000000000003d0900",
          "blockHash": "0x50865c88f969f1aa2bea862edaa108f65d946425939259b41058a092237004ea",
          "blockNumber": "0xcc29a7",
          "transactionHash": "0x404ffb6709f141d1f66c9897d1e87e9be6fab49bd7c637dd6138ff332d1159a4",
          "transactionIndex": "0x3",
          "logIndex": "0x6",
          "removed": false
        },
        {
          "address": "0xba65a69d90e2f9337744dfa365ea3d7064444fe5",
          "topics": [
            "0x12cb4648cf3058b17ceeb33e579f8b0bc269fe0843f3900b8e24b6c54871703c"
          ],
          "data": "0x00000000000000000000000066664013474a29e9807d1736b1b1123f63345e220000000000000000000000000000000000000000000000000000000000cc29a700000000000000000000000000000000000000000000000000000000003d0900",
          "blockHash": "0x50865c88f969f1aa2bea862edaa108f65d946425939259b41058a092237004ea",
          "blockNumber": "0xcc29a7",
          "transactionHash": "0x404ffb6709f141d1f66c9897d1e87e9be6fab49bd7c637dd6138ff332d1159a4",
          "transactionIndex": "0x3",
          "logIndex": "0x7",
          "removed": false
        },
        {
          "address": "0x0000000000000000000000000000000000001010",
          "topics": [
            "0x4dfe1bbbcf077ddc3e01291eea2d5c70c2b422b415d95645b9adcfd678cb1d63",
            "0x0000000000000000000000000000000000000000000000000000000000001010",
            "0x00000000000000000000000066664013474a29e9807d1736b1b1123f63345e22",
            "0x0000000000000000000000006ab3d36c46ecfb9b9c0bd51cb1c3da5a2c81cea6"
          ],
          "data": "0x0000000000000000000000000000000000000000000000000008976782af7fb000000000000000000000000000000000000000000000000001a36fa51b04e78e0000000000000000000000000000000000000000000003002d2762daf800374f000000000000000000000000000000000000000000000000019ad83d985567de0000000000000000000000000000000000000000000003002d2ffa427aafb6ff",
          "blockHash": "0x50865c88f969f1aa2bea862edaa108f65d946425939259b41058a092237004ea",
          "blockNumber": "0xcc29a7",
          "transactionHash": "0x404ffb6709f141d1f66c9897d1e87e9be6fab49bd7c637dd6138ff332d1159a4",
          "transactionIndex": "0x3",
          "logIndex": "0x8",
          "removed": false
        }
      ],
      "logsBloom": "0x00000000080000000000000000000000000000000000000000000000000000000000000000000000084000000000000000008000000000040000000000000000000000080200000000000008000000800000000000000000000100000000000000000000000000000000000000000000000000000001000080000010000000000000000005000000000000000000000000000200000000040000000000000000200000000000000000000000000000000000000000000000000000020000004000000002202000000081000000000000000000010000000000180000000000000000000000000000000000000000000000000000020000000000000000100000",
      "type": "0x2",
      "transactionHash": "0x404ffb6709f141d1f66c9897d1e87e9be6fab49bd7c637dd6138ff332d1159a4",
      "transactionIndex": "0x3",
      "blockHash": "0x50865c88f969f1aa2bea862edaa108f65d946425939259b41058a092237004ea",
      "blockNumber": "0xcc29a7",
      "gasUsed": "0xf933",
      "effectiveGasPrice": "0x8d36d619f",
      "from": "0x66664013474a29e9807d1736b1b1123f63345e22",
      "to": "0xba65a69d90e2f9337744dfa365ea3d7064444fe5",
      "contractAddress": null
    },
    {
      "status": "0x1",
      "cumulativeGasUsed": "0x453ff",
      "logs": [
        {
          "address": "0x029b1c31f27a5ae6066ca42ed46f18566f0c8502",
          "topics": [
            "0xddf252ad1be2c89b69c2b068fc378daa952ba7f163c4a11628f55a4df523b3ef",
            "0x00000000000000000000000066664013474a29e9807d1736b1b1123f63345e22",
            "0x000000000000000000000000ba65a69d90e2f9337744dfa365ea3d7064444fe5"
          ],
          "data": "0x000000000000000000000000000000000000000000000000000000000044aa20",
          "blockHash": "0x50865c88f969f1aa2bea862edaa108f65d946425939259b41058a092237004ea",
          "blockNumber": "0xcc29a7",
          "transactionHash": "0x295d89c88920cae025c4e7a6fd255928bd41750014584fb5c1bdc07a3a6295be",
          "transactionIndex": "0x4",
          "logIndex": "0x9",
          "removed": false
        },
        {
          "address": "0xba65a69d90e2f9337744dfa365ea3d7064444fe5",
          "topics": [
            "0x12cb4648cf3058b17ceeb33e579f8b0bc269fe0843f3900b8e24b6c54871703c"
          ],
          "data": "0x00000000000000000000000066664013474a29e9807d1736b1b1123f63345e220000000000000000000000000000000000000000000000000000000000cc29a7000000000000000000000000000000000000000000000000000000000044aa20",
          "blockHash": "0x50865c88f969f1aa2bea862edaa108f65d946425939259b41058a092237004ea",
          "blockNumber": "0xcc29a7",
          "transactionHash": "0x295d89c88920cae025c4e7a6fd255928bd41750014584fb5c1bdc07a3a6295be",
          "transactionIndex": "0x4",
          "logIndex": "0xa",
          "removed": false
        },
        {
          "address": "0x0000000000000000000000000000000000001010",
          "topics": [
            "0x4dfe1bbbcf077ddc3e01291eea2d5c70c2b422b415d95645b9adcfd678cb1d63",
            "0x0000000000000000000000000000000000000000000000000000000000001010",
            "0x00000000000000000000000066664013474a29e9807d1736b1b1123f63345e22",
            "0x0000000000000000000000006ab3d36c46ecfb9b9c0bd51cb1c3da5a2c81cea6"
          ],
          "data": "0x000000000000000000000000000000000000000000000000000836df065468b0000000000000000000000000000000000000000000000000019ad83d9846cde10000000000000000000000000000000000000000000003002d2ffa427aafb6ff0000000000000000000000000000000000000000000000000192a15e91f265310000000000000000000000000000000000000000000003002d38312181041faf",
          "blockHash": "0x50865c88f969f1aa2bea862edaa108f65d946425939259b41058a092237004ea",
          "blockNumber": "0xcc29a7",
          "transactionHash": "0x295d89c88920cae025c4e7a6fd255928bd41750014584fb5c1bdc07a3a6295be",
          "transactionIndex": "0x4",
          "logIndex": "0xb",
          "removed": false
        }
      ],
      "logsBloom": "0x00000000080000000000000000000000000000000000000000000000000000000000000000000000084000000000000000008000000000040000000000000000000000080200000000000008000000800000000000000000000100000000000000000000000000000000000000000000000000000001000080000010000000000000000005000000000000000000000000000200000000040000000000000000200000000000000000000000000000000000000000000000000000020000004000000002202000000081000000000000000000010000000000180000000000000000000000000000000000000000000000000000020000000000000000100000",
      "type": "0x2",
      "transactionHash": "0x295d89c88920cae025c4e7a6fd255928bd41750014584fb5c1bdc07a3a6295be",
      "transactionIndex": "0x4",
      "blockHash": "0x50865c88f969f1aa2bea862edaa108f65d946425939259b41058a092237004ea",
      "blockNumber": "0xcc29a7",
      "gasUsed": "0xee43",
      "effectiveGasPrice": "0x8d36d619f",
      "from": "0x66664013474a29e9807d1736b1b1123f63345e22",
      "to": "0xba65a69d90e2f9337744dfa365ea3d7064444fe5",
      "contractAddress": null
    }
  ],
  "libraries": [],
  "pending": [],
  "returns": {},
  "timestamp": 1729378254,
  "chain": 80002,
  "commit": "759e856"
}