{
  "transactions": [
    {
      "hash": "0xf2843db48a0b6ad19d4ec9cbf854f7f39f64472c3f48d9166ed83d51061d04cb",
      "transactionType": "CALL",
      "contractName": null,
      "contractAddress": "0x029b1c31f27a5ae6066ca42ed46f18566f0c8502",
      "function": "mint(address,uint256)",
      "arguments": [
        "0x66664013474a29e9807D1736B1B1123F63345e22",
        "100000000"
      ],
      "transaction": {
        "from": "0x66664013474a29e9807d1736b1b1123f63345e22",
        "to": "0x029b1c31f27a5ae6066ca42ed46f18566f0c8502",
        "gas": "0xc47b",
        "value": "0x0",
        "input": "0x40c10f1900000000000000000000000066664013474a29e9807d1736b1b1123f63345e220000000000000000000000000000000000000000000000000000000005f5e100",
        "nonce": "0xb",
        "chainId": "0x13882"
      },
      "additionalContracts": [],
      "isFixedGasLimit": false
    },
    {
      "hash": "0x54236bf8897cbb57826a6c1d4db9f098684d59be02509a3e0c100a7f1940f160",
      "transactionType": "CALL",
      "contractName": null,
      "contractAddress": "0x029b1c31f27a5ae6066ca42ed46f18566f0c8502",
      "function": "approve(address,uint256)",
      "arguments": [
        "0xbA65a69d90E2f9337744dfa365EA3D7064444Fe5",
        "100000000"
      ],
      "transaction": {
        "from": "0x66664013474a29e9807d1736b1b1123f63345e22",
        "to": "0x029b1c31f27a5ae6066ca42ed46f18566f0c8502",
        "gas": "0xa725",
        "value": "0x0",
        "input": "0x095ea7b3000000000000000000000000ba65a69d90e2f9337744dfa365ea3d7064444fe50000000000000000000000000000000000000000000000000000000005f5e100",
        "nonce": "0xc",
        "chainId": "0x13882"
      },
      "additionalContracts": [],
      "isFixedGasLimit": false
    },
    {
      "hash": "0x3e346ffe86c0d7a86c097f8d7d24f4d11a4202fa1e7889bcb1fc8858eed8c7b7",
      "transactionType": "CALL",
      "contractName": null,
      "contractAddress": "0xba65a69d90e2f9337744dfa365ea3d7064444fe5",
      "function": "buy()",
      "arguments": [],
      "transaction": {
        "from": "0x66664013474a29e9807d1736b1b1123f63345e22",
        "to": "0xba65a69d90e2f9337744dfa365ea3d7064444fe5",
        "gas": "0x16afc",
        "value": "0x0",
        "input": "0xa6f2ae3a",
        "nonce": "0xd",
        "chainId": "0x13882"
      },
      "additionalContracts": [],
      "isFixedGasLimit": false
    },
    {
      "hash": "0x661f261340a589f77d2b3a1d3adf7a1b7f6d2e51135cce030fde9e5317d6ab47",
      "transactionType": "CALL",
      "contractName": null,
      "contractAddress": "0xba65a69d90e2f9337744dfa365ea3d7064444fe5",
      "function": "buy()",
      "arguments": [],
      "transaction": {
        "from": "0x66664013474a29e9807d1736b1b1123f63345e22",
        "to": "0xba65a69d90e2f9337744dfa365ea3d7064444fe5",
        "gas": "0x15c74",
        "value": "0x0",
        "input": "0xa6f2ae3a",
        "nonce": "0xe",
        "chainId": "0x13882"
      },
      "additionalContracts": [],
      "isFixedGasLimit": false
    }
  ],
  "receipts": [
    {
      "status": "0x1",
      "cumulativeGasUsed": "0x8e40",
      "logs": [
        {
          "address": "0x029b1c31f27a5ae6066ca42ed46f18566f0c8502",
          "topics": [
            "0xddf252ad1be2c89b69c2b068fc378daa952ba7f163c4a11628f55a4df523b3ef",
            "0x0000000000000000000000000000000000000000000000000000000000000000",
            "0x00000000000000000000000066664013474a29e9807d1736b1b1123f63345e22"
          ],
          "data": "0x0000000000000000000000000000000000000000000000000000000005f5e100",
          "blockHash": "0x3dfcf1dfd5c47fa276612c4766d22752d9d7e565547b4c4c4e38e8144fe91b97",
          "blockNumber": "0xcc299f",
          "transactionHash": "0xf2843db48a0b6ad19d4ec9cbf854f7f39f64472c3f48d9166ed83d51061d04cb",
          "transactionIndex": "0x0",
          "logIndex": "0x0",
          "removed": false
        },
        {
          "address": "0x0000000000000000000000000000000000001010",
          "topics": [
            "0x4dfe1bbbcf077ddc3e01291eea2d5c70c2b422b415d95645b9adcfd678cb1d63",
            "0x0000000000000000000000000000000000000000000000000000000000001010",
            "0x00000000000000000000000066664013474a29e9807d1736b1b1123f63345e22",
            "0x0000000000000000000000004631753190f2f5a15a7ba172bbac102b7d95fa22"
          ],
          "data": "0x00000000000000000000000000000000000000000000000000050e4fd83074c000000000000000000000000000000000000000000000000001c6b03e105a28ca00000000000000000000000000000000000000000000025dfdbf5083d294c94d00000000000000000000000000000000000000000000000001c1a1ee3829b40a00000000000000000000000000000000000000000000025dfdc45ed3aac53e0d",
          "blockHash": "0x3dfcf1dfd5c47fa276612c4766d22752d9d7e565547b4c4c4e38e8144fe91b97",
          "blockNumber": "0xcc299f",
          "transactionHash": "0xf2843db48a0b6ad19d4ec9cbf854f7f39f64472c3f48d9166ed83d51061d04cb",
          "transactionIndex": "0x0",
          "logIndex": "0x1",
          "removed": false
        }
      ],
      "logsBloom": "0x00000000000000000000000000000000000000002000000000000000000000000000000000000000080000000000000000008000000000040000000040000000000000000200000000000008000000800000000000000000000100000000000000000000020000100000000000000800000000000000000080000010000000000000000000000000000000000000000000000000000000000000000000000000200000000000000000000000000000000000000000000000000000000000004000000002200000000081000000000000000000000000000000100000000020000000000000000000000000000000000000000000020000000000000000100000",
      "type": "0x2",
      "transactionHash": "0xf2843db48a0b6ad19d4ec9cbf854f7f39f64472c3f48d9166ed83d51061d04cb",
      "transactionIndex": "0x0",
      "blockHash": "0x3dfcf1dfd5c47fa276612c4766d22752d9d7e565547b4c4c4e38e8144fe91b97",
      "blockNumber": "0xcc299f",
      "gasUsed": "0x8e40",
      "effectiveGasPrice": "0x9194e747a",
      "from": "0x66664013474a29e9807d1736b1b1123f63345e22",
      "to": "0x029b1c31f27a5ae6066ca42ed46f18566f0c8502",
      "contractAddress": null
    },
    {
      "status": "0x1",
      "cumulativeGasUsed": "0x1008a",
      "logs": [
        {
          "address": "0x029b1c31f27a5ae6066ca42ed46f18566f0c8502",
          "topics": [
            "0x8c5be1e5ebec7d5bd14f71427d1e84f3dd0314c0f7b2291e5b200ac8c7c3b925",
            "0x00000000000000000000000066664013474a29e9807d1736b1b1123f63345e22",
            "0x000000000000000000000000ba65a69d90e2f9337744dfa365ea3d7064444fe5"
          ],
          "data": "0x0000000000000000000000000000000000000000000000000000000005f5e100",
          "blockHash": "0x3dfcf1dfd5c47fa276612c4766d22752d9d7e565547b4c4c4e38e8144fe91b97",
          "blockNumber": "0xcc299f",
          "transactionHash": "0x54236bf8897cbb57826a6c1d4db9f098684d59be02509a3e0c100a7f1940f160",
          "transactionIndex": "0x1",
          "logIndex": "0x2",
          "removed": false
        },
        {
          "address": "0x0000000000000000000000000000000000001010",
          "topics": [
            "0x4dfe1bbbcf077ddc3e01291eea2d5c70c2b422b415d95645b9adcfd678cb1d63",
            "0x0000000000000000000000000000000000000000000000000000000000001010",
            "0x00000000000000000000000066664013474a29e9807d1736b1b1123f63345e22",
            "0x0000000000000000000000004631753190f2f5a15a7ba172bbac102b7d95fa22"
          ],
          "data": "0x00000000000000000000000000000000000000000000000000040fe640854cee00000000000000000000000000000000000000000000000001c1a1ee38215e4a00000000000000000000000000000000000000000000025dfdc45ed3aac53e0d00000000000000000000000000000000000000000000000001bd9207f79c115c00000000000000000000000000000000000000000000025dfdc86eb9eb4a8afb",
          "blockHash": "0x3dfcf1dfd5c47fa276612c4766d22752d9d7e565547b4c4c4e38e8144fe91b97",
          "blockNumber": "0xcc299f",
          "transactionHash": "0x54236bf8897cbb57826a6c1d4db9f098684d59be02509a3e0c100a7f1940f160",
          "transactionIndex": "0x1",
          "logIndex": "0x3",
          "removed": false
        }
      ],
      "logsBloom": "0x00000000000000000000000000000000000000002000000000000000000000000000000000000000080000000000000000008000000000040000000040200000000000000200000000000000000000800000000000000000000100000000000000000000000000100000000000000000000000000001000080000000000000000000000000000000000000000000000000000000000000000000000000000000220000000000000000000000000000000000000000000000000000020000004000000000200000000081000000000000000000000000000000180000000000000010000000000000000000000000000000000000020000000000000000100000",
      "type": "0x2",
      "transactionHash": "0x54236bf8897cbb57826a6c1d4db9f098684d59be02509a3e0c100a7f1940f160",
      "transactionIndex": "0x1",
      "blockHash": "0x3dfcf1dfd5c47fa276612c4766d22752d9d7e565547b4c4c4e38e8144fe91b97",
      "blockNumber": "0xcc299f",
      "gasUsed": "0x724a",
      "effectiveGasPrice": "0x9194e747a",
      "from": "0x66664013474a29e9807d1736b1b1123f63345e22",
      "to": "0x029b1c31f27a5ae6066ca42ed46f18566f0c8502",
      "contractAddress": null
    },
    {
      "status": "0x1",
      "cumulativeGasUsed": "0x1f8bc",
      "logs": [
        {
          "address": "0x029b1c31f27a5ae6066ca42ed46f18566f0c8502",
          "topics": [
            "0xddf252ad1be2c89b69c2b068fc378daa952ba7f163c4a11628f55a4df523b3ef",
            "0x00000000000000000000000066664013474a29e9807d1736b1b1123f63345e22",
            "0x000000000000000000000000ba65a69d90e2f9337744dfa365ea3d7064444fe5"
          ],
          "data": "0x00000000000000000000000000000000000000000000000000000000002dc6c0",
          "blockHash": "0x3dfcf1dfd5c47fa276612c4766d22752d9d7e565547b4c4c4e38e8144fe91b97",
          "blockNumber": "0xcc299f",
          "transactionHash": "0x3e346ffe86c0d7a86c097f8d7d24f4d11a4202fa1e7889bcb1fc8858eed8c7b7",
          "transactionIndex": "0x2",
          "logIndex": "0x4",
          "removed": false
        },
        {
          "address": "0xba65a69d90e2f9337744dfa365ea3d7064444fe5",
          "topics": [
            "0x12cb4648cf3058b17ceeb33e579f8b0bc269fe0843f3900b8e24b6c54871703c"
          ],
          "data": "0x00000000000000000000000066664013474a29e9807d1736b1b1123f63345e220000000000000000000000000000000000000000000000000000000000cc299f00000000000000000000000000000000000000000000000000000000002dc6c0",
          "blockHash": "0x3dfcf1dfd5c47fa276612c4766d22752d9d7e565547b4c4c4e38e8144fe91b97",
          "blockNumber": "0xcc299f",
          "transactionHash": "0x3e346ffe86c0d7a86c097f8d7d24f4d11a4202fa1e7889bcb1fc8858eed8c7b7",
          "transactionIndex": "0x2",
          "logIndex": "0x5",
          "removed": false
        },
        {
          "address": "0x0000000000000000000000000000000000001010",
          "topics": [
            "0x4dfe1bbbcf077ddc3e01291eea2d5c70c2b422b415d95645b9adcfd678cb1d63",
            "0x0000000000000000000000000000000000000000000000000000000000001010",
            "0x00000000000000000000000066664013474a29e9807d1736b1b1123f63345e22",
            "0x0000000000000000000000004631753190f2f5a15a7ba172bbac102b7d95fa22"
          ],
          "data": "0x0000000000000000000000000000000000000000000000000008d24af21a64e600000000000000000000000000000000000000000000000001bd9207f7955f0600000000000000000000000000000000000000000000025dfdc86eb9eb4a8afb00000000000000000000000000000000000000000000000001b4bfbd057afa2000000000000000000000000000000000000000000000025dfdd14104dd64efe1",
          "blockHash": "0x3dfcf1dfd5c47fa276612c4766d22752d9d7e565547b4c4c4e38e8144fe91b97",
          "blockNumber": "0xcc299f",
          "transactionHash": "0x3e346ffe86c0d7a86c097f8d7d24f4d11a4202fa1e7889bcb1fc8858eed8c7b7",
          "transactionIndex": "0x2",
          "logIndex": "0x6",
          "removed": false
        }
      ],
      "logsBloom": "0x00000000000000000000000000000000000000002000000000000000000000000000000000000000084000000000000000008000000000040000000040000000000000000200000000000008000000800000000000000000000100000000000000000000000000100000000000000000000000000001000080000010000000000000000005000000000000000000000000000200000000040000000000000000200000000000000000000000000000000000000000000000000000020000004000000002202000000081000000000000000000000000000000180000000000000000000000000000000000000000000000000000020000000000000000100000",
      "type": "0x2",
      "transactionHash": "0x3e346ffe86c0d7a86c097f8d7d24f4d11a4202fa1e7889bcb1fc8858eed8c7b7",
      "transactionIndex": "0x2",
      "blockHash": "0x3dfcf1dfd5c47fa276612c4766d22752d9d7e565547b4c4c4e38e8144fe91b97",
      "blockNumber": "0xcc299f",
      "gasUsed": "0xf832",
      "effectiveGasPrice": "0x9194e747a",
      "from": "0x66664013474a29e9807d1736b1b1123f63345e22",
      "to": "0xba65a69d90e2f9337744dfa365ea3d7064444fe5",
      "contractAddress": null
    },
    {
      "status": "0x1",
      "cumulativeGasUsed": "0x2e6ff",
      "logs": [
        {
          "address": "0x029b1c31f27a5ae6066ca42ed46f18566f0c8502",
          "topics": [
            "0xddf252ad1be2c89b69c2b068fc378daa952ba7f163c4a11628f55a4df523b3ef",
            "0x00000000000000000000000066664013474a29e9807d1736b1b1123f63345e22",
            "0x000000000000000000000000ba65a69d90e2f9337744dfa365ea3d7064444fe5"
          ],
          "data": "0x00000000000000000000000000000000000000000000000000000000003567e0",
          "blockHash": "0x3dfcf1dfd5c47fa276612c4766d22752d9d7e565547b4c4c4e38e8144fe91b97",
          "blockNumber": "0xcc299f",
          "transactionHash": "0x661f261340a589f77d2b3a1d3adf7a1b7f6d2e51135cce030fde9e5317d6ab47",
          "transactionIndex": "0x3",
          "logIndex": "0x7",
          "removed": false
        },
        {
          "address": "0xba65a69d90e2f9337744dfa365ea3d7064444fe5",
          "topics": [
            "0x12cb4648cf3058b17ceeb33e579f8b0bc269fe0843f3900b8e24b6c54871703c"
          ],
          "data": "0x00000000000000000000000066664013474a29e9807d1736b1b1123f63345e220000000000000000000000000000000000000000000000000000000000cc299f00000000000000000000000000000000000000000000000000000000003567e0",
          "blockHash": "0x3dfcf1dfd5c47fa276612c4766d22752d9d7e565547b4c4c4e38e8144fe91b97",
          "blockNumber": "0xcc299f",
          "transactionHash": "0x661f261340a589f77d2b3a1d3adf7a1b7f6d2e51135cce030fde9e5317d6ab47",
          "transactionIndex": "0x3",
          "logIndex": "0x8",
          "removed": false
        },
        {
          "address": "0x0000000000000000000000000000000000001010",
          "topics": [
            "0x4dfe1bbbcf077ddc3e01291eea2d5c70c2b422b415d95645b9adcfd678cb1d63",
            "0x0000000000000000000000000000000000000000000000000000000000001010",
            "0x00000000000000000000000066664013474a29e9807d1736b1b1123f63345e22",
            "0x0000000000000000000000004631753190f2f5a15a7ba172bbac102b7d95fa22"
          ],
          "data": "0x000000000000000000000000000000000000000000000000000877e88fc3f20100000000000000000000000000000000000000000000000001b4bfbd056c6f3200000000000000000000000000000000000000000000025dfdd14104dd64efe100000000000000000000000000000000000000000000000001ac47d475a87d3100000000000000000000000000000000000000000000025dfdd9b8ed6d28e1e2",
          "blockHash": "0x3dfcf1dfd5c47fa276612c4766d22752d9d7e565547b4c4c4e38e8144fe91b97",
          "blockNumber": "0xcc299f",
          "transactionHash": "0x661f261340a589f77d2b3a1d3adf7a1b7f6d2e51135cce030fde9e5317d6ab47",
          "transactionIndex": "0x3",
          "logIndex": "0x9",
          "removed": false
        }
      ],
      "logsBloom": "0x00000000000000000000000000000000000000002000000000000000000000000000000000000000084000000000000000008000000000040000000040000000000000000200000000000008000000800000000000000000000100000000000000000000000000100000000000000000000000000001000080000010000000000000000005000000000000000000000000000200000000040000000000000000200000000000000000000000000000000000000000000000000000020000004000000002202000000081000000000000000000000000000000180000000000000000000000000000000000000000000000000000020000000000000000100000",
      "type": "0x2",
      "transactionHash": "0x661f261340a589f77d2b3a1d3adf7a1b7f6d2e51135cce030fde9e5317d6ab47",
      "transactionIndex": "0x3",
      "blockHash": "0x3dfcf1dfd5c47fa276612c4766d22752d9d7e565547b4c4c4e38e8144fe91b97",
      "blockNumber": "0xcc299f",
      "gasUsed": "0xee43",
      "effectiveGasPrice": "0x9194e747a",
      "from": "0x66664013474a29e9807d1736b1b1123f63345e22",
      "to": "0xba65a69d90e2f9337744dfa365ea3d7064444fe5",
      "contractAddress": null
    }
  ],
  "libraries": [],
  "pending": [],
  "returns": {},
  "timestamp": 1729378236,
  "chain": 80002,
  "commit": "759e856"
}