{
  "transactions": [
    {
      "hash": "0x3af7cc65e961e05ad7bf422a418b8a46410c889fff3e14598eb997174f71ee93",
      "transactionType": "CALL",
      "contractName": null,
      "contractAddress": "0x029b1c31f27a5ae6066ca42ed46f18566f0c8502",
      "function": "mint(address,uint256)",
      "arguments": [
        "0x66664013474a29e9807D1736B1B1123F63345e22",
        "100000000"
      ],
      "transaction": {
        "from": "0x66664013474a29e9807d1736b1b1123f63345e22",
        "to": "0x029b1c31f27a5ae6066ca42ed46f18566f0c8502",
        "gas": "0x17d01",
        "value": "0x0",
        "input": "0x40c10f1900000000000000000000000066664013474a29e9807d1736b1b1123f63345e220000000000000000000000000000000000000000000000000000000005f5e100",
        "nonce": "0x3",
        "chainId": "0x13882"
      },
      "additionalContracts": [],
      "isFixedGasLimit": false
    },
    {
      "hash": "0xbf6e91e6faaba3986649fde45680d5e85f9a977e035b4cf7e2025fa2ca311e76",
      "transactionType": "CALL",
      "contractName": null,
      "contractAddress": "0x029b1c31f27a5ae6066ca42ed46f18566f0c8502",
      "function": "approve(address,uint256)",
      "arguments": [
        "0xbA65a69d90E2f9337744dfa365EA3D7064444Fe5",
        "100000000"
      ],
      "transaction": {
        "from": "0x66664013474a29e9807d1736b1b1123f63345e22",
        "to": "0x029b1c31f27a5ae6066ca42ed46f18566f0c8502",
        "gas": "0xfa1f",
        "value": "0x0",
        "input": "0x095ea7b3000000000000000000000000ba65a69d90e2f9337744dfa365ea3d7064444fe50000000000000000000000000000000000000000000000000000000005f5e100",
        "nonce": "0x4",
        "chainId": "0x13882"
      },
      "additionalContracts": [],
      "isFixedGasLimit": false
    },
    {
      "hash": "0x629a8d7cd240cfe833299674b327893bd24bb258461fb4c8673614f55544b33d",
      "transactionType": "CALL",
      "contractName": null,
      "contractAddress": "0xba65a69d90e2f9337744dfa365ea3d7064444fe5",
      "function": "buy()",
      "arguments": [],
      "transaction": {
        "from": "0x66664013474a29e9807d1736b1b1123f63345e22",
        "to": "0xba65a69d90e2f9337744dfa365ea3d7064444fe5",
        "gas": "0x26b9b",
        "value": "0x0",
        "input": "0xa6f2ae3a",
        "nonce": "0x5",
        "chainId": "0x13882"
      },
      "additionalContracts": [],
      "isFixedGasLimit": false
    },
    {
      "hash": "0xbf398c82ee4e890cde0dcf953a8e5638f52d885e9b38228d218313859e1f59fe",
      "transactionType": "CALL",
      "contractName": null,
      "contractAddress": "0xba65a69d90e2f9337744dfa365ea3d7064444fe5",
      "function": "buy()",
      "arguments": [],
      "transaction": {
        "from": "0x66664013474a29e9807d1736b1b1123f63345e22",
        "to": "0xba65a69d90e2f9337744dfa365ea3d7064444fe5",
        "gas": "0x15c74",
        "value": "0x0",
        "input": "0xa6f2ae3a",
        "nonce": "0x6",
        "chainId": "0x13882"
      },
      "additionalContracts": [],
      "isFixedGasLimit": false
    }
  ],
  "receipts": [
    {
      "status": "0x1",
      "cumulativeGasUsed": "0x113d8",
      "logs": [
        {
          "address": "0x029b1c31f27a5ae6066ca42ed46f18566f0c8502",
          "topics": [
            "0xddf252ad1be2c89b69c2b068fc378daa952ba7f163c4a11628f55a4df523b3ef",
            "0x0000000000000000000000000000000000000000000000000000000000000000",
            "0x00000000000000000000000066664013474a29e9807d1736b1b1123f63345e22"
          ],
          "data": "0x0000000000000000000000000000000000000000000000000000000005f5e100",
          "blockHash": "0xab252194198f856ca7b7b19426626b0e9362cbf98dc9b45ca2b6e91c699290f5",
          "blockNumber": "0xcbd961",
          "transactionHash": "0x3af7cc65e961e05ad7bf422a418b8a46410c889fff3e14598eb997174f71ee93",
          "transactionIndex": "0x0",
          "logIndex": "0x0",
          "removed": false
        },
        {
          "address": "0x0000000000000000000000000000000000001010",
          "topics": [
            "0x4dfe1bbbcf077ddc3e01291eea2d5c70c2b422b415d95645b9adcfd678cb1d63",
            "0x0000000000000000000000000000000000000000000000000000000000001010",
            "0x00000000000000000000000066664013474a29e9807d1736b1b1123f63345e22",
            "0x000000000000000000000000033aaded92ebfec6c818624f28a8e4b3c571ab6f"
          ],
          "data": "0x00000000000000000000000000000000000000000000000000189ee3580bd62800000000000000000000000000000000000000000000000002472f6148e511720000000000000000000000000000000000000000000000b4173c07d491ae0b7d000000000000000000000000000000000000000000000000022e907df0d93b4a0000000000000000000000000000000000000000000000b41754a6b7e9b9e1a5",
          "blockHash": "0xab252194198f856ca7b7b19426626b0e9362cbf98dc9b45ca2b6e91c699290f5",
          "blockNumber": "0xcbd961",
          "transactionHash": "0x3af7cc65e961e05ad7bf422a418b8a46410c889fff3e14598eb997174f71ee93",
          "transactionIndex": "0x0",
          "logIndex": "0x1",
          "removed": false
        }
      ],
      "logsBloom": "0x00000000000000000000000000000000000000000000000000000000000000000000000000000000080000000000000000008000000000040000000000000000000000000200000000000008000000800000000000000000000100000000000000080000020000000000000000000800000000000000000080000010000000000000010000000000000000000000000000000000000000000000000000000000200000000000000000000000000000000000000000000000000000000000004000000002200000000081000000000000000000000000000000500000000020000000000000000000000000000000000000000000020000000000000000100000",
      "type": "0x2",
      "transactionHash": "0x3af7cc65e961e05ad7bf422a418b8a46410c889fff3e14598eb997174f71ee93",
      "transactionIndex": "0x0",
      "blockHash": "0xab252194198f856ca7b7b19426626b0e9362cbf98dc9b45ca2b6e91c699290f5",
      "blockNumber": "0xcbd961",
      "gasUsed": "0x113d8",
      "effectiveGasPrice": "0x16d977f3ce",
      "from": "0x66664013474a29e9807d1736b1b1123f63345e22",
      "to": "0x029b1c31f27a5ae6066ca42ed46f18566f0c8502",
      "contractAddress": null
    },
    {
      "status": "0x1",
      "cumulativeGasUsed": "0x1c8ee",
      "logs": [
        {
          "address": "0x029b1c31f27a5ae6066ca42ed46f18566f0c8502",
          "topics": [
            "0x8c5be1e5ebec7d5bd14f71427d1e84f3dd0314c0f7b2291e5b200ac8c7c3b925",
            "0x00000000000000000000000066664013474a29e9807d1736b1b1123f63345e22",
            "0x000000000000000000000000ba65a69d90e2f9337744dfa365ea3d7064444fe5"
          ],
          "data": "0x0000000000000000000000000000000000000000000000000000000005f5e100",
          "blockHash": "0xab252194198f856ca7b7b19426626b0e9362cbf98dc9b45ca2b6e91c699290f5",
          "blockNumber": "0xcbd961",
          "transactionHash": "0xbf6e91e6faaba3986649fde45680d5e85f9a977e035b4cf7e2025fa2ca311e76",
          "transactionIndex": "0x1",
          "logIndex": "0x2",
          "removed": false
        },
        {
          "address": "0x0000000000000000000000000000000000001010",
          "topics": [
            "0x4dfe1bbbcf077ddc3e01291eea2d5c70c2b422b415d95645b9adcfd678cb1d63",
            "0x0000000000000000000000000000000000000000000000000000000000001010",
            "0x00000000000000000000000066664013474a29e9807d1736b1b1123f63345e22",
            "0x000000000000000000000000033aaded92ebfec6c818624f28a8e4b3c571ab6f"
          ],
          "data": "0x000000000000000000000000000000000000000000000000001029b87fa4fd6a000000000000000000000000000000000000000000000000022e907df0c911a20000000000000000000000000000000000000000000000b41754a6b7e9b9e1a5000000000000000000000000000000000000000000000000021e66c5712414380000000000000000000000000000000000000000000000b41764d070695edf0f",
          "blockHash": "0xab252194198f856ca7b7b19426626b0e9362cbf98dc9b45ca2b6e91c699290f5",
          "blockNumber": "0xcbd961",
          "transactionHash": "0xbf6e91e6faaba3986649fde45680d5e85f9a977e035b4cf7e2025fa2ca311e76",
          "transactionIndex": "0x1",
          "logIndex": "0x3",
          "removed": false
        }
      ],
      "logsBloom": "0x00000000000000000000000000000000000000000000000000000000000000000000000000000000080000000000000000008000000000040000000000200000000000000200000000000000000000800000000000000000000100000000000000080000000000000000000000000000000000000001000080000000000000000000010000000000000000000000000000000000000000000000000000000000220000000000000000000000000000000000000000000000000000020000004000000000200000000081000000000000000000000000000000580000000000000010000000000000000000000000000000000000020000000000000000100000",
      "type": "0x2",
      "transactionHash": "0xbf6e91e6faaba3986649fde45680d5e85f9a977e035b4cf7e2025fa2ca311e76",
      "transactionIndex": "0x1",
      "blockHash": "0xab252194198f856ca7b7b19426626b0e9362cbf98dc9b45ca2b6e91c699290f5",
      "blockNumber": "0xcbd961",
      "gasUsed": "0xb516",
      "effectiveGasPrice": "0x16d977f3ce",
      "from": "0x66664013474a29e9807d1736b1b1123f63345e22",
      "to": "0x029b1c31f27a5ae6066ca42ed46f18566f0c8502",
      "contractAddress": null
    },
    {
      "status": "0x1",
      "cumulativeGasUsed": "0x38984",
      "logs": [
        {
          "address": "0x029b1c31f27a5ae6066ca42ed46f18566f0c8502",
          "topics": [
            "0xddf252ad1be2c89b69c2b068fc378daa952ba7f163c4a11628f55a4df523b3ef",
            "0x00000000000000000000000066664013474a29e9807d1736b1b1123f63345e22",
            "0x000000000000000000000000ba65a69d90e2f9337744dfa365ea3d7064444fe5"
          ],
          "data": "0x00000000000000000000000000000000000000000000000000000000002dc6c0",
          "blockHash": "0xab252194198f856ca7b7b19426626b0e9362cbf98dc9b45ca2b6e91c699290f5",
          "blockNumber": "0xcbd961",
          "transactionHash": "0x629a8d7cd240cfe833299674b327893bd24bb258461fb4c8673614f55544b33d",
          "transactionIndex": "0x2",
          "logIndex": "0x4",
          "removed": false
        },
        {
          "address": "0xba65a69d90e2f9337744dfa365ea3d7064444fe5",
          "topics": [
            "0x12cb4648cf3058b17ceeb33e579f8b0bc269fe0843f3900b8e24b6c54871703c"
          ],
          "data": "0x00000000000000000000000066664013474a29e9807d1736b1b1123f63345e220000000000000000000000000000000000000000000000000000000000cbd96100000000000000000000000000000000000000000000000000000000002dc6c0",
          "blockHash": "0xab252194198f856ca7b7b19426626b0e9362cbf98dc9b45ca2b6e91c699290f5",
          "blockNumber": "0xcbd961",
          "transactionHash": "0x629a8d7cd240cfe833299674b327893bd24bb258461fb4c8673614f55544b33d",
          "transactionIndex": "0x2",
          "logIndex": "0x5",
          "removed": false
        },
        {
          "address": "0x0000000000000000000000000000000000001010",
          "topics": [
            "0x4dfe1bbbcf077ddc3e01291eea2d5c70c2b422b415d95645b9adcfd678cb1d63",
            "0x0000000000000000000000000000000000000000000000000000000000001010",
            "0x00000000000000000000000066664013474a29e9807d1736b1b1123f63345e22",
            "0x000000000000000000000000033aaded92ebfec6c818624f28a8e4b3c571ab6f"
          ],
          "data": "0x000000000000000000000000000000000000000000000000002809f556d711ea000000000000000000000000000000000000000000000000021e66c5711977ee0000000000000000000000000000000000000000000000b41764d070695edf0f00000000000000000000000000000000000000000000000001f65cd01a4266040000000000000000000000000000000000000000000000b4178cda65c035f0f9",
          "blockHash": "0xab252194198f856ca7b7b19426626b0e9362cbf98dc9b45ca2b6e91c699290f5",
          "blockNumber": "0xcbd961",
          "transactionHash": "0x629a8d7cd240cfe833299674b327893bd24bb258461fb4c8673614f55544b33d",
          "transactionIndex": "0x2",
          "logIndex": "0x6",
          "removed": false
        }
      ],
      "logsBloom": "0x00000000000000000000000000000000000000000000000000000000000000000000000000000000084000000000000000008000000000040000000000000000000000000200000000000008000000800000000000000000000100000000000000080000000000000000000000000000000000000001000080000010000000000000010005000000000000000000000000000200000000040000000000000000200000000000000000000000000000000000000000000000000000020000004000000002202000000081000000000000000000000000000000580000000000000000000000000000000000000000000000000000020000000000000000100000",
      "type": "0x2",
      "transactionHash": "0x629a8d7cd240cfe833299674b327893bd24bb258461fb4c8673614f55544b33d",
      "transactionIndex": "0x2",
      "blockHash": "0xab252194198f856ca7b7b19426626b0e9362cbf98dc9b45ca2b6e91c699290f5",
      "blockNumber": "0xcbd961",
      "gasUsed": "0x1c096",
      "effectiveGasPrice": "0x16d977f3ce",
      "from": "0x66664013474a29e9807d1736b1b1123f63345e22",
      "to": "0xba65a69d90e2f9337744dfa365ea3d7064444fe5",
      "contractAddress": null
    },
    {
      "status": "0x1",
      "cumulativeGasUsed": "0x477c7",
      "logs": [
        {
          "address": "0x029b1c31f27a5ae6066ca42ed46f18566f0c8502",
          "topics": [
            "0xddf252ad1be2c89b69c2b068fc378daa952ba7f163c4a11628f55a4df523b3ef",
            "0x00000000000000000000000066664013474a29e9807d1736b1b1123f63345e22",
            "0x000000000000000000000000ba65a69d90e2f9337744dfa365ea3d7064444fe5"
          ],
          "data": "0x00000000000000000000000000000000000000000000000000000000003567e0",
          "blockHash": "0xab252194198f856ca7b7b19426626b0e9362cbf98dc9b45ca2b6e91c699290f5",
          "blockNumber": "0xcbd961",
          "transactionHash": "0xbf398c82ee4e890cde0dcf953a8e5638f52d885e9b38228d218313859e1f59fe",
          "transactionIndex": "0x3",
          "logIndex": "0x7",
          "removed": false
        },
        {
          "address": "0xba65a69d90e2f9337744dfa365ea3d7064444fe5",
          "topics": [
            "0x12cb4648cf3058b17ceeb33e579f8b0bc269fe0843f3900b8e24b6c54871703c"
          ],
          "data": "0x00000000000000000000000066664013474a29e9807d1736b1b1123f63345e220000000000000000000000000000000000000000000000000000000000cbd96100000000000000000000000000000000000000000000000000000000003567e0",
          "blockHash": "0xab252194198f856ca7b7b19426626b0e9362cbf98dc9b45ca2b6e91c699290f5",
          "blockNumber": "0xcbd961",
          "transactionHash": "0xbf398c82ee4e890cde0dcf953a8e5638f52d885e9b38228d218313859e1f59fe",
          "transactionIndex": "0x3",
          "logIndex": "0x8",
          "removed": false
        },
        {
          "address": "0x0000000000000000000000000000000000001010",
          "topics": [
            "0x4dfe1bbbcf077ddc3e01291eea2d5c70c2b422b415d95645b9adcfd678cb1d63",
            "0x0000000000000000000000000000000000000000000000000000000000001010",
            "0x00000000000000000000000066664013474a29e9807d1736b1b1123f63345e22",
            "0x000000000000000000000000033aaded92ebfec6c818624f28a8e4b3c571ab6f"
          ],
          "data": "0x000000000000000000000000000000000000000000000000001544286f005cfd00000000000000000000000000000000000000000000000001f65cd01a281d3a0000000000000000000000000000000000000000000000b4178cda65c035f0f900000000000000000000000000000000000000000000000001e118a7ab27c03d0000000000000000000000000000000000000000000000b417a21e8e2f364df6",
          "blockHash": "0xab252194198f856ca7b7b19426626b0e9362cbf98dc9b45ca2b6e91c699290f5",
          "blockNumber": "0xcbd961",
          "transactionHash": "0xbf398c82ee4e890cde0dcf953a8e5638f52d885e9b38228d218313859e1f59fe",
          "transactionIndex": "0x3",
          "logIndex": "0x9",
          "removed": false
        }
      ],
      "logsBloom": "0x00000000000000000000000000000000000000000000000000000000000000000000000000000000084000000000000000008000000000040000000000000000000000000200000000000008000000800000000000000000000100000000000000080000000000000000000000000000000000000001000080000010000000000000010005000000000000000000000000000200000000040000000000000000200000000000000000000000000000000000000000000000000000020000004000000002202000000081000000000000000000000000000000580000000000000000000000000000000000000000000000000000020000000000000000100000",
      "type": "0x2",
      "transactionHash": "0xbf398c82ee4e890cde0dcf953a8e5638f52d885e9b38228d218313859e1f59fe",
      "transactionIndex": "0x3",
      "blockHash": "0xab252194198f856ca7b7b19426626b0e9362cbf98dc9b45ca2b6e91c699290f5",
      "blockNumber": "0xcbd961",
      "gasUsed": "0xee43",
      "effectiveGasPrice": "0x16d977f3ce",
      "from": "0x66664013474a29e9807d1736b1b1123f63345e22",
      "to": "0xba65a69d90e2f9337744dfa365ea3d7064444fe5",
      "contractAddress": null
    }
  ],
  "libraries": [],
  "pending": [],
  "returns": {},
  "timestamp": 1729334584,
  "chain": 80002,
  "commit": "1e7d3ea"
}