{
  "transactions": [
    {
      "hash": "0x78151448edb1015d102c857ada7f2f9aca8fcda143c160485c48c9e40e79f11c",
      "transactionType": "CALL",
      "contractName": null,
      "contractAddress": "0x6d2063d32efacbb20b27cfe1f8683747201d3867",
      "function": "transferOwnership(address)",
      "arguments": [
        "0xeaDf4F13aeE8A2fe5feAE57dBC92CbE26b2671b1"
      ],
      "transaction": {
        "from": "0x66664013474a29e9807d1736b1b1123f63345e22",
        "to": "0x6d2063d32efacbb20b27cfe1f8683747201d3867",
        "gas": "0x9a97",
        "value": "0x0",
        "input": "0xf2fde38b000000000000000000000000eadf4f13aee8a2fe5feae57dbc92cbe26b2671b1",
        "nonce": "0x34",
        "chainId": "0x13882"
      },
      "additionalContracts": [],
      "isFixedGasLimit": false
    }
  ],
  "receipts": [
    {
      "status": "0x1",
      "cumulativeGasUsed": "0xe675",
      "logs": [
        {
          "address": "0x6d2063d32efacbb20b27cfe1f8683747201d3867",
          "topics": [
            "0x8be0079c531659141344cd1fd0a4f28419497f9722a3daafe3b4186f6b6457e0",
            "0x00000000000000000000000066664013474a29e9807d1736b1b1123f63345e22",
            "0x000000000000000000000000eadf4f13aee8a2fe5feae57dbc92cbe26b2671b1"
          ],
          "data": "0x",
          "blockHash": "0x2bfc1f40f4f1c4ac1b33456792a1c749af10957cfa700640469c1048b3a1f0c9",
          "blockNumber": "0xcc78de",
          "transactionHash": "0x78151448edb1015d102c857ada7f2f9aca8fcda143c160485c48c9e40e79f11c",
          "transactionIndex": "0x1",
          "logIndex": "0x1",
          "removed": false
        },
        {
          "address": "0x0000000000000000000000000000000000001010",
          "topics": [
            "0x4dfe1bbbcf077ddc3e01291eea2d5c70c2b422b415d95645b9adcfd678cb1d63",
            "0x0000000000000000000000000000000000000000000000000000000000001010",
            "0x00000000000000000000000066664013474a29e9807d1736b1b1123f63345e22",
            "0x0000000000000000000000004ad84f7014b7b44f723f284a85b1662337971439"
          ],
          "data": "0x00000000000000000000000000000000000000000000000000040e6a7c08187d0000000000000000000000000000000000000000000000000c5be77b29673fbd00000000000000000000000000000000000000000000036588cb47024e6a80890000000000000000000000000000000000000000000000000c57d910ad5f274000000000000000000000000000000000000000000000036588cf556cca729906",
          "blockHash": "0x2bfc1f40f4f1c4ac1b33456792a1c749af10957cfa700640469c1048b3a1f0c9",
          "blockNumber": "0xcc78de",
          "transactionHash": "0x78151448edb1015d102c857ada7f2f9aca8fcda143c160485c48c9e40e79f11c",
          "transactionIndex": "0x1",
          "logIndex": "0x2",
          "removed": false
        }
      ],
      "logsBloom": "0x00000000000020000000000000000000000000000000000000800000000000000000000000000000000000000000000000008000000000040000000000400000000000000200000000000000000000a00001000000000000000101001000000000000000000008000000000000000000000000000000000080000000000000400000000000000000000000000000000000000000000000000000000000000000200000000000000000000000000000000000000000000000000000000000004000000000000000000081000004000008000000000000000000100000000000000000000000000000000000000000008000000000000000000000000000100000",
      "type": "0x2",
      "transactionHash": "0x78151448edb1015d102c857ada7f2f9aca8fcda143c160485c48c9e40e79f11c",
      "transactionIndex": "0x1",
      "blockHash": "0x2bfc1f40f4f1c4ac1b33456792a1c749af10957cfa700640469c1048b3a1f0c9",
      "blockNumber": "0xcc78de",
      "gasUsed": "0x6fed",
      "effectiveGasPrice": "0x9471898e0",
      "from": "0x66664013474a29e9807d1736b1b1123f63345e22",
      "to": "0x6d2063d32efacbb20b27cfe1f8683747201d3867",
      "contractAddress": null
    }
  ],
  "libraries": [],
  "pending": [],
  "returns": {},
  "timestamp": 1729421351,
  "chain": 80002,
  "commit": "d3f87d9"
}