{
  "transactions": [
    {
      "hash": "0xe70a0d5cd3bde012633bb92455af8ad359c2ff3e286a7592d227815eac5bc48f",
      "transactionType": "CALL",
      "contractName": null,
      "contractAddress": "0x029b1c31f27a5ae6066ca42ed46f18566f0c8502",
      "function": "mint(address,uint256)",
      "arguments": [
        "0x66664013474a29e9807D1736B1B1123F63345e22",
        "10000000000"
      ],
      "transaction": {
        "from": "0x66664013474a29e9807d1736b1b1123f63345e22",
        "to": "0x029b1c31f27a5ae6066ca42ed46f18566f0c8502",
        "gas": "0xc48b",
        "value": "0x0",
        "input": "0x40c10f1900000000000000000000000066664013474a29e9807d1736b1b1123f63345e2200000000000000000000000000000000000000000000000000000002540be400",
        "nonce": "0x5",
        "chainId": "0x221"
      },
      "additionalContracts": [],
      "isFixedGasLimit": false
    },
    {
      "hash": null,
      "transactionType": "CALL",
      "contractName": null,
      "contractAddress": "0x029b1c31f27a5ae6066ca42ed46f18566f0c8502",
      "function": "approve(address,uint256)",
      "arguments": [
        "0xbA65a69d90E2f9337744dfa365EA3D7064444Fe5",
        "1000000000"
      ],
      "transaction": {
        "from": "0x66664013474a29e9807d1736b1b1123f63345e22",
        "to": "0x029b1c31f27a5ae6066ca42ed46f18566f0c8502",
        "gas": "0x9726",
        "value": "0x0",
        "input": "0x095ea7b3000000000000000000000000ba65a69d90e2f9337744dfa365ea3d7064444fe5000000000000000000000000000000000000000000000000000000003b9aca00",
        "nonce": "0x6",
        "chainId": "0x221"
      },
      "additionalContracts": [],
      "isFixedGasLimit": false
    },
    {
      "hash": null,
      "transactionType": "CALL",
      "contractName": null,
      "contractAddress": "0xba65a69d90e2f9337744dfa365ea3d7064444fe5",
      "function": "buy()",
      "arguments": [],
      "transaction": {
        "from": "0x66664013474a29e9807d1736b1b1123f63345e22",
        "to": "0xba65a69d90e2f9337744dfa365ea3d7064444fe5",
        "gas": "0x3c491",
        "value": "0x0",
        "input": "0xa6f2ae3a",
        "nonce": "0x7",
        "chainId": "0x221"
      },
      "additionalContracts": [],
      "isFixedGasLimit": false
    },
    {
      "hash": null,
      "transactionType": "CALL",
      "contractName": null,
      "contractAddress": "0xba65a69d90e2f9337744dfa365ea3d7064444fe5",
      "function": "buy()",
      "arguments": [],
      "transaction": {
        "from": "0x66664013474a29e9807d1736b1b1123f63345e22",
        "to": "0xba65a69d90e2f9337744dfa365ea3d7064444fe5",
        "gas": "0x1b3f1",
        "value": "0x0",
        "input": "0xa6f2ae3a",
        "nonce": "0x8",
        "chainId": "0x221"
      },
      "additionalContracts": [],
      "isFixedGasLimit": false
    },
    {
      "hash": null,
      "transactionType": "CALL",
      "contractName": null,
      "contractAddress": "0xba65a69d90e2f9337744dfa365ea3d7064444fe5",
      "function": "buy()",
      "arguments": [],
      "transaction": {
        "from": "0x66664013474a29e9807d1736b1b1123f63345e22",
        "to": "0xba65a69d90e2f9337744dfa365ea3d7064444fe5",
        "gas": "0x1b3f1",
        "value": "0x0",
        "input": "0xa6f2ae3a",
        "nonce": "0x9",
        "chainId": "0x221"
      },
      "additionalContracts": [],
      "isFixedGasLimit": false
    },
    {
      "hash": null,
      "transactionType": "CALL",
      "contractName": null,
      "contractAddress": "0xba65a69d90e2f9337744dfa365ea3d7064444fe5",
      "function": "buy()",
      "arguments": [],
      "transaction": {
        "from": "0x66664013474a29e9807d1736b1b1123f63345e22",
        "to": "0xba65a69d90e2f9337744dfa365ea3d7064444fe5",
        "gas": "0x1b3f1",
        "value": "0x0",
        "input": "0xa6f2ae3a",
        "nonce": "0xa",
        "chainId": "0x221"
      },
      "additionalContracts": [],
      "isFixedGasLimit": false
    },
    {
      "hash": null,
      "transactionType": "CALL",
      "contractName": null,
      "contractAddress": "0xba65a69d90e2f9337744dfa365ea3d7064444fe5",
      "function": "buy()",
      "arguments": [],
      "transaction": {
        "from": "0x66664013474a29e9807d1736b1b1123f63345e22",
        "to": "0xba65a69d90e2f9337744dfa365ea3d7064444fe5",
        "gas": "0x1b3f1",
        "value": "0x0",
        "input": "0xa6f2ae3a",
        "nonce": "0xb",
        "chainId": "0x221"
      },
      "additionalContracts": [],
      "isFixedGasLimit": false
    }
  ],
  "receipts": [],
  "libraries": [],
  "pending": [
    "0xe70a0d5cd3bde012633bb92455af8ad359c2ff3e286a7592d227815eac5bc48f"
  ],
  "returns": {},
  "timestamp": 1729400210,
  "chain": 545,
  "commit": "2af46e2"
}