{
  "transactions": [
    {
      "hash": "0x18aa5ad2d36603d784b1d898d00676b41bc62de993c85d6aeb9e125a3209946c",
      "transactionType": "CALL",
      "contractName": null,
      "contractAddress": "0x029b1c31f27a5ae6066ca42ed46f18566f0c8502",
      "function": "mint(address,uint256)",
      "arguments": [
        "0x66664013474a29e9807D1736B1B1123F63345e22",
        "10000000000"
      ],
      "transaction": {
        "from": "0x66664013474a29e9807d1736b1b1123f63345e22",
        "to": "0x029b1c31f27a5ae6066ca42ed46f18566f0c8502",
        "gas": "0xc48b",
        "value": "0x0",
        "input": "0x40c10f1900000000000000000000000066664013474a29e9807d1736b1b1123f63345e2200000000000000000000000000000000000000000000000000000002540be400",
        "nonce": "0x9",
        "chainId": "0x221"
      },
      "additionalContracts": [],
      "isFixedGasLimit": false
    },
    {
      "hash": "0xe03823df5d2b7e8684a6b73d4c678e483e0f785745f1e2882ed985e2f6c1fe8d",
      "transactionType": "CALL",
      "contractName": null,
      "contractAddress": "0x029b1c31f27a5ae6066ca42ed46f18566f0c8502",
      "function": "approve(address,uint256)",
      "arguments": [
        "0xbA65a69d90E2f9337744dfa365EA3D7064444Fe5",
        "1000000000"
      ],
      "transaction": {
        "from": "0x66664013474a29e9807d1736b1b1123f63345e22",
        "to": "0x029b1c31f27a5ae6066ca42ed46f18566f0c8502",
        "gas": "0x9726",
        "value": "0x0",
        "input": "0x095ea7b3000000000000000000000000ba65a69d90e2f9337744dfa365ea3d7064444fe5000000000000000000000000000000000000000000000000000000003b9aca00",
        "nonce": "0xa",
        "chainId": "0x221"
      },
      "additionalContracts": [],
      "isFixedGasLimit": false
    }
  ],
  "receipts": [
    {
      "status": "0x1",
      "cumulativeGasUsed": "0x8e4c",
      "logs": [
        {
          "address": "0x029b1c31f27a5ae6066ca42ed46f18566f0c8502",
          "topics": [
            "0xddf252ad1be2c89b69c2b068fc378daa952ba7f163c4a11628f55a4df523b3ef",
            "0x0000000000000000000000000000000000000000000000000000000000000000",
            "0x00000000000000000000000066664013474a29e9807d1736b1b1123f63345e22"
          ],
          "data": "0x00000000000000000000000000000000000000000000000000000002540be400",
          "blockHash": "0x58fef25223d5e374ad580d50d05683c9143919c9e1c0593d367fffc87c3780c6",
          "blockNumber": "0xae2fd0",
          "transactionHash": "0x18aa5ad2d36603d784b1d898d00676b41bc62de993c85d6aeb9e125a3209946c",
          "transactionIndex": "0x0",
          "logIndex": "0x0",
          "removed": false
        }
      ],
      "logsBloom": "0x00000000000000000000000000000000000000000000000000000000000000000000000000000000080000000000000000000000000000040000000000000000000000000200000000000008000000000000000000000000000000000000000000000000020000000000000000000800000000000000000000000010000000000000000000000000000000000000000000000000000000000000000000000000000000000000000000000000000000000000000000000000000000000000000000000002200000000080000000000000000000000000000000000000000020000000000000000000000000000000000000000000020000000000000000000000",
      "type": "0x2",
      "transactionHash": "0x18aa5ad2d36603d784b1d898d00676b41bc62de993c85d6aeb9e125a3209946c",
      "transactionIndex": "0x0",
      "blockHash": "0x58fef25223d5e374ad580d50d05683c9143919c9e1c0593d367fffc87c3780c6",
      "blockNumber": "0xae2fd0",
      "gasUsed": "0x8e4c",
      "effectiveGasPrice": "0x5f5e100",
      "from": "0x66664013474a29e9807d1736b1b1123f63345e22",
      "to": "0x029b1c31f27a5ae6066ca42ed46f18566f0c8502",
      "contractAddress": null
    },
    {
      "status": "0x1",
      "cumulativeGasUsed": "0x147ae",
      "logs": [
        {
          "address": "0x029b1c31f27a5ae6066ca42ed46f18566f0c8502",
          "topics": [
            "0x8c5be1e5ebec7d5bd14f71427d1e84f3dd0314c0f7b2291e5b200ac8c7c3b925",
            "0x00000000000000000000000066664013474a29e9807d1736b1b1123f63345e22",
            "0x000000000000000000000000ba65a69d90e2f9337744dfa365ea3d7064444fe5"
          ],
          "data": "0x000000000000000000000000000000000000000000000000000000003b9aca00",
          "blockHash": "0x58fef25223d5e374ad580d50d05683c9143919c9e1c0593d367fffc87c3780c6",
          "blockNumber": "0xae2fd0",
          "transactionHash": "0xe03823df5d2b7e8684a6b73d4c678e483e0f785745f1e2882ed985e2f6c1fe8d",
          "transactionIndex": "0x2",
          "logIndex": "0x1",
          "removed": false
        }
      ],
      "logsBloom": "0x00000000000000000000000000000000000000000000000000000000000000000000000000000000080000000000000000000000000000040000000000200000000000000200000000000000000000000000000000000000000000000000000000000000000000000000000000000000000000000001000000000000000000000000000000000000000000000000000000000000000000000000000000000000020000000000000000000000000000000000000000000000000000020000000000000000200000000080000000000000000000000000000000080000000000000010000000000000000000000000000000000000020000000000000000000000",
      "type": "0x2",
      "transactionHash": "0xe03823df5d2b7e8684a6b73d4c678e483e0f785745f1e2882ed985e2f6c1fe8d",
      "transactionIndex": "0x2",
      "blockHash": "0x58fef25223d5e374ad580d50d05683c9143919c9e1c0593d367fffc87c3780c6",
      "blockNumber": "0xae2fd0",
      "gasUsed": "0x675a",
      "effectiveGasPrice": "0x5f5e100",
      "from": "0x66664013474a29e9807d1736b1b1123f63345e22",
      "to": "0x029b1c31f27a5ae6066ca42ed46f18566f0c8502",
      "contractAddress": null
    }
  ],
  "libraries": [],
  "pending": [],
  "returns": {},
  "timestamp": 1729400527,
  "chain": 545,
  "commit": "2af46e2"
}