{
  "transactions": [
    {
      "hash": "0xfd1f8d6dc4e7e8f1d9ad143c81ad51ac293bd026288d89a62935da347e764bd1",
      "transactionType": "CALL",
      "contractName": null,
      "contractAddress": "0x029b1c31f27a5ae6066ca42ed46f18566f0c8502",
      "function": "setAddr(bytes32,address)",
      "arguments": [
        "0x87c2d362de99f75a4f2755cdaaad2d11bf6cc65dc71356593c445535ff28f43d",
        "0x0000000000000000000000000000000000001337"
      ],
      "transaction": {
        "from": "0x66664013474a29e9807d1736b1b1123f63345e22",
        "to": "0x029b1c31f27a5ae6066ca42ed46f18566f0c8502",
        "gas": "0x92f3",
        "value": "0x0",
        "input": "0xd5fa2b0087c2d362de99f75a4f2755cdaaad2d11bf6cc65dc71356593c445535ff28f43d0000000000000000000000000000000000000000000000000000000000001337",
        "nonce": "0x3",
        "chainId": "0xaa36a7"
      },
      "additionalContracts": [],
      "isFixedGasLimit": false
    }
  ],
  "receipts": [
    {
      "status": "0x1",
      "cumulativeGasUsed": "0x670fd9",
      "logs": [
        {
          "address": "0x029b1c31f27a5ae6066ca42ed46f18566f0c8502",
          "topics": [
            "0xce9745511e6b32283e684acf17f26ee2c5d221bf65c95e61c3d6fcfa446462d0"
          ],
          "data": "0x87c2d362de99f75a4f2755cdaaad2d11bf6cc65dc71356593c445535ff28f43d0000000000000000000000000000000000000000000000000000000000001337",
          "blockHash": "0x8322a1427f4619fa28bc291d09f8f26e7479edba6e3a90e143f6518d3f07d015",
          "blockNumber": "0x69600a",
          "transactionHash": "0xfd1f8d6dc4e7e8f1d9ad143c81ad51ac293bd026288d89a62935da347e764bd1",
          "transactionIndex": "0x39",
          "logIndex": "0x54",
          "removed": false
        }
      ],
      "logsBloom": "0x00000000000000000000000000000000000000000000000000000000000000000000000000000000080000000000000000000000000000000000000000000000000000000000000000000000000000000000000000000000000000000000000000000000000000000000000000000000000000000000000000000000000000000000000000000000000000200000000000000080000000000000000000000000000000000000000000000000000000000000000000000000000000000000000000000000200000000000000000000000000000000000000000000000000000000000000000000000000040000000000000000000020000000000000000000000",
      "type": "0x2",
      "transactionHash": "0xfd1f8d6dc4e7e8f1d9ad143c81ad51ac293bd026288d89a62935da347e764bd1",
      "transactionIndex": "0x39",
      "blockHash": "0x8322a1427f4619fa28bc291d09f8f26e7479edba6e3a90e143f6518d3f07d015",
      "blockNumber": "0x69600a",
      "gasUsed": "0x647b",
      "effectiveGasPrice": "0x11f45529",
      "from": "0x66664013474a29e9807d1736b1b1123f63345e22",
      "to": "0x029b1c31f27a5ae6066ca42ed46f18566f0c8502",
      "contractAddress": null
    }
  ],
  "libraries": [],
  "pending": [],
  "returns": {},
  "timestamp": 1729364953,
  "chain": 11155111,
  "commit": "b0cf2ab"
}