{
  "transactions": [
    {
      "hash": "0x2b0437423a13829337d8a7973fc6872c48d2d40515d0b034211d5cb5915c89ef",
      "transactionType": "CALL",
      "contractName": null,
      "contractAddress": "0x029b1c31f27a5ae6066ca42ed46f18566f0c8502",
      "function": "setAddr(bytes32,address)",
      "arguments": [
        "0x5620a2945a4986ded54137584d942027837a496d10d2884b4284deceb08790c4",
        "0x0000000000000000000000000000000000001337"
      ],
      "transaction": {
        "from": "0x66664013474a29e9807d1736b1b1123f63345e22",
        "to": "0x029b1c31f27a5ae6066ca42ed46f18566f0c8502",
        "gas": "0xf628",
        "value": "0x0",
        "input": "0xd5fa2b005620a2945a4986ded54137584d942027837a496d10d2884b4284deceb08790c40000000000000000000000000000000000000000000000000000000000001337",
        "nonce": "0x1",
        "chainId": "0xaa36a7"
      },
      "additionalContracts": [],
      "isFixedGasLimit": false
    }
  ],
  "receipts": [
    {
      "status": "0x1",
      "cumulativeGasUsed": "0x5786ef",
      "logs": [
        {
          "address": "0x029b1c31f27a5ae6066ca42ed46f18566f0c8502",
          "topics": [
            "0xce9745511e6b32283e684acf17f26ee2c5d221bf65c95e61c3d6fcfa446462d0"
          ],
          "data": "0x5620a2945a4986ded54137584d942027837a496d10d2884b4284deceb08790c40000000000000000000000000000000000000000000000000000000000001337",
          "blockHash": "0x18145bc3228119d90baf803969e9962dcdb5e019ebb1b8960f3241f4c0adec5c",
          "blockNumber": "0x695fb3",
          "transactionHash": "0x2b0437423a13829337d8a7973fc6872c48d2d40515d0b034211d5cb5915c89ef",
          "transactionIndex": "0x2b",
          "logIndex": "0x4b",
          "removed": false
        }
      ],
      "logsBloom": "0x00000000000000000000000000000000000000000000000000000000000000000000000000000000080000000000000000000000000000000000000000000000000000000000000000000000000000000000000000000000000000000000000000000000000000000000000000000000000000000000000000000000000000000000000000000000000000200000000000000080000000000000000000000000000000000000000000000000000000000000000000000000000000000000000000000000200000000000000000000000000000000000000000000000000000000000000000000000000040000000000000000000020000000000000000000000",
      "type": "0x2",
      "transactionHash": "0x2b0437423a13829337d8a7973fc6872c48d2d40515d0b034211d5cb5915c89ef",
      "transactionIndex": "0x2b",
      "blockHash": "0x18145bc3228119d90baf803969e9962dcdb5e019ebb1b8960f3241f4c0adec5c",
      "blockNumber": "0x695fb3",
      "gasUsed": "0xb237",
      "effectiveGasPrice": "0x33d87a61",
      "from": "0x66664013474a29e9807d1736b1b1123f63345e22",
      "to": "0x029b1c31f27a5ae6066ca42ed46f18566f0c8502",
      "contractAddress": null
    }
  ],
  "libraries": [],
  "pending": [],
  "returns": {},
  "timestamp": 1729363721,
  "chain": 11155111,
  "commit": "b0cf2ab"
}