{
  "transactions": [
    {
      "hash": "0xd5de5bb31fc2b0f4be7f6a5611361a18da6fcfbe5dc32314f08cf78f2214d543",
      "transactionType": "CALL",
      "contractName": null,
      "contractAddress": "0x029b1c31f27a5ae6066ca42ed46f18566f0c8502",
      "function": "setAddr(bytes32,address)",
      "arguments": [
        "0x18cc811d5b90c905ef1036c524afd8c3963d1d97db0ba1009bf0883f53177c12",
        "0x0000000000000000000000000000000000001337"
      ],
      "transaction": {
        "from": "0x66664013474a29e9807d1736b1b1123f63345e22",
        "to": "0x029b1c31f27a5ae6066ca42ed46f18566f0c8502",
        "gas": "0x10491",
        "value": "0x0",
        "input": "0xd5fa2b0018cc811d5b90c905ef1036c524afd8c3963d1d97db0ba1009bf0883f53177c120000000000000000000000000000000000000000000000000000000000001337",
        "nonce": "0x4",
        "chainId": "0xaa36a7"
      },
      "additionalContracts": [],
      "isFixedGasLimit": false
    }
  ],
  "receipts": [
    {
      "status": "0x1",
      "cumulativeGasUsed": "0xd5130d",
      "logs": [
        {
          "address": "0x029b1c31f27a5ae6066ca42ed46f18566f0c8502",
          "topics": [
            "0xce9745511e6b32283e684acf17f26ee2c5d221bf65c95e61c3d6fcfa446462d0"
          ],
          "data": "0x18cc811d5b90c905ef1036c524afd8c3963d1d97db0ba1009bf0883f53177c120000000000000000000000000000000000000000000000000000000000001337",
          "blockHash": "0x55207f004e8dccc00a8604d013b0ebf7b96cc42994f22d894bd85f7d5b0eb742",
          "blockNumber": "0x69600b",
          "transactionHash": "0xd5de5bb31fc2b0f4be7f6a5611361a18da6fcfbe5dc32314f08cf78f2214d543",
          "transactionIndex": "0x54",
          "logIndex": "0x96",
          "removed": false
        }
      ],
      "logsBloom": "0x00000000000000000000000000000000000000000000000000000000000000000000000000000000080000000000000000000000000000000000000000000000000000000000000000000000000000000000000000000000000000000000000000000000000000000000000000000000000000000000000000000000000000000000000000000000000000200000000000000080000000000000000000000000000000000000000000000000000000000000000000000000000000000000000000000000200000000000000000000000000000000000000000000000000000000000000000000000000040000000000000000000020000000000000000000000",
      "type": "0x2",
      "transactionHash": "0xd5de5bb31fc2b0f4be7f6a5611361a18da6fcfbe5dc32314f08cf78f2214d543",
      "transactionIndex": "0x54",
      "blockHash": "0x55207f004e8dccc00a8604d013b0ebf7b96cc42994f22d894bd85f7d5b0eb742",
      "blockNumber": "0x69600b",
      "gasUsed": "0xb22b",
      "effectiveGasPrice": "0x118b05b0",
      "from": "0x66664013474a29e9807d1736b1b1123f63345e22",
      "to": "0x029b1c31f27a5ae6066ca42ed46f18566f0c8502",
      "contractAddress": null
    }
  ],
  "libraries": [],
  "pending": [],
  "returns": {},
  "timestamp": 1729364994,
  "chain": 11155111,
  "commit": "b0cf2ab"
}