{
  "transactions": [
    {
      "hash": "0x2285835a7892174674b37d51c03c24778fe7b2e6304421b74f786afb1cf739e9",
      "transactionType": "CALL",
      "contractName": null,
      "contractAddress": "0x029b1c31f27a5ae6066ca42ed46f18566f0c8502",
      "function": "setAddr(bytes32,address)",
      "arguments": [
        "0x87c2d362de99f75a4f2755cdaaad2d11bf6cc65dc71356593c445535ff28f43d",
        "0x0000000000000000000000000000000000001337"
      ],
      "transaction": {
        "from": "0x66664013474a29e9807d1736b1b1123f63345e22",
        "to": "0x029b1c31f27a5ae6066ca42ed46f18566f0c8502",
        "gas": "0xf628",
        "value": "0x0",
        "input": "0xd5fa2b0087c2d362de99f75a4f2755cdaaad2d11bf6cc65dc71356593c445535ff28f43d0000000000000000000000000000000000000000000000000000000000001337",
        "nonce": "0x2",
        "chainId": "0xaa36a7"
      },
      "additionalContracts": [],
      "isFixedGasLimit": false
    }
  ],
  "receipts": [
    {
      "status": "0x1",
      "cumulativeGasUsed": "0xbee685",
      "logs": [
        {
          "address": "0x029b1c31f27a5ae6066ca42ed46f18566f0c8502",
          "topics": [
            "0xce9745511e6b32283e684acf17f26ee2c5d221bf65c95e61c3d6fcfa446462d0"
          ],
          "data": "0x87c2d362de99f75a4f2755cdaaad2d11bf6cc65dc71356593c445535ff28f43d0000000000000000000000000000000000000000000000000000000000001337",
          "blockHash": "0x7edbb7631211da521ab5bbf0815d442d2d03f4885ec31af1d675ed68605452fc",
          "blockNumber": "0x695fff",
          "transactionHash": "0x2285835a7892174674b37d51c03c24778fe7b2e6304421b74f786afb1cf739e9",
          "transactionIndex": "0x6b",
          "logIndex": "0xb8",
          "removed": false
        }
      ],
      "logsBloom": "0x00000000000000000000000000000000000000000000000000000000000000000000000000000000080000000000000000000000000000000000000000000000000000000000000000000000000000000000000000000000000000000000000000000000000000000000000000000000000000000000000000000000000000000000000000000000000000200000000000000080000000000000000000000000000000000000000000000000000000000000000000000000000000000000000000000000200000000000000000000000000000000000000000000000000000000000000000000000000040000000000000000000020000000000000000000000",
      "type": "0x2",
      "transactionHash": "0x2285835a7892174674b37d51c03c24778fe7b2e6304421b74f786afb1cf739e9",
      "transactionIndex": "0x6b",
      "blockHash": "0x7edbb7631211da521ab5bbf0815d442d2d03f4885ec31af1d675ed68605452fc",
      "blockNumber": "0x695fff",
      "gasUsed": "0xb237",
      "effectiveGasPrice": "0x1328faa0",
      "from": "0x66664013474a29e9807d1736b1b1123f63345e22",
      "to": "0x029b1c31f27a5ae6066ca42ed46f18566f0c8502",
      "contractAddress": null
    }
  ],
  "libraries": [],
  "pending": [],
  "returns": {},
  "timestamp": 1729364815,
  "chain": 11155111,
  "commit": "b0cf2ab"
}