{
  "transactions": [
    {
      "hash": "0x1f7c24cf7dff5c2c6bc11b74f64867f41664e85bf3bb04af225d8be04dd608e1",
      "transactionType": "CALL",
      "contractName": null,
      "contractAddress": "0xd32fc62c33c7e359d1e41f87d7c0f24c9f365d5e",
      "function": "createParty(string)",
      "arguments": [
        "ethglobal-sf.beertalik.eth"
      ],
      "transaction": {
        "from": "0x66664013474a29e9807d1736b1b1123f63345e22",
        "to": "0xd32fc62c33c7e359d1e41f87d7c0f24c9f365d5e",
        "gas": "0x1d8c31",
        "value": "0x0",
        "input": "0x004094db0000000000000000000000000000000000000000000000000000000000000020000000000000000000000000000000000000000000000000000000000000001a657468676c6f62616c2d73662e6265657274616c696b2e657468000000000000",
        "nonce": "0x2",
        "chainId": "0xafa"
      },
      "additionalContracts": [],
      "isFixedGasLimit": false
    }
  ],
  "receipts": [
    {
      "status": "0x1",
      "cumulativeGasUsed": "0x25a310",
      "logs": [
        {
          "address": "0xba65a69d90e2f9337744dfa365ea3d7064444fe5",
          "topics": [
            "0x8be0079c531659141344cd1fd0a4f28419497f9722a3daafe3b4186f6b6457e0",
            "0x0000000000000000000000000000000000000000000000000000000000000000",
            "0x00000000000000000000000066664013474a29e9807d1736b1b1123f63345e22"
          ],
          "data": "0x",
          "blockHash": "0x0c8e73b387b88320acc8d336ebf65b02041a17f953eb56953cdfd2f628fda77d",
          "blockNumber": "0xae376f",
          "transactionHash": "0x1f7c24cf7dff5c2c6bc11b74f64867f41664e85bf3bb04af225d8be04dd608e1",
          "transactionIndex": "0x7",
          "logIndex": "0x21",
          "removed": false
        },
        {
          "address": "0x56b894f80ae20aeeb76a044591b635974b4a4bca",
          "topics": [
            "0x8be0079c531659141344cd1fd0a4f28419497f9722a3daafe3b4186f6b6457e0",
            "0x0000000000000000000000000000000000000000000000000000000000000000",
            "0x000000000000000000000000ba65a69d90e2f9337744dfa365ea3d7064444fe5"
          ],
          "data": "0x",
          "blockHash": "0x0c8e73b387b88320acc8d336ebf65b02041a17f953eb56953cdfd2f628fda77d",
          "blockNumber": "0xae376f",
          "transactionHash": "0x1f7c24cf7dff5c2c6bc11b74f64867f41664e85bf3bb04af225d8be04dd608e1",
          "transactionIndex": "0x7",
          "logIndex": "0x22",
          "removed": false
        }
      ],
      "logsBloom": "0x00000000000000000000000000000000000000000000000000800000000000000000000000000000000000000000000000000000000000040000000000000000000000000200000000000000000000000001000000000000002000000000000000000000020000000000000000000800000000000001000000000000000000400000000000000000000000000000000000000200000000040000000000000000000000000000000000000000000000000000200000000000000000020000000000000000002000000080000004000000000000000000000000080000000020000000000000000000000000000000000000000000000000000000000000000000",
      "type": "0x2",
      "transactionHash": "0x1f7c24cf7dff5c2c6bc11b74f64867f41664e85bf3bb04af225d8be04dd608e1",
      "transactionIndex": "0x7",
      "blockHash": "0x0c8e73b387b88320acc8d336ebf65b02041a17f953eb56953cdfd2f628fda77d",
      "blockNumber": "0xae376f",
      "gasUsed": "0x1436a9",
      "effectiveGasPrice": "0x8eb42a6",
      "from": "0x66664013474a29e9807d1736b1b1123f63345e22",
      "to": "0xd32fc62c33c7e359d1e41f87d7c0f24c9f365d5e",
      "contractAddress": null,
      "l1Fee": "0x1a679ed725"
    }
  ],
  "libraries": [],
  "pending": [],
  "returns": {},
  "timestamp": 1729399078,
  "chain": 2810,
  "commit": "e377491"
}