{
  "transactions": [
    {
      "hash": "0x50fe3f769c1c164fc5a225da4740f12e055a6c4fef7e6bc650a02d9d3f9c5d99",
      "transactionType": "CALL",
      "contractName": null,
      "contractAddress": "0xd6b7ee327523aeb2f59320a7fef30ba5c621bd85",
      "function": "createParty(string)",
      "arguments": [
        "ethglobal-sf.beertalik.eth"
      ],
      "transaction": {
        "from": "0x66664013474a29e9807d1736b1b1123f63345e22",
        "to": "0xd6b7ee327523aeb2f59320a7fef30ba5c621bd85",
        "gas": "0x1d8c31",
        "value": "0x0",
        "input": "0x004094db0000000000000000000000000000000000000000000000000000000000000020000000000000000000000000000000000000000000000000000000000000001a657468676c6f62616c2d73662e6265657274616c696b2e657468000000000000",
        "nonce": "0x4",
        "chainId": "0x3a14269b"
      },
      "additionalContracts": [],
      "isFixedGasLimit": false
    }
  ],
  "receipts": [
    {
      "status": "0x1",
      "cumulativeGasUsed": "0x13e081",
      "logs": [
        {
          "address": "0xd611f8dc24f70a222dbc54cb5480baae1d9e51c7",
          "topics": [
            "0x8be0079c531659141344cd1fd0a4f28419497f9722a3daafe3b4186f6b6457e0",
            "0x0000000000000000000000000000000000000000000000000000000000000000",
            "0x00000000000000000000000066664013474a29e9807d1736b1b1123f63345e22"
          ],
          "data": "0x",
          "blockHash": "0x5b9c67865badd7f13e4a724690827bacdf7b256bf6b928c3c7f252f701ca06b5",
          "blockNumber": "0x2355aa",
          "transactionHash": "0x50fe3f769c1c164fc5a225da4740f12e055a6c4fef7e6bc650a02d9d3f9c5d99",
          "transactionIndex": "0x0",
          "logIndex": "0x0",
          "removed": false
        },
        {
          "address": "0x6dab98fa54a55019bd841548f27f144907cdf631",
          "topics": [
            "0x8be0079c531659141344cd1fd0a4f28419497f9722a3daafe3b4186f6b6457e0",
            "0x0000000000000000000000000000000000000000000000000000000000000000",
            "0x000000000000000000000000d611f8dc24f70a222dbc54cb5480baae1d9e51c7"
          ],
          "data": "0x",
          "blockHash": "0x5b9c67865badd7f13e4a724690827bacdf7b256bf6b928c3c7f252f701ca06b5",
          "blockNumber": "0x2355aa",
          "transactionHash": "0x50fe3f769c1c164fc5a225da4740f12e055a6c4fef7e6bc650a02d9d3f9c5d99",
          "transactionIndex": "0x0",
          "logIndex": "0x1",
          "removed": false
        }
      ],
      "logsBloom": "0x00000000000000000000000000000000000000000000000000800000000000000000000000000000000000000000100000000008000000040000004000000000000000000200800000001000000000000001000000000000000000000000000000200000020000000000000000000800000000000000000000000000000000400000000000000000000000000000000000000000000000000000000000000000400000000000000000000000000000000000000000000000000000000000000000000000000000010081000000000000000000000000000000000000000020000000000000000000000000000000000000000000000000000000000000000000",
      "type": "0x0",
      "transactionHash": "0x50fe3f769c1c164fc5a225da4740f12e055a6c4fef7e6bc650a02d9d3f9c5d99",
      "transactionIndex": "0x0",
      "blockHash": "0x5b9c67865badd7f13e4a724690827bacdf7b256bf6b928c3c7f252f701ca06b5",
      "blockNumber": "0x2355aa",
      "gasUsed": "0x13e081",
      "effectiveGasPrice": "0x186a0",
      "from": "0x66664013474a29e9807d1736b1b1123f63345e22",
      "to": "0xd6b7ee327523aeb2f59320a7fef30ba5c621bd85",
      "contractAddress": null
    }
  ],
  "libraries": [],
  "pending": [],
  "returns": {},
  "timestamp": 1729401357,
  "chain": 974399131,
  "commit": "2af46e2"
}