{
  "transactions": [
    {
      "hash": "0x6b20ab522ee4a21b096b6b718b70c277064f1d90c932c13f145007d5980a9287",
      "transactionType": "CALL",
      "contractName": null,
      "contractAddress": "0xda71c2714017c0ce1e3fc99c2667d9ac0c104150",
      "function": "approve(address,uint256)",
      "arguments": [
        "0xD611F8Dc24f70A222DBc54cb5480bAae1d9e51c7",
        "1000000000"
      ],
      "transaction": {
        "from": "0x66664013474a29e9807d1736b1b1123f63345e22",
        "to": "0xda71c2714017c0ce1e3fc99c2667d9ac0c104150",
        "gas": "0xfa1f",
        "value": "0x0",
        "input": "0x095ea7b3000000000000000000000000d611f8dc24f70a222dbc54cb5480baae1d9e51c7000000000000000000000000000000000000000000000000000000003b9aca00",
        "nonce": "0x7",
        "chainId": "0x3a14269b"
      },
      "additionalContracts": [],
      "isFixedGasLimit": false
    }
  ],
  "receipts": [
    {
      "status": "0x1",
      "cumulativeGasUsed": "0xace2",
      "logs": [
        {
          "address": "0xda71c2714017c0ce1e3fc99c2667d9ac0c104150",
          "topics": [
            "0x8c5be1e5ebec7d5bd14f71427d1e84f3dd0314c0f7b2291e5b200ac8c7c3b925",
            "0x00000000000000000000000066664013474a29e9807d1736b1b1123f63345e22",
            "0x000000000000000000000000d611f8dc24f70a222dbc54cb5480baae1d9e51c7"
          ],
          "data": "0x000000000000000000000000000000000000000000000000000000003b9aca00",
          "blockHash": "0x08d40b483f8b54624a69552076b82feb4a7daa22e291b8a94d6ac817bd62dcd9",
          "blockNumber": "0x2355b7",
          "transactionHash": "0x6b20ab522ee4a21b096b6b718b70c277064f1d90c932c13f145007d5980a9287",
          "transactionIndex": "0x0",
          "logIndex": "0x0",
          "removed": false
        }
      ],
      "logsBloom": "0x00000000000000000000000000000000000000000000400000000000000000000000000000000000000000000000100000000000000000040000004040200000000000000200000000000000000000000000000000000000000000000000000000000000000000000000000000000000000000000000000000000000000000000000000000000000000000000000000000000000000000000000000000000000020000000000000000000000000000800000000000000000000000000000000000000000000000010080000000000000000000000000000000000000000000000010000000000000000000000000000000000000000000000000000000000000",
      "type": "0x0",
      "transactionHash": "0x6b20ab522ee4a21b096b6b718b70c277064f1d90c932c13f145007d5980a9287",
      "transactionIndex": "0x0",
      "blockHash": "0x08d40b483f8b54624a69552076b82feb4a7daa22e291b8a94d6ac817bd62dcd9",
      "blockNumber": "0x2355b7",
      "gasUsed": "0xace2",
      "effectiveGasPrice": "0x186a0",
      "from": "0x66664013474a29e9807d1736b1b1123f63345e22",
      "to": "0xda71c2714017c0ce1e3fc99c2667d9ac0c104150",
      "contractAddress": null
    }
  ],
  "libraries": [],
  "pending": [],
  "returns": {},
  "timestamp": 1729401479,
  "chain": 974399131,
  "commit": "2af46e2"
}