{
  "transactions": [
    {
      "hash": "0x46e5b55314f5f7cfc2db76ca12fc10cddc6cc2ef7876d6f45ec883c38311a392",
      "transactionType": "CALL",
      "contractName": null,
      "contractAddress": "0xda71c2714017c0ce1e3fc99c2667d9ac0c104150",
      "function": "mint(address,uint256)",
      "arguments": [
        "0x66664013474a29e9807D1736B1B1123F63345e22",
        "10000000000"
      ],
      "transaction": {
        "from": "0x66664013474a29e9807d1736b1b1123f63345e22",
        "to": "0xda71c2714017c0ce1e3fc99c2667d9ac0c104150",
        "gas": "0xc48b",
        "value": "0x0",
        "input": "0x40c10f1900000000000000000000000066664013474a29e9807d1736b1b1123f63345e2200000000000000000000000000000000000000000000000000000002540be400",
        "nonce": "0x6",
        "chainId": "0x3a14269b"
      },
      "additionalContracts": [],
      "isFixedGasLimit": false
    }
  ],
  "receipts": [
    {
      "status": "0x1",
      "cumulativeGasUsed": "0x8f78",
      "logs": [
        {
          "address": "0xda71c2714017c0ce1e3fc99c2667d9ac0c104150",
          "topics": [
            "0xddf252ad1be2c89b69c2b068fc378daa952ba7f163c4a11628f55a4df523b3ef",
            "0x0000000000000000000000000000000000000000000000000000000000000000",
            "0x00000000000000000000000066664013474a29e9807d1736b1b1123f63345e22"
          ],
          "data": "0x00000000000000000000000000000000000000000000000000000002540be400",
          "blockHash": "0xc7ff0d783da174350f5acc88b83330fc595af5d120deab6155ac186c3a1ad387",
          "blockNumber": "0x2355b4",
          "transactionHash": "0x46e5b55314f5f7cfc2db76ca12fc10cddc6cc2ef7876d6f45ec883c38311a392",
          "transactionIndex": "0x0",
          "logIndex": "0x0",
          "removed": false
        }
      ],
      "logsBloom": "0x00000000000000000000000000000000000000000000400000000000000000000000000000000000000000000000000000000000000000040000000040000000000000000200000000000008000000000000000000000000000000000000000000000000020000000000000000000800000000000000000000000010000000000000000000000000000000000000000000000000000000000000000000000000000000000000000000000000000000800000000000000000000000000000000000000002000000000080000000000000000000000000000000000000000020000000000000000000000000000000000000000000000000000000000000000000",
      "type": "0x0",
      "transactionHash": "0x46e5b55314f5f7cfc2db76ca12fc10cddc6cc2ef7876d6f45ec883c38311a392",
      "transactionIndex": "0x0",
      "blockHash": "0xc7ff0d783da174350f5acc88b83330fc595af5d120deab6155ac186c3a1ad387",
      "blockNumber": "0x2355b4",
      "gasUsed": "0x8f78",
      "effectiveGasPrice": "0x186a0",
      "from": "0x66664013474a29e9807d1736b1b1123f63345e22",
      "to": "0xda71c2714017c0ce1e3fc99c2667d9ac0c104150",
      "contractAddress": null
    }
  ],
  "libraries": [],
  "pending": [],
  "returns": {},
  "timestamp": 1729401456,
  "chain": 974399131,
  "commit": "2af46e2"
}