{
  "transactions": [
    {
      "hash": "0x891879ac557433f9d959e26c8a54348df9303b05d22ad122078c82f4edf08129",
      "transactionType": "CALL",
      "contractName": null,
      "contractAddress": "0xda71c2714017c0ce1e3fc99c2667d9ac0c104150",
      "function": "mint(address,uint256)",
      "arguments": [
        "0x66664013474a29e9807D1736B1B1123F63345e22",
        "10000000000"
      ],
      "transaction": {
        "from": "0x66664013474a29e9807d1736b1b1123f63345e22",
        "to": "0xda71c2714017c0ce1e3fc99c2667d9ac0c104150",
        "gas": "0x17d12",
        "value": "0x0",
        "input": "0x40c10f1900000000000000000000000066664013474a29e9807d1736b1b1123f63345e2200000000000000000000000000000000000000000000000000000002540be400",
        "nonce": "0x5",
        "chainId": "0x3a14269b"
      },
      "additionalContracts": [],
      "isFixedGasLimit": false
    },
    {
      "hash": null,
      "transactionType": "CALL",
      "contractName": null,
      "contractAddress": "0xda71c2714017c0ce1e3fc99c2667d9ac0c104150",
      "function": "approve(address,uint256)",
      "arguments": [
        "0xD611F8Dc24f70A222DBc54cb5480bAae1d9e51c7",
        "1000000000"
      ],
      "transaction": {
        "from": "0x66664013474a29e9807d1736b1b1123f63345e22",
        "to": "0xda71c2714017c0ce1e3fc99c2667d9ac0c104150",
        "gas": "0xfa1f",
        "value": "0x0",
        "input": "0x095ea7b3000000000000000000000000d611f8dc24f70a222dbc54cb5480baae1d9e51c7000000000000000000000000000000000000000000000000000000003b9aca00",
        "nonce": "0x6",
        "chainId": "0x3a14269b"
      },
      "additionalContracts": [],
      "isFixedGasLimit": false
    },
    {
      "hash": null,
      "transactionType": "CALL",
      "contractName": null,
      "contractAddress": "0xd611f8dc24f70a222dbc54cb5480baae1d9e51c7",
      "function": "buy()",
      "arguments": [],
      "transaction": {
        "from": "0x66664013474a29e9807d1736b1b1123f63345e22",
        "to": "0xd611f8dc24f70a222dbc54cb5480baae1d9e51c7",
        "gas": "0x3c491",
        "value": "0x0",
        "input": "0xa6f2ae3a",
        "nonce": "0x7",
        "chainId": "0x3a14269b"
      },
      "additionalContracts": [],
      "isFixedGasLimit": false
    },
    {
      "hash": null,
      "transactionType": "CALL",
      "contractName": null,
      "contractAddress": "0xd611f8dc24f70a222dbc54cb5480baae1d9e51c7",
      "function": "buy()",
      "arguments": [],
      "transaction": {
        "from": "0x66664013474a29e9807d1736b1b1123f63345e22",
        "to": "0xd611f8dc24f70a222dbc54cb5480baae1d9e51c7",
        "gas": "0x1b3f1",
        "value": "0x0",
        "input": "0xa6f2ae3a",
        "nonce": "0x8",
        "chainId": "0x3a14269b"
      },
      "additionalContracts": [],
      "isFixedGasLimit": false
    },
    {
      "hash": null,
      "transactionType": "CALL",
      "contractName": null,
      "contractAddress": "0xd611f8dc24f70a222dbc54cb5480baae1d9e51c7",
      "function": "buy()",
      "arguments": [],
      "transaction": {
        "from": "0x66664013474a29e9807d1736b1b1123f63345e22",
        "to": "0xd611f8dc24f70a222dbc54cb5480baae1d9e51c7",
        "gas": "0x1b3f1",
        "value": "0x0",
        "input": "0xa6f2ae3a",
        "nonce": "0x9",
        "chainId": "0x3a14269b"
      },
      "additionalContracts": [],
      "isFixedGasLimit": false
    },
    {
      "hash": null,
      "transactionType": "CALL",
      "contractName": null,
      "contractAddress": "0xd611f8dc24f70a222dbc54cb5480baae1d9e51c7",
      "function": "buy()",
      "arguments": [],
      "transaction": {
        "from": "0x66664013474a29e9807d1736b1b1123f63345e22",
        "to": "0xd611f8dc24f70a222dbc54cb5480baae1d9e51c7",
        "gas": "0x1b3f1",
        "value": "0x0",
        "input": "0xa6f2ae3a",
        "nonce": "0xa",
        "chainId": "0x3a14269b"
      },
      "additionalContracts": [],
      "isFixedGasLimit": false
    },
    {
      "hash": null,
      "transactionType": "CALL",
      "contractName": null,
      "contractAddress": "0xd611f8dc24f70a222dbc54cb5480baae1d9e51c7",
      "function": "buy()",
      "arguments": [],
      "transaction": {
        "from": "0x66664013474a29e9807d1736b1b1123f63345e22",
        "to": "0xd611f8dc24f70a222dbc54cb5480baae1d9e51c7",
        "gas": "0x1b3f1",
        "value": "0x0",
        "input": "0xa6f2ae3a",
        "nonce": "0xb",
        "chainId": "0x3a14269b"
      },
      "additionalContracts": [],
      "isFixedGasLimit": false
    }
  ],
  "receipts": [],
  "libraries": [],
  "pending": [
    "0x891879ac557433f9d959e26c8a54348df9303b05d22ad122078c82f4edf08129"
  ],
  "returns": {},
  "timestamp": 1729401429,
  "chain": 974399131,
  "commit": "2af46e2"
}