{
  "transactions": [
    {
      "hash": "0xc41f9fce856ddcdbcb7487e158188b42d4711e9d13df485e3e614f2beaeaa854",
      "transactionType": "CALL",
      "contractName": null,
      "contractAddress": "0x0635513f179d50a207757e05759cbd106d7dfce8",
      "function": "setSubnodeOwner(bytes32,string,address,uint32,uint64)",
      "arguments": [
        "0xb5062fa4a2e240553eefa7d5eb0452477daac3590a5cf9e4020631337a8cba3f",
        "ethglobal-sf",
        "0x66664013474a29e9807D1736B1B1123F63345e22",
        "0",
        "2021232060"
      ],
      "transaction": {
        "from": "0x66664013474a29e9807d1736b1b1123f63345e22",
        "to": "0x0635513f179d50a207757e05759cbd106d7dfce8",
        "gas": "0x12e04",
        "value": "0x0",
        "input": "0xc658e086b5062fa4a2e240553eefa7d5eb0452477daac3590a5cf9e4020631337a8cba3f00000000000000000000000000000000000000000000000000000000000000a000000000000000000000000066664013474a29e9807d1736b1b1123f63345e2200000000000000000000000000000000000000000000000000000000000000000000000000000000000000000000000000000000000000000000000078798dbc000000000000000000000000000000000000000000000000000000000000000c657468676c6f62616c2d73660000000000000000000000000000000000000000",
        "nonce": "0x18",
        "chainId": "0xaa36a7"
      },
      "additionalContracts": [],
      "isFixedGasLimit": false
    },
    {
      "hash": "0xaa9d3bdc206f72cfc454d21141fdf0b06971a0f817c1686fdc09a3990cce2faf",
      "transactionType": "CALL",
      "contractName": null,
      "contractAddress": "0x8fade66b79cc9f707ab26799354482eb93a5b7dd",
      "function": "setAddr(bytes32,address)",
      "arguments": [
        "0x49b223fbc6586de7489c8879ed2098d4efcf2bef74205c9a887b8f581a8abef5",
        "0xbA65a69d90E2f9337744dfa365EA3D7064444Fe5"
      ],
      "transaction": {
        "from": "0x66664013474a29e9807d1736b1b1123f63345e22",
        "to": "0x8fade66b79cc9f707ab26799354482eb93a5b7dd",
        "gas": "0x10754",
        "value": "0x0",
        "input": "0xd5fa2b0049b223fbc6586de7489c8879ed2098d4efcf2bef74205c9a887b8f581a8abef5000000000000000000000000ba65a69d90e2f9337744dfa365ea3d7064444fe5",
        "nonce": "0x19",
        "chainId": "0xaa36a7"
      },
      "additionalContracts": [],
      "isFixedGasLimit": false
    },
    {
      "hash": "0x6c1cc00fcc81904f3c5af2dbb589ccfefa28a50c4e96c23ae1f9e068d69e6b92",
      "transactionType": "CALL",
      "contractName": null,
      "contractAddress": "0x0635513f179d50a207757e05759cbd106d7dfce8",
      "function": "setSubnodeRecord(bytes32,string,address,address,uint64,uint32,uint64)",
      "arguments": [
        "0xb5062fa4a2e240553eefa7d5eb0452477daac3590a5cf9e4020631337a8cba3f",
        "ethglobal-sf",
        "0xbA65a69d90E2f9337744dfa365EA3D7064444Fe5",
        "0x8FADE66B79cC9f707aB26799354482EB93a5B7dD",
        "0",
        "0",
        "2021232060"
      ],
      "transaction": {
        "from": "0x66664013474a29e9807d1736b1b1123f63345e22",
        "to": "0x0635513f179d50a207757e05759cbd106d7dfce8",
        "gas": "0x17f8d",
        "value": "0x0",
        "input": "0x24c1af44b5062fa4a2e240553eefa7d5eb0452477daac3590a5cf9e4020631337a8cba3f00000000000000000000000000000000000000000000000000000000000000e0000000000000000000000000ba65a69d90e2f9337744dfa365ea3d7064444fe50000000000000000000000008fade66b79cc9f707ab26799354482eb93a5b7dd000000000000000000000000000000000000000000000000000000000000000000000000000000000000000000000000000000000000000000000000000000000000000000000000000000000000000000000000000000000000000078798dbc000000000000000000000000000000000000000000000000000000000000000c657468676c6f62616c2d73660000000000000000000000000000000000000000",
        "nonce": "0x1a",
        "chainId": "0xaa36a7"
      },
      "additionalContracts": [],
      "isFixedGasLimit": false
    }
  ],
  "receipts": [
    {
      "status": "0x1",
      "cumulativeGasUsed": "0xaa9adb",
      "logs": [
        {
          "address": "0x0635513f179d50a207757e05759cbd106d7dfce8",
          "topics": [
            "0x39873f00c80f4f94b7bd1594aebcf650f003545b74824d57ddf4939e3ff3a34b",
            "0x49b223fbc6586de7489c8879ed2098d4efcf2bef74205c9a887b8f581a8abef5"
          ],
          "data": "0x0000000000000000000000000000000000000000000000000000000000000000",
          "blockHash": "0xa606ca2c5830b3edfa4597a9e9ec0b84ceaa7b407f87b50186ecfaf2526067c8",
          "blockNumber": "0x696413",
          "transactionHash": "0xc41f9fce856ddcdbcb7487e158188b42d4711e9d13df485e3e614f2beaeaa854",
          "transactionIndex": "0x34",
          "logIndex": "0x58",
          "removed": false
        },
        {
          "address": "0x0635513f179d50a207757e05759cbd106d7dfce8",
          "topics": [
            "0xc3d58168c5ae7397731d063d5bbf3d657854427343f4c083240f7aacaa2d0f62",
            "0x00000000000000000000000066664013474a29e9807d1736b1b1123f63345e22",
            "0x0000000000000000000000007364b8b12a5aff8e60e847f7c5765f97949e92ad",
            "0x00000000000000000000000066664013474a29e9807d1736b1b1123f63345e22"
          ],
          "data": "0x49b223fbc6586de7489c8879ed2098d4efcf2bef74205c9a887b8f581a8abef50000000000000000000000000000000000000000000000000000000000000001",
          "blockHash": "0xa606ca2c5830b3edfa4597a9e9ec0b84ceaa7b407f87b50186ecfaf2526067c8",
          "blockNumber": "0x696413",
          "transactionHash": "0xc41f9fce856ddcdbcb7487e158188b42d4711e9d13df485e3e614f2beaeaa854",
          "transactionIndex": "0x34",
          "logIndex": "0x59",
          "removed": false
        }
      ],
      "logsBloom": "0x00000000200000400000004000000000000000000000000000000000000004000000000000000000000000000000000000000000000000040000000000002000004000000200000000000000000000000000000000000000000000000000000000000000000000000000000004000000000000000000000000000000000000000000000000000000000000000000000000000080000000000000000000004000000000000200000000000000000000000000000000000000000000000000000000000000000000000080000000000080000000010008000000000000000000000000000000000000000000000000000000000000000000000000080000000200",
      "type": "0x2",
      "transactionHash": "0xc41f9fce856ddcdbcb7487e158188b42d4711e9d13df485e3e614f2beaeaa854",
      "transactionIndex": "0x34",
      "blockHash": "0xa606ca2c5830b3edfa4597a9e9ec0b84ceaa7b407f87b50186ecfaf2526067c8",
      "blockNumber": "0x696413",
      "gasUsed": "0xdaa8",
      "effectiveGasPrice": "0x151110",
      "from": "0x66664013474a29e9807d1736b1b1123f63345e22",
      "to": "0x0635513f179d50a207757e05759cbd106d7dfce8",
      "contractAddress": null
    },
    {
      "status": "0x1",
      "cumulativeGasUsed": "0xab5981",
      "logs": [
        {
          "address": "0x8fade66b79cc9f707ab26799354482eb93a5b7dd",
          "topics": [
            "0x65412581168e88a1e60c6459d7f44ae83ad0832e670826c05a4e2476b57af752",
            "0x49b223fbc6586de7489c8879ed2098d4efcf2bef74205c9a887b8f581a8abef5"
          ],
          "data": "0x000000000000000000000000000000000000000000000000000000000000003c00000000000000000000000000000000000000000000000000000000000000400000000000000000000000000000000000000000000000000000000000000014ba65a69d90e2f9337744dfa365ea3d7064444fe5000000000000000000000000",
          "blockHash": "0xa606ca2c5830b3edfa4597a9e9ec0b84ceaa7b407f87b50186ecfaf2526067c8",
          "blockNumber": "0x696413",
          "transactionHash": "0xaa9d3bdc206f72cfc454d21141fdf0b06971a0f817c1686fdc09a3990cce2faf",
          "transactionIndex": "0x35",
          "logIndex": "0x5a",
          "removed": false
        },
        {
          "address": "0x8fade66b79cc9f707ab26799354482eb93a5b7dd",
          "topics": [
            "0x52d7d861f09ab3d26239d492e8968629f95e9e318cf0b73bfddc441522a15fd2",
            "0x49b223fbc6586de7489c8879ed2098d4efcf2bef74205c9a887b8f581a8abef5"
          ],
          "data": "0x000000000000000000000000ba65a69d90e2f9337744dfa365ea3d7064444fe5",
          "blockHash": "0xa606ca2c5830b3edfa4597a9e9ec0b84ceaa7b407f87b50186ecfaf2526067c8",
          "blockNumber": "0x696413",
          "transactionHash": "0xaa9d3bdc206f72cfc454d21141fdf0b06971a0f817c1686fdc09a3990cce2faf",
          "transactionIndex": "0x35",
          "logIndex": "0x5b",
          "removed": false
        }
      ],
      "logsBloom": "0x00000000200000000000000000000100000000000000000000000000100000000000000000000000100000000000000000000000000000000000000000000000004000000000000000000000000000000000000004000000000000000000000000000000000000000000000000000000000000000000000000000000000000000000000000000000000000000000000000000000000000000000000000000000000000000002000008000000040000000000000000000000000000000000000000000000002000000000000000000000000008000000000000000000000000000000000000000000000000000000000000000000000000000000000000000200",
      "type": "0x2",
      "transactionHash": "0xaa9d3bdc206f72cfc454d21141fdf0b06971a0f817c1686fdc09a3990cce2faf",
      "transactionIndex": "0x35",
      "blockHash": "0xa606ca2c5830b3edfa4597a9e9ec0b84ceaa7b407f87b50186ecfaf2526067c8",
      "blockNumber": "0x696413",
      "gasUsed": "0xbea6",
      "effectiveGasPrice": "0x151110",
      "from": "0x66664013474a29e9807d1736b1b1123f63345e22",
      "to": "0x8fade66b79cc9f707ab26799354482eb93a5b7dd",
      "contractAddress": null
    },
    {
      "status": "0x1",
      "cumulativeGasUsed": "0xac5fc3",
      "logs": [
        {
          "address": "0x00000000000c2e074ec69a0dfb2997ba6c7d2e1e",
          "topics": [
            "0xce0457fe73731f824cc272376169235128c118b49d344817417c6d108d155e82",
            "0xb5062fa4a2e240553eefa7d5eb0452477daac3590a5cf9e4020631337a8cba3f",
            "0x967ef67a7148b30592bff4f2fee2b0f9bd80a91a6893dbff2513edf49a43b18f"
          ],
          "data": "0x0000000000000000000000000635513f179d50a207757e05759cbd106d7dfce8",
          "blockHash": "0xa606ca2c5830b3edfa4597a9e9ec0b84ceaa7b407f87b50186ecfaf2526067c8",
          "blockNumber": "0x696413",
          "transactionHash": "0x6c1cc00fcc81904f3c5af2dbb589ccfefa28a50c4e96c23ae1f9e068d69e6b92",
          "transactionIndex": "0x36",
          "logIndex": "0x5c",
          "removed": false
        },
        {
          "address": "0x0635513f179d50a207757e05759cbd106d7dfce8",
          "topics": [
            "0x39873f00c80f4f94b7bd1594aebcf650f003545b74824d57ddf4939e3ff3a34b",
            "0x49b223fbc6586de7489c8879ed2098d4efcf2bef74205c9a887b8f581a8abef5"
          ],
          "data": "0x0000000000000000000000000000000000000000000000000000000000000000",
          "blockHash": "0xa606ca2c5830b3edfa4597a9e9ec0b84ceaa7b407f87b50186ecfaf2526067c8",
          "blockNumber": "0x696413",
          "transactionHash": "0x6c1cc00fcc81904f3c5af2dbb589ccfefa28a50c4e96c23ae1f9e068d69e6b92",
          "transactionIndex": "0x36",
          "logIndex": "0x5d",
          "removed": false
        },
        {
          "address": "0x0635513f179d50a207757e05759cbd106d7dfce8",
          "topics": [
            "0xc3d58168c5ae7397731d063d5bbf3d657854427343f4c083240f7aacaa2d0f62",
            "0x00000000000000000000000066664013474a29e9807d1736b1b1123f63345e22",
            "0x00000000000000000000000066664013474a29e9807d1736b1b1123f63345e22",
            "0x000000000000000000000000ba65a69d90e2f9337744dfa365ea3d7064444fe5"
          ],
          "data": "0x49b223fbc6586de7489c8879ed2098d4efcf2bef74205c9a887b8f581a8abef50000000000000000000000000000000000000000000000000000000000000001",
          "blockHash": "0xa606ca2c5830b3edfa4597a9e9ec0b84ceaa7b407f87b50186ecfaf2526067c8",
          "blockNumber": "0x696413",
          "transactionHash": "0x6c1cc00fcc81904f3c5af2dbb589ccfefa28a50c4e96c23ae1f9e068d69e6b92",
          "transactionIndex": "0x36",
          "logIndex": "0x5e",
          "removed": false
        }
      ],
      "logsBloom": "0x00000000200000400000004000000000000000000000000000000000000004000000001000000000000000000000000000400000000010040000000000002000004000000200000000000000000001000000000000000000000000000000000000000000000000000000000004000000000000000001000000000000000000000000010000000200000000000100000000000080000000000000000000000000000000000000040000000000000000000000000000000000000000060000000000000000000000000080000000004000000000010008000000080000000000000000000000000000000000000100000000000000000000000000080100000200",
      "type": "0x2",
      "transactionHash": "0x6c1cc00fcc81904f3c5af2dbb589ccfefa28a50c4e96c23ae1f9e068d69e6b92",
      "transactionIndex": "0x36",
      "blockHash": "0xa606ca2c5830b3edfa4597a9e9ec0b84ceaa7b407f87b50186ecfaf2526067c8",
      "blockNumber": "0x696413",
      "gasUsed": "0x10642",
      "effectiveGasPrice": "0x151110",
      "from": "0x66664013474a29e9807d1736b1b1123f63345e22",
      "to": "0x0635513f179d50a207757e05759cbd106d7dfce8",
      "contractAddress": null
    }
  ],
  "libraries": [],
  "pending": [],
  "returns": {},
  "timestamp": 1729379737,
  "chain": 11155111,
  "commit": "759e856"
}