{
  "transactions": [
    {
      "hash": "0xfea4c8107efd10967f7d5cc8375dbe91a9da8d619d6485ba7b454e72465b75b2",
      "transactionType": "CALL",
      "contractName": null,
      "contractAddress": "0x7364b8b12a5aff8e60e847f7c5765f97949e92ad",
      "function": "registerSubname(string,address)",
      "arguments": [
        "kekw",
        "0x0000000000000000000000000000000000001337"
      ],
      "transaction": {
        "from": "0x66664013474a29e9807d1736b1b1123f63345e22",
        "to": "0x7364b8b12a5aff8e60e847f7c5765f97949e92ad",
        "gas": "0x45ae8",
        "value": "0x0",
        "input": "0x656bb5360000000000000000000000000000000000000000000000000000000000000040000000000000000000000000000000000000000000000000000000000000133700000000000000000000000000000000000000000000000000000000000000046b656b7700000000000000000000000000000000000000000000000000000000",
        "nonce": "0xc",
        "chainId": "0xaa36a7"
      },
      "additionalContracts": [],
      "isFixedGasLimit": false
    }
  ],
  "receipts": [
    {
      "status": "0x1",
      "cumulativeGasUsed": "0x8beff3",
      "logs": [
        {
          "address": "0x00000000000c2e074ec69a0dfb2997ba6c7d2e1e",
          "topics": [
            "0xce0457fe73731f824cc272376169235128c118b49d344817417c6d108d155e82",
            "0x596fcfb152234abeec0a336af85ed296f4a529b1feb1a726c8f4223689f9cedc",
            "0x7de044b35f74186f28ea669f3d7de5003613f27dda290eb137f2ecf0beaed331"
          ],
          "data": "0x0000000000000000000000000635513f179d50a207757e05759cbd106d7dfce8",
          "blockHash": "0x08e65de2a64b2b4117894d3960e84fa9fde8c54561c79817ed970c3f19ef2f14",
          "blockNumber": "0x6961dc",
          "transactionHash": "0xfea4c8107efd10967f7d5cc8375dbe91a9da8d619d6485ba7b454e72465b75b2",
          "transactionIndex": "0x45",
          "logIndex": "0x73",
          "removed": false
        },
        {
          "address": "0x0635513f179d50a207757e05759cbd106d7dfce8",
          "topics": [
            "0xc3d58168c5ae7397731d063d5bbf3d657854427343f4c083240f7aacaa2d0f62",
            "0x0000000000000000000000007364b8b12a5aff8e60e847f7c5765f97949e92ad",
            "0x0000000000000000000000000000000000000000000000000000000000000000",
            "0x0000000000000000000000007364b8b12a5aff8e60e847f7c5765f97949e92ad"
          ],
          "data": "0xaee3ac244fe8a6ed690b95d4efc59a4b8f984140c394eec39abe8092932215fb0000000000000000000000000000000000000000000000000000000000000001",
          "blockHash": "0x08e65de2a64b2b4117894d3960e84fa9fde8c54561c79817ed970c3f19ef2f14",
          "blockNumber": "0x6961dc",
          "transactionHash": "0xfea4c8107efd10967f7d5cc8375dbe91a9da8d619d6485ba7b454e72465b75b2",
          "transactionIndex": "0x45",
          "logIndex": "0x74",
          "removed": false
        },
        {
          "address": "0x0635513f179d50a207757e05759cbd106d7dfce8",
          "topics": [
            "0x8ce7013e8abebc55c3890a68f5a27c67c3f7efa64e584de5fb22363c606fd340",
            "0xaee3ac244fe8a6ed690b95d4efc59a4b8f984140c394eec39abe8092932215fb"
          ],
          "data": "0x00000000000000000000000000000000000000000000000000000000000000800000000000000000000000007364b8b12a5aff8e60e847f7c5765f97949e92ad000000000000000000000000000000000000000000000000000000000000000000000000000000000000000000000000000000000000000000000000696bc868000000000000000000000000000000000000000000000000000000000000001a046b656b77057465737432096265657274616c696b0365746800000000000000",
          "blockHash": "0x08e65de2a64b2b4117894d3960e84fa9fde8c54561c79817ed970c3f19ef2f14",
          "blockNumber": "0x6961dc",
          "transactionHash": "0xfea4c8107efd10967f7d5cc8375dbe91a9da8d619d6485ba7b454e72465b75b2",
          "transactionIndex": "0x45",
          "logIndex": "0x75",
          "removed": false
        },
        {
          "address": "0x8fade66b79cc9f707ab26799354482eb93a5b7dd",
          "topics": [
            "0x65412581168e88a1e60c6459d7f44ae83ad0832e670826c05a4e2476b57af752",
            "0xaee3ac244fe8a6ed690b95d4efc59a4b8f984140c394eec39abe8092932215fb"
          ],
          "data": "0x000000000000000000000000000000000000000000000000000000000000003c000000000000000000000000000000000000000000000000000000000000004000000000000000000000000000000000000000000000000000000000000000140000000000000000000000000000000000001337000000000000000000000000",
          "blockHash": "0x08e65de2a64b2b4117894d3960e84fa9fde8c54561c79817ed970c3f19ef2f14",
          "blockNumber": "0x6961dc",
          "transactionHash": "0xfea4c8107efd10967f7d5cc8375dbe91a9da8d619d6485ba7b454e72465b75b2",
          "transactionIndex": "0x45",
          "logIndex": "0x76",
          "removed": false
        },
        {
          "address": "0x8fade66b79cc9f707ab26799354482eb93a5b7dd",
          "topics": [
            "0x52d7d861f09ab3d26239d492e8968629f95e9e318cf0b73bfddc441522a15fd2",
            "0xaee3ac244fe8a6ed690b95d4efc59a4b8f984140c394eec39abe8092932215fb"
          ],
          "data": "0x0000000000000000000000000000000000000000000000000000000000001337",
          "blockHash": "0x08e65de2a64b2b4117894d3960e84fa9fde8c54561c79817ed970c3f19ef2f14",
          "blockNumber": "0x6961dc",
          "transactionHash": "0xfea4c8107efd10967f7d5cc8375dbe91a9da8d619d6485ba7b454e72465b75b2",
          "transactionIndex": "0x45",
          "logIndex": "0x77",
          "removed": false
        },
        {
          "address": "0x00000000000c2e074ec69a0dfb2997ba6c7d2e1e",
          "topics": [
            "0xce0457fe73731f824cc272376169235128c118b49d344817417c6d108d155e82",
            "0x596fcfb152234abeec0a336af85ed296f4a529b1feb1a726c8f4223689f9cedc",
            "0x7de044b35f74186f28ea669f3d7de5003613f27dda290eb137f2ecf0beaed331"
          ],
          "data": "0x0000000000000000000000000635513f179d50a207757e05759cbd106d7dfce8",
          "blockHash": "0x08e65de2a64b2b4117894d3960e84fa9fde8c54561c79817ed970c3f19ef2f14",
          "blockNumber": "0x6961dc",
          "transactionHash": "0xfea4c8107efd10967f7d5cc8375dbe91a9da8d619d6485ba7b454e72465b75b2",
          "transactionIndex": "0x45",
          "logIndex": "0x78",
          "removed": false
        },
        {
          "address": "0x00000000000c2e074ec69a0dfb2997ba6c7d2e1e",
          "topics": [
            "0x335721b01866dc23fbee8b6b2c7b1e14d6f05c28cd35a2c934239f94095602a0",
            "0xaee3ac244fe8a6ed690b95d4efc59a4b8f984140c394eec39abe8092932215fb"
          ],
          "data": "0x0000000000000000000000008fade66b79cc9f707ab26799354482eb93a5b7dd",
          "blockHash": "0x08e65de2a64b2b4117894d3960e84fa9fde8c54561c79817ed970c3f19ef2f14",
          "blockNumber": "0x6961dc",
          "transactionHash": "0xfea4c8107efd10967f7d5cc8375dbe91a9da8d619d6485ba7b454e72465b75b2",
          "transactionIndex": "0x45",
          "logIndex": "0x79",
          "removed": false
        },
        {
          "address": "0x0635513f179d50a207757e05759cbd106d7dfce8",
          "topics": [
            "0x39873f00c80f4f94b7bd1594aebcf650f003545b74824d57ddf4939e3ff3a34b",
            "0xaee3ac244fe8a6ed690b95d4efc59a4b8f984140c394eec39abe8092932215fb"
          ],
          "data": "0x0000000000000000000000000000000000000000000000000000000000000000",
          "blockHash": "0x08e65de2a64b2b4117894d3960e84fa9fde8c54561c79817ed970c3f19ef2f14",
          "blockNumber": "0x6961dc",
          "transactionHash": "0xfea4c8107efd10967f7d5cc8375dbe91a9da8d619d6485ba7b454e72465b75b2",
          "transactionIndex": "0x45",
          "logIndex": "0x7a",
          "removed": false
        }
      ],
      "logsBloom": "0x00000000400000400000024000000100000000000000000000000000100004000000000000000000100000000000000000000040000010400000000000022000010000000000000040000000000000000000000004000000000000000000000000000000020000000000000004000800000000200000000000000000000000000000010000400000000000000000000000000080000000008000000000804000000000000202040008000000040000000004000000000000000000040000000000000000002000000000000000004080000008010008000000400000000020002000000800000000000000000100000000000000000000000000080000000000",
      "type": "0x2",
      "transactionHash": "0xfea4c8107efd10967f7d5cc8375dbe91a9da8d619d6485ba7b454e72465b75b2",
      "transactionIndex": "0x45",
      "blockHash": "0x08e65de2a64b2b4117894d3960e84fa9fde8c54561c79817ed970c3f19ef2f14",
      "blockNumber": "0x6961dc",
      "gasUsed": "0x3272d",
      "effectiveGasPrice": "0x1bee0c",
      "from": "0x66664013474a29e9807d1736b1b1123f63345e22",
      "to": "0x7364b8b12a5aff8e60e847f7c5765f97949e92ad",
      "contractAddress": null
    }
  ],
  "libraries": [],
  "pending": [],
  "returns": {},
  "timestamp": 1729371556,
  "chain": 11155111,
  "commit": "b0cf2ab"
}