{
  "transactions": [
    {
      "hash": "0x06d59a6d52b7361b3403f95f6dd6bf82cf7fb70161b56c2cedddfbbd086c9ea7",
      "transactionType": "CALL",
      "contractName": null,
      "contractAddress": "0x927fb1414f83905620f460b024bcff2dd1da430c",
      "function": "registerSubname(string,address)",
      "arguments": [
        "asd",
        "0x9F79941335e54A11eCD13cedf58375657FdA97A1"
      ],
      "transaction": {
        "from": "0x66664013474a29e9807d1736b1b1123f63345e22",
        "to": "0x927fb1414f83905620f460b024bcff2dd1da430c",
        "gas": "0x5518d",
        "value": "0x0",
        "input": "0x656bb53600000000000000000000000000000000000000000000000000000000000000400000000000000000000000009f79941335e54a11ecd13cedf58375657fda97a100000000000000000000000000000000000000000000000000000000000000036173640000000000000000000000000000000000000000000000000000000000",
        "nonce": "0x1e",
        "chainId": "0xaa36a7"
      },
      "additionalContracts": [],
      "isFixedGasLimit": false
    }
  ],
  "receipts": [
    {
      "status": "0x1",
      "cumulativeGasUsed": "0x127040d",
      "logs": [
        {
          "address": "0x00000000000c2e074ec69a0dfb2997ba6c7d2e1e",
          "topics": [
            "0xce0457fe73731f824cc272376169235128c118b49d344817417c6d108d155e82",
            "0x49b223fbc6586de7489c8879ed2098d4efcf2bef74205c9a887b8f581a8abef5",
            "0x87c2d362de99f75a4f2755cdaaad2d11bf6cc65dc71356593c445535ff28f43d"
          ],
          "data": "0x0000000000000000000000000635513f179d50a207757e05759cbd106d7dfce8",
          "blockHash": "0x152afc8bcaab056a9a5fd18f25b94230a617d4c25c80df58c7e04641d8f9a25c",
          "blockNumber": "0x69641d",
          "transactionHash": "0x06d59a6d52b7361b3403f95f6dd6bf82cf7fb70161b56c2cedddfbbd086c9ea7",
          "transactionIndex": "0x36",
          "logIndex": "0x81",
          "removed": false
        },
        {
          "address": "0x0635513f179d50a207757e05759cbd106d7dfce8",
          "topics": [
            "0xc3d58168c5ae7397731d063d5bbf3d657854427343f4c083240f7aacaa2d0f62",
            "0x000000000000000000000000927fb1414f83905620f460b024bcff2dd1da430c",
            "0x0000000000000000000000000000000000000000000000000000000000000000",
            "0x000000000000000000000000927fb1414f83905620f460b024bcff2dd1da430c"
          ],
          "data": "0x5be68e84dee8b1f87d7e1d846228b58db1315d572b7fac1635d424236a8c414d0000000000000000000000000000000000000000000000000000000000000001",
          "blockHash": "0x152afc8bcaab056a9a5fd18f25b94230a617d4c25c80df58c7e04641d8f9a25c",
          "blockNumber": "0x69641d",
          "transactionHash": "0x06d59a6d52b7361b3403f95f6dd6bf82cf7fb70161b56c2cedddfbbd086c9ea7",
          "transactionIndex": "0x36",
          "logIndex": "0x82",
          "removed": false
        },
        {
          "address": "0x0635513f179d50a207757e05759cbd106d7dfce8",
          "topics": [
            "0x8ce7013e8abebc55c3890a68f5a27c67c3f7efa64e584de5fb22363c606fd340",
            "0x5be68e84dee8b1f87d7e1d846228b58db1315d572b7fac1635d424236a8c414d"
          ],
          "data": "0x0000000000000000000000000000000000000000000000000000000000000080000000000000000000000000927fb1414f83905620f460b024bcff2dd1da430c000000000000000000000000000000000000000000000000000000000000000000000000000000000000000000000000000000000000000000000000696bc8680000000000000000000000000000000000000000000000000000000000000020036173640c657468676c6f62616c2d7366096265657274616c696b0365746800",
          "blockHash": "0x152afc8bcaab056a9a5fd18f25b94230a617d4c25c80df58c7e04641d8f9a25c",
          "blockNumber": "0x69641d",
          "transactionHash": "0x06d59a6d52b7361b3403f95f6dd6bf82cf7fb70161b56c2cedddfbbd086c9ea7",
          "transactionIndex": "0x36",
          "logIndex": "0x83",
          "removed": false
        },
        {
          "address": "0x8fade66b79cc9f707ab26799354482eb93a5b7dd",
          "topics": [
            "0x65412581168e88a1e60c6459d7f44ae83ad0832e670826c05a4e2476b57af752",
            "0x5be68e84dee8b1f87d7e1d846228b58db1315d572b7fac1635d424236a8c414d"
          ],
          "data": "0x000000000000000000000000000000000000000000000000000000000000003c000000000000000000000000000000000000000000000000000000000000004000000000000000000000000000000000000000000000000000000000000000149f79941335e54a11ecd13cedf58375657fda97a1000000000000000000000000",
          "blockHash": "0x152afc8bcaab056a9a5fd18f25b94230a617d4c25c80df58c7e04641d8f9a25c",
          "blockNumber": "0x69641d",
          "transactionHash": "0x06d59a6d52b7361b3403f95f6dd6bf82cf7fb70161b56c2cedddfbbd086c9ea7",
          "transactionIndex": "0x36",
          "logIndex": "0x84",
          "removed": false
        },
        {
          "address": "0x8fade66b79cc9f707ab26799354482eb93a5b7dd",
          "topics": [
            "0x52d7d861f09ab3d26239d492e8968629f95e9e318cf0b73bfddc441522a15fd2",
            "0x5be68e84dee8b1f87d7e1d846228b58db1315d572b7fac1635d424236a8c414d"
          ],
          "data": "0x0000000000000000000000009f79941335e54a11ecd13cedf58375657fda97a1",
          "blockHash": "0x152afc8bcaab056a9a5fd18f25b94230a617d4c25c80df58c7e04641d8f9a25c",
          "blockNumber": "0x69641d",
          "transactionHash": "0x06d59a6d52b7361b3403f95f6dd6bf82cf7fb70161b56c2cedddfbbd086c9ea7",
          "transactionIndex": "0x36",
          "logIndex": "0x85",
          "removed": false
        },
        {
          "address": "0x00000000000c2e074ec69a0dfb2997ba6c7d2e1e",
          "topics": [
            "0xce0457fe73731f824cc272376169235128c118b49d344817417c6d108d155e82",
            "0x49b223fbc6586de7489c8879ed2098d4efcf2bef74205c9a887b8f581a8abef5",
            "0x87c2d362de99f75a4f2755cdaaad2d11bf6cc65dc71356593c445535ff28f43d"
          ],
          "data": "0x0000000000000000000000000635513f179d50a207757e05759cbd106d7dfce8",
          "blockHash": "0x152afc8bcaab056a9a5fd18f25b94230a617d4c25c80df58c7e04641d8f9a25c",
          "blockNumber": "0x69641d",
          "transactionHash": "0x06d59a6d52b7361b3403f95f6dd6bf82cf7fb70161b56c2cedddfbbd086c9ea7",
          "transactionIndex": "0x36",
          "logIndex": "0x86",
          "removed": false
        },
        {
          "address": "0x00000000000c2e074ec69a0dfb2997ba6c7d2e1e",
          "topics": [
            "0x335721b01866dc23fbee8b6b2c7b1e14d6f05c28cd35a2c934239f94095602a0",
            "0x5be68e84dee8b1f87d7e1d846228b58db1315d572b7fac1635d424236a8c414d"
          ],
          "data": "0x0000000000000000000000008fade66b79cc9f707ab26799354482eb93a5b7dd",
          "blockHash": "0x152afc8bcaab056a9a5fd18f25b94230a617d4c25c80df58c7e04641d8f9a25c",
          "blockNumber": "0x69641d",
          "transactionHash": "0x06d59a6d52b7361b3403f95f6dd6bf82cf7fb70161b56c2cedddfbbd086c9ea7",
          "transactionIndex": "0x36",
          "logIndex": "0x87",
          "removed": false
        },
        {
          "address": "0x0635513f179d50a207757e05759cbd106d7dfce8",
          "topics": [
            "0x39873f00c80f4f94b7bd1594aebcf650f003545b74824d57ddf4939e3ff3a34b",
            "0x5be68e84dee8b1f87d7e1d846228b58db1315d572b7fac1635d424236a8c414d"
          ],
          "data": "0x0000000000000000000000000000000000000000000000000000000000000000",
          "blockHash": "0x152afc8bcaab056a9a5fd18f25b94230a617d4c25c80df58c7e04641d8f9a25c",
          "blockNumber": "0x69641d",
          "transactionHash": "0x06d59a6d52b7361b3403f95f6dd6bf82cf7fb70161b56c2cedddfbbd086c9ea7",
          "transactionIndex": "0x36",
          "logIndex": "0x88",
          "removed": false
        }
      ],
      "logsBloom": "0x00000080200000400000004000000100000000000000000000000000100004000000000000002000100000000000000000040000000010000000000800022000004000000000000040000000000000000000010004000000000000000000000000000000020001000000000004000800000000200000000000000000400000000000010000000000000000000000000000000080000000000000000000800000000000000002040008000000040000000004000000040000000000040000000000000000002000000000000000004000000008010008001000000000000020000000000800000000000000000100000000000000000000000000080000000200",
      "type": "0x2",
      "transactionHash": "0x06d59a6d52b7361b3403f95f6dd6bf82cf7fb70161b56c2cedddfbbd086c9ea7",
      "transactionIndex": "0x36",
      "blockHash": "0x152afc8bcaab056a9a5fd18f25b94230a617d4c25c80df58c7e04641d8f9a25c",
      "blockNumber": "0x69641d",
      "gasUsed": "0x3d9be",
      "effectiveGasPrice": "0x148019",
      "from": "0x66664013474a29e9807d1736b1b1123f63345e22",
      "to": "0x927fb1414f83905620f460b024bcff2dd1da430c",
      "contractAddress": null
    }
  ],
  "libraries": [],
  "pending": [],
  "returns": {},
  "timestamp": 1729379895,
  "chain": 11155111,
  "commit": "759e856"
}