{
  "transactions": [
    {
      "hash": "0xca0b30a53f2cd6807c8d072deb63f2168f28a6bccb42209979bc6a68d96b3b6b",
      "transactionType": "CALL",
      "contractName": null,
      "contractAddress": "0x0635513f179d50a207757e05759cbd106d7dfce8",
      "function": "setSubnodeOwner(bytes32,string,address,uint32,uint64)",
      "arguments": [
        "0xb5062fa4a2e240553eefa7d5eb0452477daac3590a5cf9e4020631337a8cba3f",
        "ethglobal-sf",
        "0x66664013474a29e9807D1736B1B1123F63345e22",
        "0",
        "2021232060"
      ],
      "transaction": {
        "from": "0x66664013474a29e9807d1736b1b1123f63345e22",
        "to": "0x0635513f179d50a207757e05759cbd106d7dfce8",
        "gas": "0x28e11",
        "value": "0x0",
        "input": "0xc658e086b5062fa4a2e240553eefa7d5eb0452477daac3590a5cf9e4020631337a8cba3f00000000000000000000000000000000000000000000000000000000000000a000000000000000000000000066664013474a29e9807d1736b1b1123f63345e2200000000000000000000000000000000000000000000000000000000000000000000000000000000000000000000000000000000000000000000000078798dbc000000000000000000000000000000000000000000000000000000000000000c657468676c6f62616c2d73660000000000000000000000000000000000000000",
        "nonce": "0x15",
        "chainId": "0xaa36a7"
      },
      "additionalContracts": [],
      "isFixedGasLimit": false
    },
    {
      "hash": "0xfa4e955d915d05d26553c286279da0487640c391e322c31eef3ddc4dac95d0b7",
      "transactionType": "CALL",
      "contractName": null,
      "contractAddress": "0x8fade66b79cc9f707ab26799354482eb93a5b7dd",
      "function": "setAddr(bytes32,address)",
      "arguments": [
        "0x49b223fbc6586de7489c8879ed2098d4efcf2bef74205c9a887b8f581a8abef5",
        "0x7364B8b12A5aff8e60e847f7C5765f97949e92aD"
      ],
      "transaction": {
        "from": "0x66664013474a29e9807d1736b1b1123f63345e22",
        "to": "0x8fade66b79cc9f707ab26799354482eb93a5b7dd",
        "gas": "0x17883",
        "value": "0x0",
        "input": "0xd5fa2b0049b223fbc6586de7489c8879ed2098d4efcf2bef74205c9a887b8f581a8abef50000000000000000000000007364b8b12a5aff8e60e847f7c5765f97949e92ad",
        "nonce": "0x16",
        "chainId": "0xaa36a7"
      },
      "additionalContracts": [],
      "isFixedGasLimit": false
    },
    {
      "hash": "0x08975e7bd82192695117b768913a8811437785eed6578be6fcea00fb85a6589e",
      "transactionType": "CALL",
      "contractName": null,
      "contractAddress": "0x0635513f179d50a207757e05759cbd106d7dfce8",
      "function": "setSubnodeRecord(bytes32,string,address,address,uint64,uint32,uint64)",
      "arguments": [
        "0xb5062fa4a2e240553eefa7d5eb0452477daac3590a5cf9e4020631337a8cba3f",
        "ethglobal-sf",
        "0x7364B8b12A5aff8e60e847f7C5765f97949e92aD",
        "0x8FADE66B79cC9f707aB26799354482EB93a5B7dD",
        "0",
        "0",
        "2021232060"
      ],
      "transaction": {
        "from": "0x66664013474a29e9807d1736b1b1123f63345e22",
        "to": "0x0635513f179d50a207757e05759cbd106d7dfce8",
        "gas": "0x1e9a2",
        "value": "0x0",
        "input": "0x24c1af44b5062fa4a2e240553eefa7d5eb0452477daac3590a5cf9e4020631337a8cba3f00000000000000000000000000000000000000000000000000000000000000e00000000000000000000000007364b8b12a5aff8e60e847f7c5765f97949e92ad0000000000000000000000008fade66b79cc9f707ab26799354482eb93a5b7dd000000000000000000000000000000000000000000000000000000000000000000000000000000000000000000000000000000000000000000000000000000000000000000000000000000000000000000000000000000000000000078798dbc000000000000000000000000000000000000000000000000000000000000000c657468676c6f62616c2d73660000000000000000000000000000000000000000",
        "nonce": "0x17",
        "chainId": "0xaa36a7"
      },
      "additionalContracts": [],
      "isFixedGasLimit": false
    }
  ],
  "receipts": [
    {
      "status": "0x1",
      "cumulativeGasUsed": "0x73ec11",
      "logs": [
        {
          "address": "0x00000000000c2e074ec69a0dfb2997ba6c7d2e1e",
          "topics": [
            "0xce0457fe73731f824cc272376169235128c118b49d344817417c6d108d155e82",
            "0xb5062fa4a2e240553eefa7d5eb0452477daac3590a5cf9e4020631337a8cba3f",
            "0x967ef67a7148b30592bff4f2fee2b0f9bd80a91a6893dbff2513edf49a43b18f"
          ],
          "data": "0x0000000000000000000000000635513f179d50a207757e05759cbd106d7dfce8",
          "blockHash": "0xa67701574f1e12ea5b25d737a2aa7990c4851f71c62248701628dd1423388742",
          "blockNumber": "0x696403",
          "transactionHash": "0xca0b30a53f2cd6807c8d072deb63f2168f28a6bccb42209979bc6a68d96b3b6b",
          "transactionIndex": "0x33",
          "logIndex": "0x52",
          "removed": false
        },
        {
          "address": "0x0635513f179d50a207757e05759cbd106d7dfce8",
          "topics": [
            "0xc3d58168c5ae7397731d063d5bbf3d657854427343f4c083240f7aacaa2d0f62",
            "0x00000000000000000000000066664013474a29e9807d1736b1b1123f63345e22",
            "0x0000000000000000000000000000000000000000000000000000000000000000",
            "0x00000000000000000000000066664013474a29e9807d1736b1b1123f63345e22"
          ],
          "data": "0x49b223fbc6586de7489c8879ed2098d4efcf2bef74205c9a887b8f581a8abef50000000000000000000000000000000000000000000000000000000000000001",
          "blockHash": "0xa67701574f1e12ea5b25d737a2aa7990c4851f71c62248701628dd1423388742",
          "blockNumber": "0x696403",
          "transactionHash": "0xca0b30a53f2cd6807c8d072deb63f2168f28a6bccb42209979bc6a68d96b3b6b",
          "transactionIndex": "0x33",
          "logIndex": "0x53",
          "removed": false
        },
        {
          "address": "0x0635513f179d50a207757e05759cbd106d7dfce8",
          "topics": [
            "0x8ce7013e8abebc55c3890a68f5a27c67c3f7efa64e584de5fb22363c606fd340",
            "0x49b223fbc6586de7489c8879ed2098d4efcf2bef74205c9a887b8f581a8abef5"
          ],
          "data": "0x000000000000000000000000000000000000000000000000000000000000008000000000000000000000000066664013474a29e9807d1736b1b1123f63345e22000000000000000000000000000000000000000000000000000000000000000000000000000000000000000000000000000000000000000000000000696bc868000000000000000000000000000000000000000000000000000000000000001c0c657468676c6f62616c2d7366096265657274616c696b036574680000000000",
          "blockHash": "0xa67701574f1e12ea5b25d737a2aa7990c4851f71c62248701628dd1423388742",
          "blockNumber": "0x696403",
          "transactionHash": "0xca0b30a53f2cd6807c8d072deb63f2168f28a6bccb42209979bc6a68d96b3b6b",
          "transactionIndex": "0x33",
          "logIndex": "0x54",
          "removed": false
        }
      ],
      "logsBloom": "0x00000000200000400000000000000000000000000000000000000000000004000000001000000000000000000000000000400000000010040000000000002000004000000200000000000000000001000000000000000000000000000000000000000000020000000000000004000800000000200000000000000000000000000000010000000200000000000100000000000000000000000000000000800000000000000000040000000000000000000000000000000000000000040000000000000000000000000080000000004000000000000008000000000000000020000000000800000000000000000100000000000000000000000000080100000200",
      "type": "0x2",
      "transactionHash": "0xca0b30a53f2cd6807c8d072deb63f2168f28a6bccb42209979bc6a68d96b3b6b",
      "transactionIndex": "0x33",
      "blockHash": "0xa67701574f1e12ea5b25d737a2aa7990c4851f71c62248701628dd1423388742",
      "blockNumber": "0x696403",
      "gasUsed": "0x1bf3a",
      "effectiveGasPrice": "0x140085",
      "from": "0x66664013474a29e9807d1736b1b1123f63345e22",
      "to": "0x0635513f179d50a207757e05759cbd106d7dfce8",
      "contractAddress": null
    },
    {
      "status": "0x1",
      "cumulativeGasUsed": "0x74ed83",
      "logs": [
        {
          "address": "0x8fade66b79cc9f707ab26799354482eb93a5b7dd",
          "topics": [
            "0x65412581168e88a1e60c6459d7f44ae83ad0832e670826c05a4e2476b57af752",
            "0x49b223fbc6586de7489c8879ed2098d4efcf2bef74205c9a887b8f581a8abef5"
          ],
          "data": "0x000000000000000000000000000000000000000000000000000000000000003c000000000000000000000000000000000000000000000000000000000000004000000000000000000000000000000000000000000000000000000000000000147364b8b12a5aff8e60e847f7c5765f97949e92ad000000000000000000000000",
          "blockHash": "0xa67701574f1e12ea5b25d737a2aa7990c4851f71c62248701628dd1423388742",
          "blockNumber": "0x696403",
          "transactionHash": "0xfa4e955d915d05d26553c286279da0487640c391e322c31eef3ddc4dac95d0b7",
          "transactionIndex": "0x34",
          "logIndex": "0x55",
          "removed": false
        },
        {
          "address": "0x8fade66b79cc9f707ab26799354482eb93a5b7dd",
          "topics": [
            "0x52d7d861f09ab3d26239d492e8968629f95e9e318cf0b73bfddc441522a15fd2",
            "0x49b223fbc6586de7489c8879ed2098d4efcf2bef74205c9a887b8f581a8abef5"
          ],
          "data": "0x0000000000000000000000007364b8b12a5aff8e60e847f7c5765f97949e92ad",
          "blockHash": "0xa67701574f1e12ea5b25d737a2aa7990c4851f71c62248701628dd1423388742",
          "blockNumber": "0x696403",
          "transactionHash": "0xfa4e955d915d05d26553c286279da0487640c391e322c31eef3ddc4dac95d0b7",
          "transactionIndex": "0x34",
          "logIndex": "0x56",
          "removed": false
        }
      ],
      "logsBloom": "0x00000000200000000000000000000100000000000000000000000000100000000000000000000000100000000000000000000000000000000000000000000000004000000000000000000000000000000000000004000000000000000000000000000000000000000000000000000000000000000000000000000000000000000000000000000000000000000000000000000000000000000000000000000000000000000002000008000000040000000000000000000000000000000000000000000000002000000000000000000000000008000000000000000000000000000000000000000000000000000000000000000000000000000000000000000200",
      "type": "0x2",
      "transactionHash": "0xfa4e955d915d05d26553c286279da0487640c391e322c31eef3ddc4dac95d0b7",
      "transactionIndex": "0x34",
      "blockHash": "0xa67701574f1e12ea5b25d737a2aa7990c4851f71c62248701628dd1423388742",
      "blockNumber": "0x696403",
      "gasUsed": "0x10172",
      "effectiveGasPrice": "0x140085",
      "from": "0x66664013474a29e9807d1736b1b1123f63345e22",
      "to": "0x8fade66b79cc9f707ab26799354482eb93a5b7dd",
      "contractAddress": null
    },
    {
      "status": "0x1",
      "cumulativeGasUsed": "0x765000",
      "logs": [
        {
          "address": "0x00000000000c2e074ec69a0dfb2997ba6c7d2e1e",
          "topics": [
            "0xce0457fe73731f824cc272376169235128c118b49d344817417c6d108d155e82",
            "0xb5062fa4a2e240553eefa7d5eb0452477daac3590a5cf9e4020631337a8cba3f",
            "0x967ef67a7148b30592bff4f2fee2b0f9bd80a91a6893dbff2513edf49a43b18f"
          ],
          "data": "0x0000000000000000000000000635513f179d50a207757e05759cbd106d7dfce8",
          "blockHash": "0xa67701574f1e12ea5b25d737a2aa7990c4851f71c62248701628dd1423388742",
          "blockNumber": "0x696403",
          "transactionHash": "0x08975e7bd82192695117b768913a8811437785eed6578be6fcea00fb85a6589e",
          "transactionIndex": "0x35",
          "logIndex": "0x57",
          "removed": false
        },
        {
          "address": "0x00000000000c2e074ec69a0dfb2997ba6c7d2e1e",
          "topics": [
            "0x335721b01866dc23fbee8b6b2c7b1e14d6f05c28cd35a2c934239f94095602a0",
            "0x49b223fbc6586de7489c8879ed2098d4efcf2bef74205c9a887b8f581a8abef5"
          ],
          "data": "0x0000000000000000000000008fade66b79cc9f707ab26799354482eb93a5b7dd",
          "blockHash": "0xa67701574f1e12ea5b25d737a2aa7990c4851f71c62248701628dd1423388742",
          "blockNumber": "0x696403",
          "transactionHash": "0x08975e7bd82192695117b768913a8811437785eed6578be6fcea00fb85a6589e",
          "transactionIndex": "0x35",
          "logIndex": "0x58",
          "removed": false
        },
        {
          "address": "0x0635513f179d50a207757e05759cbd106d7dfce8",
          "topics": [
            "0x39873f00c80f4f94b7bd1594aebcf650f003545b74824d57ddf4939e3ff3a34b",
            "0x49b223fbc6586de7489c8879ed2098d4efcf2bef74205c9a887b8f581a8abef5"
          ],
          "data": "0x0000000000000000000000000000000000000000000000000000000000000000",
          "blockHash": "0xa67701574f1e12ea5b25d737a2aa7990c4851f71c62248701628dd1423388742",
          "blockNumber": "0x696403",
          "transactionHash": "0x08975e7bd82192695117b768913a8811437785eed6578be6fcea00fb85a6589e",
          "transactionIndex": "0x35",
          "logIndex": "0x59",
          "removed": false
        },
        {
          "address": "0x0635513f179d50a207757e05759cbd106d7dfce8",
          "topics": [
            "0xc3d58168c5ae7397731d063d5bbf3d657854427343f4c083240f7aacaa2d0f62",
            "0x00000000000000000000000066664013474a29e9807d1736b1b1123f63345e22",
            "0x00000000000000000000000066664013474a29e9807d1736b1b1123f63345e22",
            "0x0000000000000000000000007364b8b12a5aff8e60e847f7c5765f97949e92ad"
          ],
          "data": "0x49b223fbc6586de7489c8879ed2098d4efcf2bef74205c9a887b8f581a8abef50000000000000000000000000000000000000000000000000000000000000001",
          "blockHash": "0xa67701574f1e12ea5b25d737a2aa7990c4851f71c62248701628dd1423388742",
          "blockNumber": "0x696403",
          "transactionHash": "0x08975e7bd82192695117b768913a8811437785eed6578be6fcea00fb85a6589e",
          "transactionIndex": "0x35",
          "logIndex": "0x5a",
          "removed": false
        }
      ],
      "logsBloom": "0x00000000200000400000004000000000000000000000000000000000000004000000001000000000000000000000000000400000000010040000000000022000004000000200000040000000000001000000000000000000000000000000000000000000000000000000000004000000000000000000000000000000000000000000010000000200000000000100000000000080000000000000000000004000000000000200040000000000000000000004000000000000000000040000000000000000000000000080000000004080000000010008000000000000000000000000000000000000000000000100000000000000000000000000080100000200",
      "type": "0x2",
      "transactionHash": "0x08975e7bd82192695117b768913a8811437785eed6578be6fcea00fb85a6589e",
      "transactionIndex": "0x35",
      "blockHash": "0xa67701574f1e12ea5b25d737a2aa7990c4851f71c62248701628dd1423388742",
      "blockNumber": "0x696403",
      "gasUsed": "0x1627d",
      "effectiveGasPrice": "0x140085",
      "from": "0x66664013474a29e9807d1736b1b1123f63345e22",
      "to": "0x0635513f179d50a207757e05759cbd106d7dfce8",
      "contractAddress": null
    }
  ],
  "libraries": [],
  "pending": [],
  "returns": {},
  "timestamp": 1729379525,
  "chain": 11155111,
  "commit": "759e856"
}