{
  "transactions": [
    {
      "hash": "0x1ab1def559286afe99e6d9d305df997e91ecc51fb329d81bf72a17357b555da9",
      "transactionType": "CALL",
      "contractName": null,
      "contractAddress": "0x0635513f179d50a207757e05759cbd106d7dfce8",
      "function": "setSubnodeOwner(bytes32,string,address,uint32,uint64)",
      "arguments": [
        "0xb5062fa4a2e240553eefa7d5eb0452477daac3590a5cf9e4020631337a8cba3f",
        "asd",
        "0x66664013474a29e9807D1736B1B1123F63345e22",
        "0",
        "2021232060"
      ],
      "transaction": {
        "from": "0x66664013474a29e9807d1736b1b1123f63345e22",
        "to": "0x0635513f179d50a207757e05759cbd106d7dfce8",
        "gas": "0x26925",
        "value": "0x0",
        "input": "0xc658e086b5062fa4a2e240553eefa7d5eb0452477daac3590a5cf9e4020631337a8cba3f00000000000000000000000000000000000000000000000000000000000000a000000000000000000000000066664013474a29e9807d1736b1b1123f63345e2200000000000000000000000000000000000000000000000000000000000000000000000000000000000000000000000000000000000000000000000078798dbc00000000000000000000000000000000000000000000000000000000000000036173640000000000000000000000000000000000000000000000000000000000",
        "nonce": "0x5",
        "chainId": "0xaa36a7"
      },
      "additionalContracts": [],
      "isFixedGasLimit": false
    },
    {
      "hash": "0x36812cf7d92cfc6b8bd7cea21adddacb77fa25c0dcde09cedd2086b6f5ee3879",
      "transactionType": "CALL",
      "contractName": null,
      "contractAddress": "0x8fade66b79cc9f707ab26799354482eb93a5b7dd",
      "function": "setAddr(bytes32,address)",
      "arguments": [
        "0x18cc811d5b90c905ef1036c524afd8c3963d1d97db0ba1009bf0883f53177c12",
        "0x0000000000000000000000000000000000001337"
      ],
      "transaction": {
        "from": "0x66664013474a29e9807d1736b1b1123f63345e22",
        "to": "0x8fade66b79cc9f707ab26799354482eb93a5b7dd",
        "gas": "0x1625c",
        "value": "0x0",
        "input": "0xd5fa2b0018cc811d5b90c905ef1036c524afd8c3963d1d97db0ba1009bf0883f53177c120000000000000000000000000000000000000000000000000000000000001337",
        "nonce": "0x6",
        "chainId": "0xaa36a7"
      },
      "additionalContracts": [],
      "isFixedGasLimit": false
    },
    {
      "hash": "0xd2ceb77e4ccd9b89fc4b3fc201223ed097e8a51e7e48d9fe68e2f9f0f67f94f2",
      "transactionType": "CALL",
      "contractName": null,
      "contractAddress": "0x0635513f179d50a207757e05759cbd106d7dfce8",
      "function": "setSubnodeRecord(bytes32,string,address,address,uint64,uint32,uint64)",
      "arguments": [
        "0xb5062fa4a2e240553eefa7d5eb0452477daac3590a5cf9e4020631337a8cba3f",
        "asd",
        "0x66664013474a29e9807D1736B1B1123F63345e22",
        "0x8FADE66B79cC9f707aB26799354482EB93a5B7dD",
        "0",
        "0",
        "2021232060"
      ],
      "transaction": {
        "from": "0x66664013474a29e9807d1736b1b1123f63345e22",
        "to": "0x0635513f179d50a207757e05759cbd106d7dfce8",
        "gas": "0x1cba5",
        "value": "0x0",
        "input": "0x24c1af44b5062fa4a2e240553eefa7d5eb0452477daac3590a5cf9e4020631337a8cba3f00000000000000000000000000000000000000000000000000000000000000e000000000000000000000000066664013474a29e9807d1736b1b1123f63345e220000000000000000000000008fade66b79cc9f707ab26799354482eb93a5b7dd000000000000000000000000000000000000000000000000000000000000000000000000000000000000000000000000000000000000000000000000000000000000000000000000000000000000000000000000000000000000000078798dbc00000000000000000000000000000000000000000000000000000000000000036173640000000000000000000000000000000000000000000000000000000000",
        "nonce": "0x7",
        "chainId": "0xaa36a7"
      },
      "additionalContracts": [],
      "isFixedGasLimit": false
    }
  ],
  "receipts": [
    {
      "status": "0x1",
      "cumulativeGasUsed": "0x49191d",
      "logs": [
        {
          "address": "0x00000000000c2e074ec69a0dfb2997ba6c7d2e1e",
          "topics": [
            "0xce0457fe73731f824cc272376169235128c118b49d344817417c6d108d155e82",
            "0xb5062fa4a2e240553eefa7d5eb0452477daac3590a5cf9e4020631337a8cba3f",
            "0x87c2d362de99f75a4f2755cdaaad2d11bf6cc65dc71356593c445535ff28f43d"
          ],
          "data": "0x0000000000000000000000000635513f179d50a207757e05759cbd106d7dfce8",
          "blockHash": "0x7f8995942da5f30042f561b7c0c5fdcbf35a3d84d5133c7b3b09626ec45d283f",
          "blockNumber": "0x6960ef",
          "transactionHash": "0x1ab1def559286afe99e6d9d305df997e91ecc51fb329d81bf72a17357b555da9",
          "transactionIndex": "0x26",
          "logIndex": "0x58",
          "removed": false
        },
        {
          "address": "0x0635513f179d50a207757e05759cbd106d7dfce8",
          "topics": [
            "0xc3d58168c5ae7397731d063d5bbf3d657854427343f4c083240f7aacaa2d0f62",
            "0x00000000000000000000000066664013474a29e9807d1736b1b1123f63345e22",
            "0x0000000000000000000000000000000000000000000000000000000000000000",
            "0x00000000000000000000000066664013474a29e9807d1736b1b1123f63345e22"
          ],
          "data": "0x18cc811d5b90c905ef1036c524afd8c3963d1d97db0ba1009bf0883f53177c120000000000000000000000000000000000000000000000000000000000000001",
          "blockHash": "0x7f8995942da5f30042f561b7c0c5fdcbf35a3d84d5133c7b3b09626ec45d283f",
          "blockNumber": "0x6960ef",
          "transactionHash": "0x1ab1def559286afe99e6d9d305df997e91ecc51fb329d81bf72a17357b555da9",
          "transactionIndex": "0x26",
          "logIndex": "0x59",
          "removed": false
        },
        {
          "address": "0x0635513f179d50a207757e05759cbd106d7dfce8",
          "topics": [
            "0x8ce7013e8abebc55c3890a68f5a27c67c3f7efa64e584de5fb22363c606fd340",
            "0x18cc811d5b90c905ef1036c524afd8c3963d1d97db0ba1009bf0883f53177c12"
          ],
          "data": "0x000000000000000000000000000000000000000000000000000000000000008000000000000000000000000066664013474a29e9807d1736b1b1123f63345e22000000000000000000000000000000000000000000000000000000000000000000000000000000000000000000000000000000000000000000000000696bc868000000000000000000000000000000000000000000000000000000000000001303617364096265657274616c696b036574680000000000000000000000000000",
          "blockHash": "0x7f8995942da5f30042f561b7c0c5fdcbf35a3d84d5133c7b3b09626ec45d283f",
          "blockNumber": "0x6960ef",
          "transactionHash": "0x1ab1def559286afe99e6d9d305df997e91ecc51fb329d81bf72a17357b555da9",
          "transactionIndex": "0x26",
          "logIndex": "0x5a",
          "removed": false
        }
      ],
      "logsBloom": "0x00000000000000400000000000000000000000000000000000000000000004000000000000000000000000000000000000400010000010040000000000002000000000000200000000000000000001000000000000008000000000000000000000000000020001000000000004000800000000200000000000000000400000000000010000000000000000000100000000000000000000000000000000800000000000000000040000000000000000000000000000040000000000040000000000000000000000000080000000004000000000000008000000000000000020000000000802000000000000000100000000000000000000000000080000000000",
      "type": "0x2",
      "transactionHash": "0x1ab1def559286afe99e6d9d305df997e91ecc51fb329d81bf72a17357b555da9",
      "transactionIndex": "0x26",
      "blockHash": "0x7f8995942da5f30042f561b7c0c5fdcbf35a3d84d5133c7b3b09626ec45d283f",
      "blockNumber": "0x6960ef",
      "gasUsed": "0x1bece",
      "effectiveGasPrice": "0x1195b06",
      "from": "0x66664013474a29e9807d1736b1b1123f63345e22",
      "to": "0x0635513f179d50a207757e05759cbd106d7dfce8",
      "contractAddress": null
    },
    {
      "status": "0x1",
      "cumulativeGasUsed": "0x4a19ab",
      "logs": [
        {
          "address": "0x8fade66b79cc9f707ab26799354482eb93a5b7dd",
          "topics": [
            "0x65412581168e88a1e60c6459d7f44ae83ad0832e670826c05a4e2476b57af752",
            "0x18cc811d5b90c905ef1036c524afd8c3963d1d97db0ba1009bf0883f53177c12"
          ],
          "data": "0x000000000000000000000000000000000000000000000000000000000000003c000000000000000000000000000000000000000000000000000000000000004000000000000000000000000000000000000000000000000000000000000000140000000000000000000000000000000000001337000000000000000000000000",
          "blockHash": "0x7f8995942da5f30042f561b7c0c5fdcbf35a3d84d5133c7b3b09626ec45d283f",
          "blockNumber": "0x6960ef",
          "transactionHash": "0x36812cf7d92cfc6b8bd7cea21adddacb77fa25c0dcde09cedd2086b6f5ee3879",
          "transactionIndex": "0x27",
          "logIndex": "0x5b",
          "removed": false
        },
        {
          "address": "0x8fade66b79cc9f707ab26799354482eb93a5b7dd",
          "topics": [
            "0x52d7d861f09ab3d26239d492e8968629f95e9e318cf0b73bfddc441522a15fd2",
            "0x18cc811d5b90c905ef1036c524afd8c3963d1d97db0ba1009bf0883f53177c12"
          ],
          "data": "0x0000000000000000000000000000000000000000000000000000000000001337",
          "blockHash": "0x7f8995942da5f30042f561b7c0c5fdcbf35a3d84d5133c7b3b09626ec45d283f",
          "blockNumber": "0x6960ef",
          "transactionHash": "0x36812cf7d92cfc6b8bd7cea21adddacb77fa25c0dcde09cedd2086b6f5ee3879",
          "transactionIndex": "0x27",
          "logIndex": "0x5c",
          "removed": false
        }
      ],
      "logsBloom": "0x00000000000000000000000000000100000000000000000000000000100000000000000000000000100000000000000000000010000000000000000000000000000000000000000000000000000000000000000004008000000000000000000000000000000000000000000000000000000000000000000000000000000000000000000000000000000000000000000000000000000000000000000000000000000000000002000008000000040000000000000000000000000000000000000000000000002000000000000000000000000008000000000000000000000000000000000002000000000000000000000000000000000000000000000000000000",
      "type": "0x2",
      "transactionHash": "0x36812cf7d92cfc6b8bd7cea21adddacb77fa25c0dcde09cedd2086b6f5ee3879",
      "transactionIndex": "0x27",
      "blockHash": "0x7f8995942da5f30042f561b7c0c5fdcbf35a3d84d5133c7b3b09626ec45d283f",
      "blockNumber": "0x6960ef",
      "gasUsed": "0x1008e",
      "effectiveGasPrice": "0x1195b06",
      "from": "0x66664013474a29e9807d1736b1b1123f63345e22",
      "to": "0x8fade66b79cc9f707ab26799354482eb93a5b7dd",
      "contractAddress": null
    },
    {
      "status": "0x1",
      "cumulativeGasUsed": "0x4b53f5",
      "logs": [
        {
          "address": "0x00000000000c2e074ec69a0dfb2997ba6c7d2e1e",
          "topics": [
            "0xce0457fe73731f824cc272376169235128c118b49d344817417c6d108d155e82",
            "0xb5062fa4a2e240553eefa7d5eb0452477daac3590a5cf9e4020631337a8cba3f",
            "0x87c2d362de99f75a4f2755cdaaad2d11bf6cc65dc71356593c445535ff28f43d"
          ],
          "data": "0x0000000000000000000000000635513f179d50a207757e05759cbd106d7dfce8",
          "blockHash": "0x7f8995942da5f30042f561b7c0c5fdcbf35a3d84d5133c7b3b09626ec45d283f",
          "blockNumber": "0x6960ef",
          "transactionHash": "0xd2ceb77e4ccd9b89fc4b3fc201223ed097e8a51e7e48d9fe68e2f9f0f67f94f2",
          "transactionIndex": "0x28",
          "logIndex": "0x5d",
          "removed": false
        },
        {
          "address": "0x00000000000c2e074ec69a0dfb2997ba6c7d2e1e",
          "topics": [
            "0x335721b01866dc23fbee8b6b2c7b1e14d6f05c28cd35a2c934239f94095602a0",
            "0x18cc811d5b90c905ef1036c524afd8c3963d1d97db0ba1009bf0883f53177c12"
          ],
          "data": "0x0000000000000000000000008fade66b79cc9f707ab26799354482eb93a5b7dd",
          "blockHash": "0x7f8995942da5f30042f561b7c0c5fdcbf35a3d84d5133c7b3b09626ec45d283f",
          "blockNumber": "0x6960ef",
          "transactionHash": "0xd2ceb77e4ccd9b89fc4b3fc201223ed097e8a51e7e48d9fe68e2f9f0f67f94f2",
          "transactionIndex": "0x28",
          "logIndex": "0x5e",
          "removed": false
        },
        {
          "address": "0x0635513f179d50a207757e05759cbd106d7dfce8",
          "topics": [
            "0x39873f00c80f4f94b7bd1594aebcf650f003545b74824d57ddf4939e3ff3a34b",
            "0x18cc811d5b90c905ef1036c524afd8c3963d1d97db0ba1009bf0883f53177c12"
          ],
          "data": "0x0000000000000000000000000000000000000000000000000000000000000000",
          "blockHash": "0x7f8995942da5f30042f561b7c0c5fdcbf35a3d84d5133c7b3b09626ec45d283f",
          "blockNumber": "0x6960ef",
          "transactionHash": "0xd2ceb77e4ccd9b89fc4b3fc201223ed097e8a51e7e48d9fe68e2f9f0f67f94f2",
          "transactionIndex": "0x28",
          "logIndex": "0x5f",
          "removed": false
        }
      ],
      "logsBloom": "0x00000000000000400000004000000000000000000000000000000000000004000000000000000000000000000000000000400010000010000000000000020000000000000000000040000000000001000000000000008000000000000000000000000000000001000000000004000000000000000000000000000000400000000000010000000000000000000100000000000080000000000000000000000000000000000000040000000000000000000004000000040000000000040000000000000000000000000000000000004000000000010000000000000000000000000000000002000000000000000100000000000000000000000000000000000000",
      "type": "0x2",
      "transactionHash": "0xd2ceb77e4ccd9b89fc4b3fc201223ed097e8a51e7e48d9fe68e2f9f0f67f94f2",
      "transactionIndex": "0x28",
      "blockHash": "0x7f8995942da5f30042f561b7c0c5fdcbf35a3d84d5133c7b3b09626ec45d283f",
      "blockNumber": "0x6960ef",
      "gasUsed": "0x13a4a",
      "effectiveGasPrice": "0x1195b06",
      "from": "0x66664013474a29e9807d1736b1b1123f63345e22",
      "to": "0x0635513f179d50a207757e05759cbd106d7dfce8",
      "contractAddress": null
    }
  ],
  "libraries": [],
  "pending": [],
  "returns": {},
  "timestamp": 1729368208,
  "chain": 11155111,
  "commit": "b0cf2ab"
}