{
  "transactions": [
    {
      "hash": "0x0f23f967c3e0709bd768b006220d76c58bbf6e0899eb0e79782a10e823954d90",
      "transactionType": "CALL",
      "contractName": null,
      "contractAddress": "0x7364b8b12a5aff8e60e847f7c5765f97949e92ad",
      "function": "registerSubname(string,address)",
      "arguments": [
        "asd",
        "0x66664013474a29e9807D1736B1B1123F63345e22"
      ],
      "transaction": {
        "from": "0x66664013474a29e9807d1736b1b1123f63345e22",
        "to": "0x7364b8b12a5aff8e60e847f7c5765f97949e92ad",
        "gas": "0x225c4",
        "value": "0x0",
        "input": "0x656bb536000000000000000000000000000000000000000000000000000000000000004000000000000000000000000066664013474a29e9807d1736b1b1123f63345e2200000000000000000000000000000000000000000000000000000000000000036173640000000000000000000000000000000000000000000000000000000000",
        "nonce": "0xe",
        "chainId": "0xaa36a7"
      },
      "additionalContracts": [],
      "isFixedGasLimit": false
    }
  ],
  "receipts": [
    {
      "status": "0x1",
      "cumulativeGasUsed": "0x46e991",
      "logs": [
        {
          "address": "0x0635513f179d50a207757e05759cbd106d7dfce8",
          "topics": [
            "0x39873f00c80f4f94b7bd1594aebcf650f003545b74824d57ddf4939e3ff3a34b",
            "0x7cdf0fa3738469e14c57b48620ea2ce86c697cdbe4ca115d122942fff06c197e"
          ],
          "data": "0x0000000000000000000000000000000000000000000000000000000000000000",
          "blockHash": "0x5d4bb1abc9035efc5460223cbe57b43b1f7592bf529b3d5e01bdee4baf8f95e9",
          "blockNumber": "0x69634d",
          "transactionHash": "0x0f23f967c3e0709bd768b006220d76c58bbf6e0899eb0e79782a10e823954d90",
          "transactionIndex": "0x1a",
          "logIndex": "0x36",
          "removed": false
        },
        {
          "address": "0x8fade66b79cc9f707ab26799354482eb93a5b7dd",
          "topics": [
            "0x65412581168e88a1e60c6459d7f44ae83ad0832e670826c05a4e2476b57af752",
            "0x7cdf0fa3738469e14c57b48620ea2ce86c697cdbe4ca115d122942fff06c197e"
          ],
          "data": "0x000000000000000000000000000000000000000000000000000000000000003c0000000000000000000000000000000000000000000000000000000000000040000000000000000000000000000000000000000000000000000000000000001466664013474a29e9807d1736b1b1123f63345e22000000000000000000000000",
          "blockHash": "0x5d4bb1abc9035efc5460223cbe57b43b1f7592bf529b3d5e01bdee4baf8f95e9",
          "blockNumber": "0x69634d",
          "transactionHash": "0x0f23f967c3e0709bd768b006220d76c58bbf6e0899eb0e79782a10e823954d90",
          "transactionIndex": "0x1a",
          "logIndex": "0x37",
          "removed": false
        },
        {
          "address": "0x8fade66b79cc9f707ab26799354482eb93a5b7dd",
          "topics": [
            "0x52d7d861f09ab3d26239d492e8968629f95e9e318cf0b73bfddc441522a15fd2",
            "0x7cdf0fa3738469e14c57b48620ea2ce86c697cdbe4ca115d122942fff06c197e"
          ],
          "data": "0x00000000000000000000000066664013474a29e9807d1736b1b1123f63345e22",
          "blockHash": "0x5d4bb1abc9035efc5460223cbe57b43b1f7592bf529b3d5e01bdee4baf8f95e9",
          "blockNumber": "0x69634d",
          "transactionHash": "0x0f23f967c3e0709bd768b006220d76c58bbf6e0899eb0e79782a10e823954d90",
          "transactionIndex": "0x1a",
          "logIndex": "0x38",
          "removed": false
        },
        {
          "address": "0x00000000000c2e074ec69a0dfb2997ba6c7d2e1e",
          "topics": [
            "0xce0457fe73731f824cc272376169235128c118b49d344817417c6d108d155e82",
            "0x596fcfb152234abeec0a336af85ed296f4a529b1feb1a726c8f4223689f9cedc",
            "0x87c2d362de99f75a4f2755cdaaad2d11bf6cc65dc71356593c445535ff28f43d"
          ],
          "data": "0x0000000000000000000000000635513f179d50a207757e05759cbd106d7dfce8",
          "blockHash": "0x5d4bb1abc9035efc5460223cbe57b43b1f7592bf529b3d5e01bdee4baf8f95e9",
          "blockNumber": "0x69634d",
          "transactionHash": "0x0f23f967c3e0709bd768b006220d76c58bbf6e0899eb0e79782a10e823954d90",
          "transactionIndex": "0x1a",
          "logIndex": "0x39",
          "removed": false
        },
        {
          "address": "0x0635513f179d50a207757e05759cbd106d7dfce8",
          "topics": [
            "0x39873f00c80f4f94b7bd1594aebcf650f003545b74824d57ddf4939e3ff3a34b",
            "0x7cdf0fa3738469e14c57b48620ea2ce86c697cdbe4ca115d122942fff06c197e"
          ],
          "data": "0x0000000000000000000000000000000000000000000000000000000000000000",
          "blockHash": "0x5d4bb1abc9035efc5460223cbe57b43b1f7592bf529b3d5e01bdee4baf8f95e9",
          "blockNumber": "0x69634d",
          "transactionHash": "0x0f23f967c3e0709bd768b006220d76c58bbf6e0899eb0e79782a10e823954d90",
          "transactionIndex": "0x1a",
          "logIndex": "0x3a",
          "removed": false
        }
      ],
      "logsBloom": "0x00000000000000400000004000000100000000000000000020000000100004000000000000000200100000000000000000000000000010400000000000000000000000000000000000000002000000000000000004000000000000000000000000000000000001000000000004000000000000000000000000000000400000000000010000400000000000000000000000000080000000000000000000000000000000000002040008000000040000000000000000040000000000040000000000000000002000000000000000004000000008010000000000000000000000002000000000000000000000000100000000000000000000000000000000000000",
      "type": "0x2",
      "transactionHash": "0x0f23f967c3e0709bd768b006220d76c58bbf6e0899eb0e79782a10e823954d90",
      "transactionIndex": "0x1a",
      "blockHash": "0x5d4bb1abc9035efc5460223cbe57b43b1f7592bf529b3d5e01bdee4baf8f95e9",
      "blockNumber": "0x69634d",
      "gasUsed": "0x18e06",
      "effectiveGasPrice": "0x10febe",
      "from": "0x66664013474a29e9807d1736b1b1123f63345e22",
      "to": "0x7364b8b12a5aff8e60e847f7c5765f97949e92ad",
      "contractAddress": null
    }
  ],
  "libraries": [],
  "pending": [],
  "returns": {},
  "timestamp": 1729376788,
  "chain": 11155111,
  "commit": "759e856"
}