{
  "transactions": [
    {
      "hash": "0x25d0b2ddd3dd42b042b5b3aa2b5218431b61e98075763c5ccd015cea1410d741",
      "transactionType": "CALL",
      "contractName": null,
      "contractAddress": "0x0635513f179d50a207757e05759cbd106d7dfce8",
      "function": "setSubnodeOwner(bytes32,string,address,uint32,uint64)",
      "arguments": [
        "0xb5062fa4a2e240553eefa7d5eb0452477daac3590a5cf9e4020631337a8cba3f",
        "test2",
        "0x66664013474a29e9807D1736B1B1123F63345e22",
        "0",
        "2021232060"
      ],
      "transaction": {
        "from": "0x66664013474a29e9807d1736b1b1123f63345e22",
        "to": "0x0635513f179d50a207757e05759cbd106d7dfce8",
        "gas": "0x26946",
        "value": "0x0",
        "input": "0xc658e086b5062fa4a2e240553eefa7d5eb0452477daac3590a5cf9e4020631337a8cba3f00000000000000000000000000000000000000000000000000000000000000a000000000000000000000000066664013474a29e9807d1736b1b1123f63345e2200000000000000000000000000000000000000000000000000000000000000000000000000000000000000000000000000000000000000000000000078798dbc00000000000000000000000000000000000000000000000000000000000000057465737432000000000000000000000000000000000000000000000000000000",
        "nonce": "0x9",
        "chainId": "0xaa36a7"
      },
      "additionalContracts": [],
      "isFixedGasLimit": false
    },
    {
      "hash": "0x88bbb0081e2b26e501300a22654c03d42e239ca22bd00e66d0ae3ac888316613",
      "transactionType": "CALL",
      "contractName": null,
      "contractAddress": "0x8fade66b79cc9f707ab26799354482eb93a5b7dd",
      "function": "setAddr(bytes32,address)",
      "arguments": [
        "0x596fcfb152234abeec0a336af85ed296f4a529b1feb1a726c8f4223689f9cedc",
        "0x7364B8b12A5aff8e60e847f7C5765f97949e92aD"
      ],
      "transaction": {
        "from": "0x66664013474a29e9807d1736b1b1123f63345e22",
        "to": "0x8fade66b79cc9f707ab26799354482eb93a5b7dd",
        "gas": "0x17883",
        "value": "0x0",
        "input": "0xd5fa2b00596fcfb152234abeec0a336af85ed296f4a529b1feb1a726c8f4223689f9cedc0000000000000000000000007364b8b12a5aff8e60e847f7c5765f97949e92ad",
        "nonce": "0xa",
        "chainId": "0xaa36a7"
      },
      "additionalContracts": [],
      "isFixedGasLimit": false
    },
    {
      "hash": "0xb0abb2516c481780a16b2a1b24fb839d47544be3ed72a587455bf8dac1eaef2a",
      "transactionType": "CALL",
      "contractName": null,
      "contractAddress": "0x0635513f179d50a207757e05759cbd106d7dfce8",
      "function": "setSubnodeRecord(bytes32,string,address,address,uint64,uint32,uint64)",
      "arguments": [
        "0xb5062fa4a2e240553eefa7d5eb0452477daac3590a5cf9e4020631337a8cba3f",
        "test2",
        "0x7364B8b12A5aff8e60e847f7C5765f97949e92aD",
        "0x8FADE66B79cC9f707aB26799354482EB93a5B7dD",
        "0",
        "0",
        "2021232060"
      ],
      "transaction": {
        "from": "0x66664013474a29e9807d1736b1b1123f63345e22",
        "to": "0x0635513f179d50a207757e05759cbd106d7dfce8",
        "gas": "0x205f5",
        "value": "0x0",
        "input": "0x24c1af44b5062fa4a2e240553eefa7d5eb0452477daac3590a5cf9e4020631337a8cba3f00000000000000000000000000000000000000000000000000000000000000e00000000000000000000000007364b8b12a5aff8e60e847f7c5765f97949e92ad0000000000000000000000008fade66b79cc9f707ab26799354482eb93a5b7dd000000000000000000000000000000000000000000000000000000000000000000000000000000000000000000000000000000000000000000000000000000000000000000000000000000000000000000000000000000000000000078798dbc00000000000000000000000000000000000000000000000000000000000000057465737432000000000000000000000000000000000000000000000000000000",
        "nonce": "0xb",
        "chainId": "0xaa36a7"
      },
      "additionalContracts": [],
      "isFixedGasLimit": false
    }
  ],
  "receipts": [
    {
      "status": "0x1",
      "cumulativeGasUsed": "0x7b3eb7",
      "logs": [
        {
          "address": "0x00000000000c2e074ec69a0dfb2997ba6c7d2e1e",
          "topics": [
            "0xce0457fe73731f824cc272376169235128c118b49d344817417c6d108d155e82",
            "0xb5062fa4a2e240553eefa7d5eb0452477daac3590a5cf9e4020631337a8cba3f",
            "0x4da432f1ecd4c0ac028ebde3a3f78510a21d54087b161590a63080d33b702b8d"
          ],
          "data": "0x0000000000000000000000000635513f179d50a207757e05759cbd106d7dfce8",
          "blockHash": "0x1cc342988987ca80d0751c1627b166e036ec16477afc4e1019866f37098ea21c",
          "blockNumber": "0x6961d2",
          "transactionHash": "0x25d0b2ddd3dd42b042b5b3aa2b5218431b61e98075763c5ccd015cea1410d741",
          "transactionIndex": "0x47",
          "logIndex": "0x5f",
          "removed": false
        },
        {
          "address": "0x0635513f179d50a207757e05759cbd106d7dfce8",
          "topics": [
            "0xc3d58168c5ae7397731d063d5bbf3d657854427343f4c083240f7aacaa2d0f62",
            "0x00000000000000000000000066664013474a29e9807d1736b1b1123f63345e22",
            "0x0000000000000000000000000000000000000000000000000000000000000000",
            "0x00000000000000000000000066664013474a29e9807d1736b1b1123f63345e22"
          ],
          "data": "0x596fcfb152234abeec0a336af85ed296f4a529b1feb1a726c8f4223689f9cedc0000000000000000000000000000000000000000000000000000000000000001",
          "blockHash": "0x1cc342988987ca80d0751c1627b166e036ec16477afc4e1019866f37098ea21c",
          "blockNumber": "0x6961d2",
          "transactionHash": "0x25d0b2ddd3dd42b042b5b3aa2b5218431b61e98075763c5ccd015cea1410d741",
          "transactionIndex": "0x47",
          "logIndex": "0x60",
          "removed": false
        },
        {
          "address": "0x0635513f179d50a207757e05759cbd106d7dfce8",
          "topics": [
            "0x8ce7013e8abebc55c3890a68f5a27c67c3f7efa64e584de5fb22363c606fd340",
            "0x596fcfb152234abeec0a336af85ed296f4a529b1feb1a726c8f4223689f9cedc"
          ],
          "data": "0x000000000000000000000000000000000000000000000000000000000000008000000000000000000000000066664013474a29e9807d1736b1b1123f63345e22000000000000000000000000000000000000000000000000000000000000000000000000000000000000000000000000000000000000000000000000696bc8680000000000000000000000000000000000000000000000000000000000000015057465737432096265657274616c696b03657468000000000000000000000000",
          "blockHash": "0x1cc342988987ca80d0751c1627b166e036ec16477afc4e1019866f37098ea21c",
          "blockNumber": "0x6961d2",
          "transactionHash": "0x25d0b2ddd3dd42b042b5b3aa2b5218431b61e98075763c5ccd015cea1410d741",
          "transactionIndex": "0x47",
          "logIndex": "0x61",
          "removed": false
        }
      ],
      "logsBloom": "0x00000000000000400000000000000000000000000000000000000000000004000000000000000000000000000000000000400000000010440000000000002000000000000200000000000000000001000000000000000000000000000000000000000000020000000000000004000801000000200000000000000000000000000000010000400000000000000100000000000000000000000000000000800000000000000000040000000000000000000000000000000000000000048000000000000000000000000080000000004000000000000008000000000000000020002000000800000000000000000100000000000000000000000000080000000000",
      "type": "0x2",
      "transactionHash": "0x25d0b2ddd3dd42b042b5b3aa2b5218431b61e98075763c5ccd015cea1410d741",
      "transactionIndex": "0x47",
      "blockHash": "0x1cc342988987ca80d0751c1627b166e036ec16477afc4e1019866f37098ea21c",
      "blockNumber": "0x6961d2",
      "gasUsed": "0x1bee6",
      "effectiveGasPrice": "0x1bfcac",
      "from": "0x66664013474a29e9807d1736b1b1123f63345e22",
      "to": "0x0635513f179d50a207757e05759cbd106d7dfce8",
      "contractAddress": null
    },
    {
      "status": "0x1",
      "cumulativeGasUsed": "0x7c4029",
      "logs": [
        {
          "address": "0x8fade66b79cc9f707ab26799354482eb93a5b7dd",
          "topics": [
            "0x65412581168e88a1e60c6459d7f44ae83ad0832e670826c05a4e2476b57af752",
            "0x596fcfb152234abeec0a336af85ed296f4a529b1feb1a726c8f4223689f9cedc"
          ],
          "data": "0x000000000000000000000000000000000000000000000000000000000000003c000000000000000000000000000000000000000000000000000000000000004000000000000000000000000000000000000000000000000000000000000000147364b8b12a5aff8e60e847f7c5765f97949e92ad000000000000000000000000",
          "blockHash": "0x1cc342988987ca80d0751c1627b166e036ec16477afc4e1019866f37098ea21c",
          "blockNumber": "0x6961d2",
          "transactionHash": "0x88bbb0081e2b26e501300a22654c03d42e239ca22bd00e66d0ae3ac888316613",
          "transactionIndex": "0x48",
          "logIndex": "0x62",
          "removed": false
        },
        {
          "address": "0x8fade66b79cc9f707ab26799354482eb93a5b7dd",
          "topics": [
            "0x52d7d861f09ab3d26239d492e8968629f95e9e318cf0b73bfddc441522a15fd2",
            "0x596fcfb152234abeec0a336af85ed296f4a529b1feb1a726c8f4223689f9cedc"
          ],
          "data": "0x0000000000000000000000007364b8b12a5aff8e60e847f7c5765f97949e92ad",
          "blockHash": "0x1cc342988987ca80d0751c1627b166e036ec16477afc4e1019866f37098ea21c",
          "blockNumber": "0x6961d2",
          "transactionHash": "0x88bbb0081e2b26e501300a22654c03d42e239ca22bd00e66d0ae3ac888316613",
          "transactionIndex": "0x48",
          "logIndex": "0x63",
          "removed": false
        }
      ],
      "logsBloom": "0x00000000000000000000000000000100000000000000000000000000100000000000000000000000100000000000000000000000000000400000000000000000000000000000000000000000000000000000000004000000000000000000000000000000000000000000000000000000000000000000000000000000000000000000000000400000000000000000000000000000000000000000000000000000000000000002000008000000040000000000000000000000000000000000000000000000002000000000000000000000000008000000000000000000000000002000000000000000000000000000000000000000000000000000000000000000",
      "type": "0x2",
      "transactionHash": "0x88bbb0081e2b26e501300a22654c03d42e239ca22bd00e66d0ae3ac888316613",
      "transactionIndex": "0x48",
      "blockHash": "0x1cc342988987ca80d0751c1627b166e036ec16477afc4e1019866f37098ea21c",
      "blockNumber": "0x6961d2",
      "gasUsed": "0x10172",
      "effectiveGasPrice": "0x1bfcac",
      "from": "0x66664013474a29e9807d1736b1b1123f63345e22",
      "to": "0x8fade66b79cc9f707ab26799354482eb93a5b7dd",
      "contractAddress": null
    },
    {
      "status": "0x1",
      "cumulativeGasUsed": "0x7da252",
      "logs": [
        {
          "address": "0x00000000000c2e074ec69a0dfb2997ba6c7d2e1e",
          "topics": [
            "0xce0457fe73731f824cc272376169235128c118b49d344817417c6d108d155e82",
            "0xb5062fa4a2e240553eefa7d5eb0452477daac3590a5cf9e4020631337a8cba3f",
            "0x4da432f1ecd4c0ac028ebde3a3f78510a21d54087b161590a63080d33b702b8d"
          ],
          "data": "0x0000000000000000000000000635513f179d50a207757e05759cbd106d7dfce8",
          "blockHash": "0x1cc342988987ca80d0751c1627b166e036ec16477afc4e1019866f37098ea21c",
          "blockNumber": "0x6961d2",
          "transactionHash": "0xb0abb2516c481780a16b2a1b24fb839d47544be3ed72a587455bf8dac1eaef2a",
          "transactionIndex": "0x49",
          "logIndex": "0x64",
          "removed": false
        },
        {
          "address": "0x00000000000c2e074ec69a0dfb2997ba6c7d2e1e",
          "topics": [
            "0x335721b01866dc23fbee8b6b2c7b1e14d6f05c28cd35a2c934239f94095602a0",
            "0x596fcfb152234abeec0a336af85ed296f4a529b1feb1a726c8f4223689f9cedc"
          ],
          "data": "0x0000000000000000000000008fade66b79cc9f707ab26799354482eb93a5b7dd",
          "blockHash": "0x1cc342988987ca80d0751c1627b166e036ec16477afc4e1019866f37098ea21c",
          "blockNumber": "0x6961d2",
          "transactionHash": "0xb0abb2516c481780a16b2a1b24fb839d47544be3ed72a587455bf8dac1eaef2a",
          "transactionIndex": "0x49",
          "logIndex": "0x65",
          "removed": false
        },
        {
          "address": "0x0635513f179d50a207757e05759cbd106d7dfce8",
          "topics": [
            "0x39873f00c80f4f94b7bd1594aebcf650f003545b74824d57ddf4939e3ff3a34b",
            "0x596fcfb152234abeec0a336af85ed296f4a529b1feb1a726c8f4223689f9cedc"
          ],
          "data": "0x0000000000000000000000000000000000000000000000000000000000000000",
          "blockHash": "0x1cc342988987ca80d0751c1627b166e036ec16477afc4e1019866f37098ea21c",
          "blockNumber": "0x6961d2",
          "transactionHash": "0xb0abb2516c481780a16b2a1b24fb839d47544be3ed72a587455bf8dac1eaef2a",
          "transactionIndex": "0x49",
          "logIndex": "0x66",
          "removed": false
        },
        {
          "address": "0x0635513f179d50a207757e05759cbd106d7dfce8",
          "topics": [
            "0xc3d58168c5ae7397731d063d5bbf3d657854427343f4c083240f7aacaa2d0f62",
            "0x00000000000000000000000066664013474a29e9807d1736b1b1123f63345e22",
            "0x00000000000000000000000066664013474a29e9807d1736b1b1123f63345e22",
            "0x0000000000000000000000007364b8b12a5aff8e60e847f7c5765f97949e92ad"
          ],
          "data": "0x596fcfb152234abeec0a336af85ed296f4a529b1feb1a726c8f4223689f9cedc0000000000000000000000000000000000000000000000000000000000000001",
          "blockHash": "0x1cc342988987ca80d0751c1627b166e036ec16477afc4e1019866f37098ea21c",
          "blockNumber": "0x6961d2",
          "transactionHash": "0xb0abb2516c481780a16b2a1b24fb839d47544be3ed72a587455bf8dac1eaef2a",
          "transactionIndex": "0x49",
          "logIndex": "0x67",
          "removed": false
        }
      ],
      "logsBloom": "0x00000000000000400000004000000000000000000000000000000000000004000000000000000000000000000000000000400000000010440000000000022000000000000200000040000000000001000000000000000000000000000000000000000000000000000000000004000001000000000000000000000000000000000000010000400000000000000100000000000080000000000000000000004000000000000200040000000000000000000004000000000000000000048000000000000000000000000080000000004080000000010008000000000000000000002000000000000000000000000100000000000000000000000000080000000000",
      "type": "0x2",
      "transactionHash": "0xb0abb2516c481780a16b2a1b24fb839d47544be3ed72a587455bf8dac1eaef2a",
      "transactionIndex": "0x49",
      "blockHash": "0x1cc342988987ca80d0751c1627b166e036ec16477afc4e1019866f37098ea21c",
      "blockNumber": "0x6961d2",
      "gasUsed": "0x16229",
      "effectiveGasPrice": "0x1bfcac",
      "from": "0x66664013474a29e9807d1736b1b1123f63345e22",
      "to": "0x0635513f179d50a207757e05759cbd106d7dfce8",
      "contractAddress": null
    }
  ],
  "libraries": [],
  "pending": [],
  "returns": {},
  "timestamp": 1729371410,
  "chain": 11155111,
  "commit": "b0cf2ab"
}